:020000040000fa
:080000000002040000000000f2
:020000040000fa
:04000800e40200000e
:020000040000fa
:04000c00ea02000004
:020000040000fa
:0400100002030000e7
:020000040000fa
:04001400f0020000f6
:020000040000fa
:04001800f6020000ec
:020000040000fa
:04001c00fc020000e2
:020000040000fa
:0400200002030000d7
:020000040000fa
:0400240002030000d3
:020000040000fa
:0400280002030000cf
:020000040000fa
:04002c0002030000cb
:020000040000fa
:0400300002030000c7
:020000040000fa
:040034007e1a000030
:020000040000fa
:04003800242600007a
:020000040000fa
:04003c0002030000bb
:020000040000fa
:0400400002030000b7
:020000040000fa
:0400440002030000b3
:020000040000fa
:0400480002030000af
:020000040000fa
:04004c0002030000ab
:020000040000fa
:0400500002030000a7
:020000040000fa
:0400540002030000a3
:020000040000fa
:04005800020300009f
:020000040000fa
:04005c00020300009b
:020000040000fa
:040060002c2600004a
:020000040000fa
:040064000203000093
:020000040000fa
:04006800020300008f
:020000040000fa
:04006c00020300008b
:020000040000fa
:040070000203000087
:020000040000fa
:040074009a170000d7
:020000040000fa
:04007800020300007f
:020000040000fa
:04007c00020300007b
:020000040000fa
:040080000203000077
:020000040000fa
:040084000203000073
:020000040000fa
:040088007c260000d2
:020000040000fa
:04008c00020300006b
:020000040000fa
:040090000203000067
:020000040000fa
:040094000203000063
:020000040000fa
:04009800020300005f
:020000040000fa
:04009c00020300005b
:020000040000fa
:0400a0000203000057
:020000040000fa
:0400a4000203000053
:020000040000fa
:0400a800020300004f
:020000040000fa
:0400ac00020300004b
:020000040000fa
:0400b0000203000047
:020000040000fa
:0400b4000203000043
:020000040000fa
:0400b800842600009a
:020000040000fa
:0400bc00020300003b
:020000040000fa
:0400c0000203000037
:020000040000fa
:0400c4000203000033
:020000040000fa
:0400c800020300002f
:020000040000fa
:0400cc00020300002b
:020000040000fa
:0400d0000203000027
:020000040000fa
:0400d4000203000023
:020000040000fa
:0400d800020300001f
:020000040000fa
:0400dc00020300001b
:020000040000fa
:0400e0000203000017
:020000040000fa
:0400e4000203000013
:020000040000fa
:0400e800020300000f
:020000040000fa
:0400ec00020300000b
:020000040000fa
:0400f0000203000007
:020000040000fa
:0400f4000203000003
:020000040000fa
:0400f80002030000ff
:020000040000fa
:0400fc0002030000fb
:020000040000fa
:0401000002030000f6
:020000040000fa
:0401040002030000f2
:020000040000fa
:0401080002030000ee
:020000040000fa
:04010c0002030000ea
:020000040000fa
:0401100002030000e6
:020000040000fa
:0401140002030000e2
:020000040000fa
:0401180002030000de
:020000040000fa
:04011c0002030000da
:020000040000fa
:0401200002030000d6
:020000040000fa
:0401240002030000d2
:020000040000fa
:0401280002030000ce
:020000040000fa
:04012c0002030000ca
:020000040000fa
:0401300002030000c6
:020000040000fa
:0401340002030000c2
:020000040000fa
:0401380002030000be
:020000040000fa
:04013c0002030000ba
:020000040000fa
:0401400002030000b6
:020000040000fa
:0401440002030000b2
:020000040000fa
:0401480002030000ae
:020000040000fa
:04014c0002030000aa
:020000040000fa
:0401500002030000a6
:020000040000fa
:0401540002030000a2
:020000040000fa
:04015800020300009e
:020000040000fa
:04015c00020300009a
:020000040000fa
:040160000203000096
:020000040000fa
:040164000203000092
:020000040000fa
:04016800020300008e
:020000040000fa
:04016c00020300008a
:020000040000fa
:040170000203000086
:020000040000fa
:040174000203000082
:020000040000fa
:04017800020300007e
:020000040000fa
:04017c00020300007a
:020000040000fa
:040180000203000076
:020000040000fa
:040184000203000072
:020000040000fa
:04018800020300006e
:020000040000fa
:04018c00020300006a
:020000040000fa
:040190000203000066
:020000040000fa
:040194000203000062
:020000040000fa
:04019800020300005e
:020000040000fa
:04019c00020300005a
:020000040000fa
:0401a0000203000056
:020000040000fa
:0401a4000203000052
:020000040000fa
:0401a800020300004e
:020000040000fa
:0401ac00020300004a
:020000040000fa
:0401b0000203000046
:020000040000fa
:0401b4000203000042
:020000040000fa
:0401b800020300003e
:020000040000fa
:0401bc00020300003a
:020000040000fa
:0401c0000203000036
:020000040000fa
:0401c4000203000032
:020000040000fa
:0401c800020300002e
:020000040000fa
:0401cc00020300002a
:020000040000fa
:0401d0000203000026
:020000040000fa
:0401d4000203000022
:020000040000fa
:0401d800020300001e
:020000040000fa
:0401dc00020300001a
:020000040000fa
:0401e0000203000016
:020000040000fa
:0401e4000203000012
:020000040000fa
:0401e800020300000e
:020000040000fa
:0401ec00020300000a
:020000040000fa
:0401f0000203000006
:020000040000fa
:0401f4000203000002
:020000040000fa
:0401f80002030000fe
:020000040000fa
:0401fc0002030000fa
:020000040000fa
:0402000002030000f5
:020000040000fa
:0402040002030000f1
:020000040000fa
:0402080002030000ed
:020000040000fa
:04020c0002030000e9
:020000040000fa
:0402100002030000e5
:020000040000fa
:0402140002030000e1
:020000040000fa
:0402180002030000dd
:020000040000fa
:04021c0002030000d9
:020000040000fa
:0402200002030000d5
:020000040000fa
:0402240002030000d1
:020000040000fa
:0402280002030000cd
:020000040000fa
:04022c0002030000c9
:020000040000fa
:0402300002030000c5
:020000040000fa
:0402340002030000c1
:020000040000fa
:0402380002030000bd
:020000040000fa
:04023c0002030000b9
:020000040000fa
:0402400002030000b5
:020000040000fa
:0402440002030000b1
:020000040000fa
:0402480002030000ad
:020000040000fa
:04024c0002030000a9
:020000040000fa
:0402500002030000a5
:020000040000fa
:0402540002030000a1
:020000040000fa
:04025800020300009d
:020000040000fa
:04025c000203000099
:020000040000fa
:040260000203000095
:020000040000fa
:040264000203000091
:020000040000fa
:04026800020300008d
:020000040000fa
:04026c000203000089
:020000040000fa
:040270000203000085
:020000040000fa
:040274000203000081
:020000040000fa
:04027800020300007d
:020000040000fa
:04027c000203000079
:020000040000fa
:040280000203000075
:020000040000fa
:040284000203000071
:020000040000fa
:04028800020300006d
:020000040000fa
:04028c000203000069
:020000040000fa
:040290000203000065
:020000040000fa
:040294000203000061
:020000040000fa
:04029800020300005d
:020000040000fa
:04029c000203000059
:020000040000fa
:0402a0000203000055
:020000040000fa
:0402a4000203000051
:020000040000fa
:0402a800020300004d
:020000040000fa
:0402ac000203000049
:020000040000fa
:0402b0000203000045
:020000040000fa
:0402b4000203000041
:020000040000fa
:0402b800020300003d
:020000040000fa
:0402bc000203000039
:020000040000fa
:0402c0000203000035
:020000040000fa
:0402c4000203000031
:020000040000fa
:0402c800020300002d
:020000040000fa
:0402cc000203000029
:020000040000fa
:0402d0000203000025
:020000040000fa
:0402d4000203000021
:020000040000fa
:0402d800020300001d
:020000040000fa
:0402dc000203000019
:020000040000fa
:0402e0000203000015
:020000040000fa
:0402e4000203000011
:020000040000fa
:0402e800020300000d
:020000040000fa
:0402ec000203000009
:020000040000fa
:0402f0000203000005
:020000040000fa
:0402f4000203000001
:020000040000fa
:0402f80002030000fd
:020000040000fa
:0402fc0002030000f9
:020000040000fa
:0403000002030000f4
:020000040000fa
:0403040002030000f0
:020000040000fa
:0403080002030000ec
:020000040000fa
:04030c0002030000e8
:020000040000fa
:0403100002030000e4
:020000040000fa
:100400002f5621000eff24000e018800000000007e
:10041000000020000000e000020032000001200087
:10042000200288000c000700207f2200010020002d
:100430000f000700000020000000e0000200320072
:100440000000020000000000661102000000000031
:100450000040da000000fe00e00520000000e0009f
:1004600002003200002020009001880000000600f9
:10047000a1028800800078000000eb001a0037001d
:10048000e280400054a0b4009101ba00e280400034
:1004900054a0b4009102ba00e280400054a0b4001d
:1004a0000002eb00472bde00f507b200a601880032
:1004b000602ce10008003a000049eb000201e8006e
:1004c000020039003420ec0002f0a0008301e900b2
:1004d000f9ff3e00040037006128e100010032000e
:1004e0000082eb000b00070011c3ba001101ba0033
:1004f0000604e00003003a000200e000e0ff3a00da
:1005000000000600f607b200a6028800820078000c
:10051000f5ff370004d0a300e20f49001c003900aa
:10052000810278003549ba000201e8000200390072
:100530003420ec0002f0a0008301e9000f0032003b
:100540002549ba000201e800020039003420ec001d
:1005500002f0a0008301e900080032000400e0007e
:100560000600320015c9ba000201e8000200390095
:100570003420ec0002f0a0008301e9008180e80053
:1005800054a0b4000300e000e2ff3a0000000600bf
:100590009102ba00055978008301e900f7ff3200a3
:1005a000c82ade00055978008301e900f3ff320014
:1005b0000400e000f1ff320011d9ba00eeff37006d
:1005c000c4130400000000000000fa00c028a900c5
:1005d000ffff37000000fa00c068a900ffff3700e6
:1005e0000000fa00c048a900ffff37000000fa0031
:1005f000c088a900ffff37000000fa00c0a8a900ca
:10060000ffff37000040da000000fe000a00fa0099
:10061000e20f500020003e0000ab8000e10f5000d0
:1006200006003200802320004523200023232000e1
:10063000042320000000e00004003a008022200093
:10064000452220002322200004222000060028004a
:100650001403630003003a00060878000000280035
:10066000140a700013a8a30001003a0013a0a00010
:1006700002007800050037001388a300feff320057
:100680003102fb00840a78000000e9000000e0006d
:10069000f9ff3a000800370033002000b3bf9f0085
:1006a000c0bf9f00d1bf9f00e2bf9f006a8057007c
:1006b000820507006fb99700020078000080fa00f9
:1006c000000006002428a90061e2a9000428a9006e
:1006d0000000060010138800211388000213880010
:1006e0000000060081118000e6806000e68f500067
:1006f0000c003a00030037003322ab00feff3a0043
:10070000a1118800b00078000100e000faff3a0073
:10071000000006003322ab00feff3a008100fb0020
:10072000a1118800b04078000104e000f9ff3a0010
:100730000000060003f0a200889fbe008a9fbe0052
:100740008c1f7800d2000700d90033006450e1000c
:100750004f0032006420e1005200320003826c003e
:1007600007003b000905d0000306d000820f5400ab
:100770000c065d0002003900020032008901780099
:10078000030678008582550004003d000003fd004b
:100790008103fd008502ea008b854200840f720010
:1007a00002003b0060001000e08018006011b800fb
:1007b0000005eb007a28e1000a0039000600780005
:1007c000c75ddd00f707b200878075002d00370098
:1007d000828171000a017800610560008180d1008a
:1007e0000080d3008502e900f9ff3b0006044000c9
:1007f0008784480002003b0060041400e0841c0071
:100800000988a300070032008a817100828171008b
:10081000610164008904d1000884d3008b05e800dd
:10082000170037000978a30013003a000b00e0001e
:10083000130034008b05e9000804440089844c004f
:100840000a4474000978a3000d003a000b00e00090
:10085000070034008b05e9000804440089844c003b
:1008600001003a000b0020000978a300f7ff3200d6
:100870000001eb0002003700828171000a0178005c
:100880005d0007000cf0a70001f0a0009100370008
:100890006420e10002003a00838f6c009100330075
:1008a0000801be000200be008a003700889fbe001b
:1008b0008a9fbe008c1f7800750007007c00330003
:1008c00003866c006450e1002e0032006420e100d9
:1008d000330032006150e1002f0032006120e1005e
:1008e0003100320085855500eb07b000090020007b
:1008f00008042000050037000804440089844c00e7
:100900000a0031000603430087834b0000015300b7
:1009100081815b00f8ff33000203be000800a000e5
:100920000804440089844c00f6ff3900c639dd0014
:100930008301730001003200130020008904d100fc
:100940000884d3000998a300050032000800a7001e
:100950000300a0008904d1000884d3008b05e800bf
:100960008904d1000884d3000001eb000281d20089
:100970002100070001f0a1000cf0a70001f0a00089
:10098000540037006420e100560032000801be0028
:100990000200be00f7ff37006120e1005100320085
:1009a0006000b800f3ff37000000200001f82700c6
:1009b000f0ff3700839f68000100e00002003d0067
:1009c00060001000e08018000300e00002003d001d
:1009d00060011100e0811900450007004f00e000b0
:1009e00002003b0060001000e080180000000600dc
:1009f0006011b8005100370081002000618055006f
:100a00000b003d000b00200061fe2f000100e10003
:100a10001d00340082817100610164008904d100ed
:100a20000884d3000000e800faff3a0071002000bb
:100a300061006400030070000200600009003200e1
:100a400061044400e0844c000988a50005003200e0
:100a50008b05e8006808e10002003a008904d10033
:100a60000884d300f20f20000258e10005003d0089
:100a7000c75ddd00f907b2008980750008007800c5
:100a8000000006000bf827008b007800000005002e
:100a90000004be00580007000003be000405be00ad
:100aa0000200be0054000700844f750000000600dd
:100ab0000200be006450e100050036006420e10041
:100ac000020036000968a30001003a000800be00d9
:100ad0000160a0004f0678004f05be004f04be0025
:100ae00000000600f0ff2f00f1ff2700f9ff37009c
:100af0006022b800060220000000d0008180d200f1
:100b00000482d2008582d2000000a00002025200be
:100b100083825a00030031000202420083824a00ad
:100b20000000a1000603e900f3ff3a000000060000
:100b3000efff07000400be0000000600889fbe0013
:100b40008a9fbe000082700004027100048271005e
:100b5000260032000004be000200be006011b80092
:100b60006b092000950220000182cf000a003900a5
:100b70000541b1000082cf00070039000541b100f6
:100b80000982cf00040039000541b1000882cf007e
:100b9000010039000541b100054252001200320047
:100ba0000a003b0082817100610164008100d10074
:100bb0000080d3008984d3000884d3008b05e8002b
:100bc0000442e800f7ff3a00070037000804440039
:100bd00089844c0000004800818048008b05e900b2
:100be0000442e900f9ff3a0083ff07004f05be0009
:100bf0004f04be0000000600c70ade00f107b20085
:100c0000f50fb20008003200e1cf420002003200ce
:100c10000170a00024000500810f70000100320067
:100c20000408050044000500810f700002003a002e
:100c3000140005008502e9000000400081c0480062
:100c4000fcff3b000170a00024000500800178003b
:100c500002003700b15978000201e9000200e0000b
:100c6000fcff3a0000000600800178000200370017
:100c7000815978000201e9000200e000fcff3a001f
:100c8000000006000001780082017800030178006e
:100c90003204e000fcff3a003141780082597800cc
:100ca0000204e000fcff3a000000060000017800aa
:100cb00002007800b041780081cf5100030032007b
:100cc0000304e000f9ff3a000001eb0002007800a5
:100cd00000000600800078003104e000feff3a00ca
:100ce0000080ea0000804000000006000c00fa00ce
:100cf000889fbe0000047800f0ff2700d0bf9f004f
:100d00008004eb0099bf9f0088bf9f00a8bf9f0091
:100d1000200c2000b0bf9f0078815700cfb0970013
:100d200070805700100007000fb89700094878003e
:100d30008fb89700088050004f04be000080fa0072
:100d400000000600d0019000028151004240a9003d
:100d50000300340010017800014978000208e8001f
:100d60000100780000000600fe874700889fbe0053
:100d70008a9fbe008c9fbe008e1f78008006780080
:100d8000d1af9f0092b79f000007eb003d033700f3
:100d9000dfa897008100e800d1af9f0051c2b300e7
:100da000814f500003003a005fa897000006eb0057
:100db00011003700bd0090000000fb000168a30097
:100dc000070032000e017800800078000d007800e6
:100dd000dcff07000000e00005003a0029033700af
:100de0008d00780033030700e10f40002503320037
:100df0000e07e800230337008000780030417800b8
:100e0000d3c2b300834f51000c00320007003c00f6
:100e1000edc15100834f51000a003200ebc1410087
:100e2000834f51000d003a000800370003c3b300a0
:100e3000834f510009003a00060037000c30a00033
:100e4000edff37000c00a000ebff37000c10a000f6
:100e5000e9ff37000c20a000e7ff37000c18a300c3
:100e6000010032000c00a1000c38a3000100320088
:100e70000c20a1000200fb000003b100e90f5000ac
:100e80000c003e00010178000000eb00ea00b90010
:100e9000b200fb000103b100008040008200780036
:100ea0009201fb000303b100e98f5100f7ff360008
:100eb000080037000000eb00a3c2b300834f5100cd
:100ec00004003a001fb197004200780092b79f00db
:100ed0008100e8008001eb00a3b79f00e2c2b300ed
:100ee000914f11000c003a000ce0a0006441510049
:100ef000d14f110003003200010178000302780095
:100f0000090037001fb29700c402780094b79f0011
:100f1000a5b79f008100e8000101780009003700b3
:100f2000ea22b9000482410082007800b201fb008d
:100f30000303b100e98f5100f9ff3600a4b79f0009
:100f4000f5ff3700b2407800d2af9f00c3c6b300b0
:100f500083cf5000250032000f003c0032c6b300a2
:100f600082cf5000a000320004003c000104e000e9
:100f7000c90232006b4151000f00370042c6b30076
:100f800082cf5000170032006541410082cf5000ef
:100f9000b3003a001300370032c7b30082cf5000cd
:100fa0001f00320007003c006441510082cf500016
:100fb000140032000241e80082cf5000a8003a003d
:100fc0001300370052c7b30082cf5000ab0032008d
:100fd0006341410082cf5000a1003a00e1d79f0059
:100fe0000d003700e1d79f00a60037000101200067
:100ff0000c48a30001003200010028000c8670009c
:10100000d0ff3700e1d79f000c60a0009d003700a3
:10101000e1d79f000c50a0000c70a0009900370091
:10102000e1d79f009fb39700c700780097b79f0054
:10103000b1b79f000100e00002003a00493e2100e4
:10104000b9b79f003fb197008000eb000100370067
:101050008100e800810141001304e000fcff3a0038
:10106000c1b79f002fb597000a00e00005003200cd
:10107000cfb597008b0f5500020031008a00780031
:10108000c1b79f00cfb097000004eb00810f500064
:101090000100360001045000680666002b003a008b
:1010a000110037003d0090000068a30007003200e7
:1010b0000e017800010220000d00780021ff0700da
:1010c0000000e00006003a00060037008d007800be
:1010d0000002200077020700e10f4000010032000b
:1010e0000e07e8000804e9000800e000edff3a0000
:1010f0000084eb00150037003d0090000068a3005d
:101100000900320008007800b000fb0000047800fd
:101110000e0178000d0078000aff07000000e000d3
:1011200008003a000f003700880078003100fb000b
:10113000010478008d0078005e020700e10f400096
:10114000080032000e07e80006003700acb79f0029
:10115000080678003fb49700cfb497005fb59700ba
:10116000efb59700090078008004e9000000e00076
:10117000e1ff3a00b8b79f00c9b79f00dab79f00f8
:10118000ebb79f000c0478002fb697000c00e0002e
:101190003c023200110037003d0090000068a300bf
:1011a000070032000e017800010220000d007800d7
:1011b000e4fe07000000e00006003a0006003700e9
:1011c0008d007800000220003a020700e10f400085
:1011d000010032000e07e8000804e9000800e00002
:1011e000edff3a00270237009fb2970045047800d0
:1011f00095b79f00cfc4de00614db9000802be0064
:101200000a03be004822de00c828dd000482700008
:10121000e4d79f000c48a300090032000404e0005a
:1012200007003200e14f420005003200f4d79f0072
:1012300088df9f0022002000c2b79f000300370014
:10124000f8d79f0013002000c3b79f0064fd2f0054
:101250000f0242000402e800b4b79f0081ff37008c
:10126000e1d79f0065fd2f0085824700b5b79f003d
:1012700016002000c6b79f007aff3700e1d79f0015
:101280000c0cb3008c007800010cb20032003a0064
:101290000c00e00005003d009fb097004105be0036
:1012a0004104be0091b79f00080037000c48a3001e
:1012b0000b0032001fb297004401be0094b79f009c
:1012c0000204be004fcdde008a057800b8b79f004b
:1012d000c9b79f00dab79f00ebb79f00090037003e
:1012e0009fb49700c900780099b79f00610ab900c0
:1012f000612bb900b4b79f00c5b79f00d6b79f0058
:10130000e7b79f003fb49700cfb497005fb5970051
:10131000efb59700e00f5400e08f5c00e00f5d0038
:10132000e08f5d0022003d003c00b3006022b80069
:101330006033b8000804520089845a000a055b0033
:101340008b855b00b8b79f00c9b79f00dab79f00d5
:10135000ebb79f00160037000c00e00004003d00d2
:101360001fb497004803be004802be0005003700c6
:101370000c48a300050032001fb497004802be00cd
:101380006033b80098b79f00050037009fb49700fe
:10139000c900780099b79f00610ab8006033b800af
:1013a000b4b79f00c5b79f00d6b79f00e7b79f00af
:1013b000afb297000500e0000d003a0016002000d3
:1013c000a6b79f003fb49700cfb497005fb59700d2
:1013d000efb59700e00f5400e08f5c00e00f5d0078
:1013e000e08f5d00020032008004eb00a9b79f008f
:1013f0000c0578000a0cb2008ab79f000104200097
:10140000810f55003400320003003c000a00e00068
:101410000800320048003700010820008fb597000f
:10142000818f550014003200010c2000818f55007f
:1014300041003a00423f210011c0b3003202be0019
:101440003203be003fb49700cfb497005fb597005a
:10145000efb597000440e10005c8e10006d0e100c7
:1014600007d8e100330039008140e800f4cf500094
:10147000f2ff3a002f00370011c0b3000401200032
:10148000050020006033b8003fb49700cfb4970048
:101490005fb59700efb597000440e10005c8e10093
:1014a00006d0e10007d8e100220039004900200001
:1014b0000402d0008582d2000683d2008783d20046
:1014c0008904e900faff3a008140e800f0cf5000bb
:1014d000edff3a001700370011c0b3008400200070
:1014e000050020006033b8003fb49700cfb49700e8
:1014f0005fb59700efb597000440e10005c8e10033
:1015000006d0e10007d8e1000a00390039002000c8
:101510000402d0008582d2000683d2008783d200e5
:101520008904e900faff3a008140e800f5cf500055
:10153000edff3a00e1d79f006fd597008a00fb00ce
:10154000afb597008b8f500002003d00ebd79f0096
:10155000040037002fb19700810f510001003d00ba
:10156000a1b79f000000e00003003200e300660026
:10157000010032000000e9000ce8a3000600320080
:10158000afb19700830f50000200340003005000f9
:10159000010037000000eb006fd297008400fb00d1
:1015a0008002eb00f5af9f00810f50000200340075
:1015b00081005000f1af9f000c28a3003c003200d6
:1015c000610166000c18a3000f0032003d0090007e
:1015d0000068a30006003200b10220000200e00013
:1015e000010032008180e8000e0178000d00370014
:1015f000b00220000200e000010032000080e8009c
:101600008d0078000e0037000200e000100032006c
:101610003d0090000068a300070032000e01780032
:10162000010220000d007800c6fd07000000e00068
:1016300006003a00060037008d0078000002200006
:101640001c010700e10f4000010032000e07e80016
:101650007fab97000600e0005200320006047800dd
:101660003d0090000068a300070032000e017800e2
:10167000010320000d007800b2fd07000000e0002b
:1016800006003a00060037008d00780000032000b5
:1016900008010700e10f4000010032000e07e800da
:1016a0000804e900eeff3a00f8af9f003d00370064
:1016b000ffab97000700e000160032000c38a300d3
:1016c00014003a00070478003d0090000068a30071
:1016d000070032000e017800010220000d007800a2
:1016e00098fd07000000e00006003a000600370001
:1016f0008d00780000022000ee000700e10f40009e
:10170000010032000e07e8000804e900eeff3a008d
:10171000f8af9f00610166000c18a3000f003200b3
:101720003d0090000068a30006003200b1022000d6
:101730000200e000010032008180e8000e01780024
:101740000d003700b00220000200e000010032006e
:101750000080e8008d0078000e0037000200e000f5
:10176000100032003d0090000068a3000700320026
:101770000e017800010220000d00780071fd0700c5
:101780000000e00006003a00060037008d007800f7
:1017900000022000c7000700e10f400001003200f6
:1017a0000e07e8002fb497008800e900c308dd00a9
:1017b000c03e210000804000e0af9f00960037004f
:1017c000afb497008904e900a9b79f000004200086
:1017d0000fb59700800f55006a00320003003c00ef
:1017e0000a00e000080032007700370000082000ff
:1017f0008fb59700808f55004c003200000c200000
:10180000808f550070003a000c00e0001e003d0083
:101810006fa897003004be002005be000802be007d
:101820000a03be003fb09700cfb097005fb19700aa
:10183000efb19700c2010700e0d79f000000fb0056
:10184000cf80de006109b9000802be000a03be00b5
:10185000240207003fb29700cfb297005fb3970012
:10186000efb397000002520081825a0002035b002e
:1018700083835b00b4b79f00c5b79f00d6b79f00b6
:10188000e7b79f00250037000c48a3001a0032007c
:101890003fb29700cfb297006fab97003604be00ff
:1018a0002605be000801be000400be00f4b79f007c
:1018b00085bf9f008efc0700e0d79f000000fb0063
:1018c000cf80de000801be00fe0007007fb2970057
:1018d0008fba97000002520081825a000404be00b1
:1018e0006055b800b8b79f00c9b79f00dab79f002e
:1018f000ebb79f0009003700efac970019017800a3
:101900003fb59700110009000285d800a200200011
:10191000110009000280d800e1d79f00efd59700a1
:101920000b43b000ebd79f0027003700303d21006c
:101930000c58a30001003200203c21002fb1970079
:10194000c210dd003fb29700cfb297005fb397009f
:10195000efb397008100e900050033008703d10051
:101960000683d3008582d3000482d300f9ff3700b9
:101970006f0262000402400014427800e4d79f0026
:1019800011003700afb19700e318b9003fb29700dc
:10199000cfb297005fb39700efb3970000047800d1
:1019a0000804e900050033008703d1000683d30053
:1019b0008582d3000482d300f9ff370067406200bc
:1019c0000043b000e0d79f00bd009000efd4970027
:1019d0000900fb000168a300070032000e01780037
:1019e000800078000d007800d6fc07000000e000c1
:1019f00005003a00050037008d0078002d00070033
:101a0000e10f4000010032000e07e8006fad9700c3
:101a100068055500eaaf9f00afb597000b00e000e6
:101a200067ff3a000c38a300160032007fa8970029
:101a30000000e00013003400000478003d00900036
:101a40000068a300070032000e01780001022000a8
:101a50000d007800bbfc07000000e00006003a0023
:101a6000060037008d0078000002200011000700fa
:101a7000e10f4000010032000e07e8000804e90011
:101a8000eeff3a00dfa8970011407800e0d79f00f2
:101a90000004e000befc3a000e0078004f0778001a
:101aa0004f06be004f05be004f04be00ef01b1005f
:101ab00000000600889fbe0001047800b800900076
:101ac0008084eb000118a3003a0032001801900056
:101ad0000198a30002003a000200e00035003a003d
:101ae0000190a0003104980080047800f90fb20042
:101af0000200e00002003a0028009000000c78008c
:101b0000ea8f540005003a000178a30003003a0070
:101b100088007800d0002000e6ff07001800900041
:101b2000d8009000810f50000b0032000000e80048
:101b3000100498001800780009487800000ce800ac
:101b400011c0b300a055210001487800ea8f54006d
:101b500018003a0005003700880078000940780036
:101b6000170007008004780012003700380090004a
:101b70000088a3000f00320018019000a800900018
:101b800048009000a1fa070098009000810f5000d3
:101b900004003200380090000003b30030049800c5
:101ba0008084eb000000eb001004980028009000f7
:101bb000000c7800090078004f04be000000060009
:101bc0000200fa00889fbe00a0ff9f000104780079
:101bd000380090000068a30033003a00e200600083
:101be00005003a000003b300300498001104980087
:101bf0000080eb002e003700d80490000900e000c0
:101c000006003a0012002000e680570048009000cd
:101c10007efa07001904980023003700a8009000fe
:101c20000100e00008003a00d1552100210498008d
:101c3000010c780021002000510498001104980044
:101c40000030a0003004980018019000a800900017
:101c5000480090006dfa0700280090008080eb009b
:101c600011049800aff8970001487800000ce800d4
:101c70002ff89700ea4f50000b003a003800900010
:101c80000088a3000800320018019000a80090000e
:101c9000480090005dfa07000000eb001004980077
:101ca000a8009000010c7800aff897000100fb003d
:101cb0004f04be000080fa000000060000c0da00f9
:101cc00000000600020ab900001bb9000200b800bb
:101cd000810042008100430000000600889fbe0092
:101ce0008a9fbe0030044200b0844a0030054b0099
:101cf00090854b006000b1000898be000a90be00bd
:101d00000440e10005c8e10006d0e10007d8e10089
:101d100002003100680040001008e8004f05be00d6
:101d20004f04be0000000600889fbe008a9fbe00d0
:101d30003004be002005be000418540005985c0065
:101d400006185d0007985d00110020000440e100c6
:101d500005c8e10006d0e10007d8e1000100390024
:101d60008000eb00108810004f05be004f04be003d
:101d7000000006001200fa00889fbe008a9fbe0085
:101d80008c9fbe00e0b79f00f1b79f0082bf9f000d
:101d900093bf9f000605be000404be000000eb00d8
:101da000d0b79f00c0b79f00b0b79f00a0b79f00fb
:101db00090b79f000006eb005fb19700cfb097008f
:101dc000820141003fb097000200e00004003d00a6
:101dd000370007007e805700c0ff07000300370070
:101de000330007007e805700cfff0700dfb6970063
:101df0000d00e0000c0035006fb29700ffb29700b5
:101e00000fbb97009fbb970010002000010020002f
:101e10006011b80000027200818272000203730038
:101e2000838373001b0007000c06e80001042000f8
:101e3000810f5600e0ff3a000d00e00004003d0075
:101e40000802be000a03be007e805700a3ff070001
:101e50005fa897000000e00005003a001fb297005d
:101e6000afb297003fb39700cfb3970009000700c8
:101e70006fb09700ffb097000fb997009fb9970018
:101e80004f06be004f05be004f04be000080fa00a2
:101e9000000006000100070000000600a4b79f0034
:101ea000b5b79f00c6b79f00d7b79f0000000600d8
:101eb0004f09de0082817100b3b79f004f01de0041
:101ec0008180400082807000a1b79f008fb0970092
:101ed0004f09de00000040000200700090b79f0034
:101ee0007fa897004f01de00818040008280700053
:101ef00081b79f000d0007004f3ade000000400050
:101f000004007000f0af9f000800070004024200c8
:101f100085824a0006034b0087834b00dfff0700e2
:101f20000802be000a03be00000006002fb29700a0
:101f3000bfb297004fb39700dfb3970000000600d1
:101f4000881f780018002000881f780089ff07008c
:101f50008f87e9004f04780000000600801feb0027
:101f600084ff07008f87e90000000600889fbe00fd
:101f70008a9fbe00e00f5000e08f5800e00f59002c
:101f8000e08f59000c003d006044b8006055b80077
:101f90000000540081805c0002015d0083815d00cf
:101fa000180020001500070008003d001800070079
:101fb0000004eb00050037000004eb000f000700f1
:101fc00002003d001200070018002000dcff07009f
:101fd0000800e000060032006022b8006033b8005c
:101fe0000000520081805a0002015b0083815b0087
:101ff0004f05be004f04be0000000600e00f520077
:10200000e08f5a00e00f5b00e08f5b0000000600ed
:102010006044b8006055b8000402540085825c003a
:1020200006035d0087835d0000000600889fbe00f8
:102030008a9fbe008c1f7800e00f5000e08f580090
:10204000e00f5900e08f59000d003d006044b800da
:102050006055b8000000540081805c0002015d0002
:1020600083815d001c0020000820e10009a8e10038
:102070000ab0e1000bb8e1000d003d000800370098
:102080000006eb00e00f5200e08f5a00e00f5b000b
:10209000e08f5b0006003d006044b8006055b8006a
:1020a0000402540085825c0006035d0087835d00a6
:1020b000aaff07000c00e000060032006022b80012
:1020c0006033b8000000520081805a0002015b00ba
:1020d00083815b004f0678004f05be004f04be00b1
:1020e00000000600889fbe008a9fbe008c1f7800fb
:1020f0000006eb00e00f5000e08f5800e00f5900a1
:10210000e08f590007003d006044b8006055b800fa
:102110000000540081805c0002015d0083815d004d
:102120001c002000e00f5200e08f5a00e00f5b001f
:10213000e08f5b0007003d006044b8006055b800c8
:102140000402540085825c0006035d0087835d0005
:102150000c00a2000c0007000c00e000060032009a
:102160006022b8006033b8000000520081805a003d
:1021700002015b0083815b004f0678004f05be00c3
:102180004f04be0000000600889fbe008a9fbe006c
:102190008c9fbe000404b8000506b8008904460000
:1021a00060854e000606b8000a054600e0854e0030
:1021b0000706b8008b054600040eb80089044600e7
:1021c0000a854e00e0854d00050eb8000a05460060
:1021d0008b854e00060eb8008b0546000416b8002d
:1021e0000a0546008b854e000516b8008b05460093
:1021f000041eb8008b0546000800be000a01be00a0
:102200004f06be004f05be004f04be000000060092
:020000040000fa
:10221000496e0000697400002e200000436f00002a
:102220006d7000006c650000746500000d0a000010
:10223000005300007465000070230000202500009a
:10224000313000006c750000205200004c3a000054
:1022500020250000313000006c64000020250000c3
:10226000313000006c64000020530000463a00004a
:1022700020250000366400002025000036640000a0
:1022800020530000413a0000202500003664000081
:102290002025000036640000200d00000a00000028
:1022a000242500006c640000202c0000256c000038
:1022b000642000002c2500006c640000002a00004f
:0c22c000255800000d0a0000000000007e
:020000040000fa
:1022cc001200fa00889fbe008a1f78006000b800d8
:1022dc00508d8800618d88006000b800708d88007a
:1022ec00818d8800e015200001002000908d880071
:1022fc00a18d880002042000e104210020042100ab
:10230c0020070700413c2100200421000a0307009c
:10231c00508d8000618d8000b08d8800c18d88004b
:10232c00708d8000818d8000d08d8800e18d8800bb
:10233c00840a07000000eb00000f78000100370052
:10234c001e0fe800300620009e007800808f5000a1
:10235c00fbff34000040eb0075040700810a070006
:10236c0000c0eb00720407000000eb00000f7800c7
:10237c00010037001e0fe800300620009e00780098
:10238c00808f5000fbff340030ccb3006804070092
:10239c007b0a070000c0eb00650407000000eb009f
:1023ac00000f7800010037001e0fe80030062000f7
:1023bc009e007800808f5000fbff3400c0cfb3002c
:1023cc005b040700750a070000c0eb005804070007
:1023dc000000eb00000f7800010037001e0fe80032
:1023ec00300620009e007800808f5000fbff3400e8
:1023fc0030ccb3004e040700750a070000c0eb0098
:10240c004b0407000000eb00000f780001003700c0
:10241c001e0fe800300620009e007800808f5000d0
:10242c00fbff34000040eb0041040700710a070079
:10243c0000c0eb003e0407000000eb00000f78002a
:10244c00010037001e0fe800300620009e007800c7
:10245c00808f5000fbff3400801029009ef807008d
:10246c00a01a2100c5040700050037000000000079
:10247c0003003700000000000100370000000000de
:10248c0050808000700060000000e0007d00320091
:10249c00708080008180800061004000e0804800f6
:1024ac007080880081808800ba00070070808000ee
:1024bc0081808000420620000300200099f907006b
:1024cc00e00f5000e08f58006a003a003081800025
:1024dc000040780061406000614060006140600035
:1024ec000080fb00610060004300dd002270800072
:1024fc0071ff2f00810061000100700020708800c6
:10250c0030818000620060000080d10000407800c3
:10251c00614060000080fb00610060004800dd004d
:10252c0022708000f1ef2f0081006100010070002b
:10253c002070880030818000640060004280de00e2
:10254c0000407800614060000080fb00610060008a
:10255c004400dd00c2708000f1fe2f00810061009c
:10256c0001007000c07088003081800000004000c5
:10257c003081880030818000e80f5000020032006a
:10258c00308180000100370010002000308188006d
:10259c007080800081808000027d2000030020007c
:1025ac0060f90700e00f5000e08f580014003a006b
:1025bc004081800000f0a7000000ea000000e90064
:1025cc004f00de004081880040818000e10f500008
:1025dc0005003a0080c12f00a080880080c12f0028
:1025ec00b080880004003700803e2000a080880066
:1025fc00803e2000b08088004001210023040700a9
:10260c008a8c8000598c8000288c8000f78b80008d
:10261c00948b8000a58b8000328b8000438b8000d4
:10262c007080800081808000e61c21008a1f780069
:10263c00891f7800881f7800871f7800849fbe0050
:10264c00829fbe00809fbe0090112900801f7800e1
:10265c0006007800a2f90700f687570000407800c2
:10266c001af0b7001ad0bf000080fb00e11c21005b
:10267c00f208070051808000f0fe2f0000806000ff
:10268c00508088005080800061006000004078001d
:10269c000004e0000400320051808000e0ff2f00b5
:1026ac0000806000508088005080800068006000ce
:1026bc000000e000040032005180800070ff2f0009
:1026cc000080600050808800518080000004200051
:1026dc00008060000000e0000400320051808000a7
:1026ec00f0fb2f000080600050808800c0808000cc
:1026fc000000e0000e003a00408280000000e00084
:10270c005aff320066004700800078002004210048
:10271c004f060700ee40900040c2b30080cf50003f
:10272c0054ff3a0010002000c080880054ff37008e
:10273c0040828000e80f500050ff360067004700d1
:10274c009200200080007800200421007d06070004
:10275c00a0c0b300005798006700470080007800c5
:10276c00a0002000b5080700e10120002004210092
:10277c00ad0707001830ef0041ff37000000fa00ea
:10278c00508080000040a000508088000080fa003b
:10279c00000006000a00fa00881f78000000eb0019
:1027ac00200798000000eb00300798000000eb00b9
:1027bc00000f78004500370010002000100798002b
:1027cc003e0037001e0090000001e8001e0078005b
:1027dc00e300b900800078001e00900000804000eb
:1027ec00c200dd0060162100008040001000be0019
:1027fc009e017800e31ab90084017800028141003f
:10280c00c211dd0062162100028141000089be0068
:10281c001e0090000001e8001e007800e300b900e3
:10282c00800078001e009000008040006c0040008a
:10283c00800040006016210000804000900078006d
:10284c001e007800e300b900020040006c0040005c
:10285c0000014000601621000000410001087800d2
:10286c001e0090000001e8001e007800e300b90093
:10287c00800078001e009000008040007200400034
:10288c00800040006016210000804000900078001d
:10289c001e007800e300b900020040007200400006
:1028ac000001400060162100000041000108780082
:1028bc001e0090000000e900100798001e00900018
:1028cc000000e000bfff3d001e0fe8001e00780076
:1028dc00e10f5000b8ff3400e0cfb3001403070041
:1028ec00200021004809070000c0eb00100307007e
:1028fc00108080002180800060001000e0801800b3
:10290c00308b8800418b8800d0cfb30008030700c0
:10291c00200021003c09070000c0eb000403070065
:10292c001080800021808000908b8800a18b880013
:10293c0070cfb300fe0207000000210063090700fe
:10294c0000c0eb00fa020700f18b80002000200091
:10295c0000047800110009008800d800800078007d
:10296c000080800000805000f08b8800f0cdb30018
:10297c00ef020700000021005409070000c0eb0023
:10298c00eb020700218c8000200020000001780061
:10299c00110009008200d8008000780000808000bf
:1029ac0000804000208c8800b0cfb300e00207000c
:1029bc00000021004509070000c0eb00dc02070005
:1029cc0000808000508c8800f0ceb300d802070045
:1029dc00000021003d09070000c0eb00d4020700f5
:1029ec00008080000000ea00808c88000000eb0072
:1029fc00000f7800270037001e007800e600b900b1
:102a0c0041022000808040006016210000804000c0
:102a1c00900078001e81e800601a2100000041003f
:102a2c00104078000080fb00610010008088b90025
:102a3c00800078001e007800e601b900a018210083
:102a4c0000004100010878001e007800e600b90083
:102a5c00f8004000601621000080400090007800d3
:102a6c00601a21001e004000104078000080fb001e
:102a7c00610010008088b900800078001e0078008a
:102a8c00e601b900e01721000000410001087800c0
:102a9c001e0fe8001e007800e10f5000d6ff340036
:102aac00a00f2000400798000000eb00000f7800fa
:102abc009f0037009e0178006c804100c200dd0051
:102acc0060162100008040001000be004f09de009f
:102adc008001eb0002004000838048008180d1001f
:102aec000080d3000003be001e007800ec00b9008b
:102afc008000780060162100008040001000be00ad
:102b0c00e30ab900e001b9000202420032002000e1
:102b1c000201b80003024200840178001e00780014
:102b2c00ec00b900e4004000601621000080400079
:102b3c001000be00c4ff2f00848ab9008082eb0015
:102b4c008584b9008802780005024200c5ff2f0079
:102b5c000500b80001024200840078000201400028
:102b6c00838148001e007800ec00b900e8004000aa
:102b7c0060162100008040001000be0002014000e1
:102b8c00838148004e009000cf80de00809ab9000f
:102b9c00828cb90088027800050242000010b8004f
:102bac000102420084007800060040008780480043
:102bbc009e0178006c814100c211dd00621621007b
:102bcc00028141000089be001e0278007c00420098
:102bdc0080004000601621000080400090007800ca
:102bec002000200000047800110009008800d800a3
:102bfc00800078001e007800e600b90078014000e3
:102c0c00601621000000410010007800e301b900bb
:102c1c001e007800e600b900fa01400060162100a1
:102c2c000080410090017800c0ff2f008098b9000f
:102c3c00000141001e007800e600b900fc014000d4
:102c4c006016210000804100100078000001410056
:102c5c004e0090008090b900808040001e017800ea
:102c6c007c00410000014000601621000000410082
:102c7c00010878009e0178007e80410080004000b1
:102c8c006016210000804000900078002000200099
:102c9c0000027800110009008400d8008000780040
:102cac001e007800e600b90042022000000141003d
:102cbc00601621000000410010007800e301b9000b
:102ccc001e007800e600b9006302200080814100fc
:102cdc00601621000080410090017800c0ff2f0099
:102cec008098b900000141001e007800e600b90090
:102cfc008302200080814100601621000080410089
:102d0c0010007800000141004e0090008090b90046
:102d1c00808040001e0478007e00440000014000ca
:102d2c006016210000004100010878001e0fe80029
:102d3c001e007800e10f50005eff34004f04780055
:102d4c000080fa00000006001000fa0070079800de
:102d5c000000eb00000f78000000eb00000f780083
:102d6c00200037001e007800ec00b90080007800cd
:102d7c0060162100008040001001be0090c12f00a1
:102d8c00f1ff2f00800f5100818f59000f003d0083
:102d9c001e007800e600b900f80040006016210023
:102dac0000804000900078001e0078000000400079
:102dbc007e019000000041001000780080805000df
:102dcc00400620008088b9000100370040ed2f003c
:102ddc009e007800818040008180e80000b7780078
:102dec001e0fe8001e007800e10f5000ddff3400dc
:102dfc000e80e800250207000080fa0000000600a3
:102e0c000400fa00881f780010079800508d80008d
:102e1c00618d8000b08d8800c18d8800708d800020
:102e2c00818d8000d08d8800e18d8800908d800090
:102e3c00a18d800000007800e08088000000eb008d
:102e4c00000f78000000eb00000f78003000370016
:102e5c001e007800000040009e009000008440009e
:102e6c001e007800ec00b90080007800601621008c
:102e7c00008040001001be001e007800c200dd0082
:102e8c00601b2100008040001000be0000025100b9
:102e9c0081825900e0808000cf80de000001be00fe
:102eac000400be00c0f6070000007800000c78009b
:102ebc001e007800000040009e00900080804000c2
:102ecc001e007800000040001e0190000000410030
:102edc0010007800f30f50000a0034001e00780038
:102eec00000040001e01900000004100100078001e
:102efc00a20f2000820f500003003400a00f20000e
:102f0c000100370040012000800878001e0fe80007
:102f1c001e007800e10f5000cdff34004f04780004
:102f2c000080fa00000006000000fa000268a90008
:102f3c000080fa00004006000400fa00000f780040
:102f4c001107980048000700730007000f000700e6
:102f5c002a00070023eba800000000001159800094
:102f6c0000002800008060000000e000fbff3a0039
:102f7c001e007800cf0607001e00900056010700c7
:102f8c00400107000080fa00000006000000fa0073
:102f9c00803e2000206088006a2cef005063800087
:102fac00506288006c2cef006063800060628800c7
:102fbc00222cef0000402c0010638800106380006e
:102fcc0010628800602cef000063800000628800b3
:102fdc00300020002063880020638000206288007d
:102fec00022cef000000280000608800462cef0047
:102ffc00662cef000080fa00000006000000fa00ca
:10300c003002a900801180000010a1000020a10056
:10301c008011880030a2a9003062a9005002200063
:10302c00c011880033a2a90033e2a90090118000de
:10303c000060a1000070a1009011880031e2a8008e
:10304c003342a800b133800000fc2f0000806000e8
:10305c003000b300b033880070c2b300c6e6b700ce
:10306c000080fa00000006000000fa00a004200016
:10307c00303a8800213a800000fe2f00008060006a
:10308c00203a8800203a80000060a1000070a10066
:10309c00203a88004827ef0040a7a9001200200022
:1030ac0080072000a109200033742000804978009b
:1030bc008149780082497800103a8000000178003c
:1030cc000200a00060042000710520002374200081
:1030dc00804978008149780082497800000000001e
:1030ec00113a800000002700808060000000210061
:1030fc00808f5000faff3a0000000000113a800067
:10310c0000022000008060000000e000fbff3200a5
:10311c000080fa00000006000000fa000022ef0018
:10312c000222ef00a42aef000e2eef00222eef0059
:10313c00362eef00006ea900010ea900148ea90016
:10314c0028eea900407180004700de00614060005d
:10315c000080fb00610060000000400002708000f5
:10316c00d1ff2f0081006100010070000070880009
:10317c00007080000000d100614060000080fb0006
:10318c006100600042718000e1ff2f00810061004e
:10319c000100700040718800407180000040780090
:1031ac00614060000080fb00610060004a00dd00af
:1031bc0002708000f1bf2f008100610001007000df
:1031cc0000708800007080004a00de0061406000e2
:1031dc000080fb006100600002708000e1ff2f00a6
:1031ec008100610001007000007088000070800098
:1031fc0000407800614060000080fb0061006000ce
:10320c004200dd00a2708000b1ff2f008100610040
:10321c0001007000a0708800a07080004200de00e9
:10322c00614060000080fb004f00dd00a270800058
:10323c00f1ff27008100610001007000a070880080
:10324c002eeea900707180004700de006140600026
:10325c000080fb00610060000000400032708000c4
:10326c00d1ff2f00810061000100700030708800d8
:10327c00307080000000d100614060000080fb00d5
:10328c006100600072718000e1ff2f00810061001d
:10329c00010070007071880070718000004078002f
:1032ac00614060000080fb00610060004a00dd00ae
:1032bc0032708000f1bf2f008100610001007000ae
:1032cc0030708800307080004a00de006140600081
:1032dc000080fb006100600032708000e1ff2f0075
:1032ec008100610001007000307088003070800037
:1032fc0000407800614060000080fb0061006000cd
:10330c004200dd00d2708000b1ff2f00810061000f
:10331c0001007000d0708800d07080004200de0088
:10332c00614060000080fb004f00dd00d270800027
:10333c00f1ff27008100610001007000d07088004f
:10334c00042ea800207080000000d10061406000b5
:10335c000080fb006100600062718000e1ff2f00c3
:10336c008100610001007000607188006071800054
:10337c0000407800614060000080fb00610060004c
:10338c004a00dd0022708000f1bf2f008100610037
:10339c000100700020708800207080004a00de0060
:1033ac00614060000080fb006100600022708000c2
:1033bc00e1ff2f0081006100010070002070880087
:1033cc002070800000407800614060000080fb00ad
:1033dc00610060004200dd00c2708000b1ff2f0070
:1033ec008100610001007000c0708800c070800016
:1033fc004200de00614060000080fb004f00dd00f9
:10340c00c2708000f1ff2700810061000100700094
:10341c00c07088002ceea90015cea80000eea80004
:10342c00146ea800282ea8001fcea8000aeea80033
:10343c001e6ea800322ea800004ea900044ea90052
:10344c00e133800000fc2f00008060000030a00001
:10345c00e0338800b1338000f00f2c0080806000d6
:10346c000090200001007000b033880090c2b300bf
:10347c00cde6b70080c3b300cce6b7000080fa00fd
:10348c00000006000000fa0005e1a9000421a900d3
:10349c0004c1a900200880000040a0000050a0003a
:1034ac00200888000021ef0020112000100888005f
:1034bc000042800000c0a00000d0a10000e0a100ec
:1034cc00004288000068a9002068a80005e1a80057
:1034dc000080fa00000006000200fa00000f7800dd
:1034ec001e007800008288000080fa0000000600b0
:1034fc003600f800809fbe00829fbe00849fbe00f5
:10350c00869fbe000000fa000082800000000100cf
:10351c000068a9000080fa004f03be004f02be00f5
:10352c004f01be004f00be003600f90000400600ff
:10353c000200fa00004f78009e40780061c06000e5
:10354c0061406000614060000080fb004f00dd00c6
:10355c00c2708000f1ff2700810061000100700043
:10356c00c07088009e40780062c060000080fb0044
:10357c000000d10000407800614060000080fb003a
:10358c00610060004200dd00c2708000b1ff2f00be
:10359c008100610001007000c07088009e407800be
:1035ac0064c060000080fb004200de000040780038
:1035bc00614060000080fb006100600022708000b0
:1035cc00e1ff2f0081006100010070002070880075
:1035dc009e40780068c060000080fb004300de0065
:1035ec0000407800614060000080fb0061006000da
:1035fc004a00dd0022708000f1bf2f0081006100c5
:10360c0001007000207088009e40780070c060003f
:10361c000080fb004400de00004078006140600048
:10362c000080fb006100600062718000e1ff2f00f0
:10363c0081006100010070006071880001c2b3005c
:10364c001ec060000080fb004500de0000407800da
:10365c00614060000080fb006100600000004000e1
:10366c0022708000d1ff2f008100610001007000ea
:10367c00207088000080fa00000006000200fa00aa
:10368c00000f78000080fa00000006000200fa002b
:10369c00000f78001e007800100078000000e00099
:1036ac000200340000402800106288001e007800e0
:1036bc00100078000000e00002003d0000402400f3
:1036cc00106288001e80e800100078000000e00006
:1036dc000200340000402800106388001e80e800bf
:1036ec00100078000000e00002003d0000402400c3
:1036fc00106388001e0078001000780000f0a7000e
:10370c000000ea00306288001e80e800100078009b
:10371c0000f0a7000000ea00306388000080fa0087
:10372c00000006000200fa00000f78001e0078006e
:10373c00e9f30700401f200020608800222cef00d6
:10374c0000002c0010638800106380001062880059
:10375c00206080000000d100306288002060800072
:10376c000000d10030638800ffff37000000fa0032
:10377c000000eb000080fa00000006000200fa00d6
:10378c00000f78003ed0bf000004e0000a003a00b1
:10379c009e00780001a68800c04821008040eb0004
:1037ac0001487800204c21008040eb000148780053
:1037bc0010c0b3003ef0b7000080fa000000060015
:1037cc001200fa00881f780000579800c0482100aa
:1037dc00104078000080fb00e20f500051003200d6
:1037ec00e20f500005003c000000e0000a0032002f
:1037fc00e10f50001a00320079013700e40f50003d
:10380c008b003200e40f500067003500e50f5000cc
:10381c009f003200720137008e50900040c2b300fe
:10382c0080cf500009003a0002042000414c2100d6
:10383c00d048210002f50700c048210011c0b30098
:10384c00014878000040eb0066013700c0482100b9
:10385c008040eb00014878000040eb00610137002c
:10386c008e50900040c2b30080cf50000e0032004a
:10387c008e509000a0c2b30080cf500004003a00dc
:10388c00204c210010407800f34f50000600360009
:10389c000e509000ed4f5000030032000e5090007f
:1038ac00ea4f500008003a00204c21008040eb0009
:1038bc0001487800c04821008040eb0001487800a6
:1038cc000040eb00470137008e509000a0c2b300bf
:1038dc0080cf500005003a00c048210021c0b30041
:1038ec00014878000040eb003e013700204c2100dd
:1038fc00104078008080fb00c04821000080400010
:10390c008e50900011409800204c210010407800ff
:10391c008040e800204c2100014878000040eb007a
:10392c00300137008e50900040c2b30080cf500061
:10393c000a0032008e509000a0c2b30080cf50001d
:10394c00060032000e509000ed4f50000300320084
:10395c000e509000ea4f500008003a00204c210015
:10396c008040eb0001487800c04821008040eb000b
:10397c00014878000040eb001a0137000e5090000f
:10398c0055010700410020008100dd00f04b2100b3
:10399c0001487800c048210031c0b30001487800cc
:1039ac000040eb000f0137008e50900040c2b30076
:1039bc0080cf50000a0032008e509000a0c2b3009d
:1039cc0080cf5000060032000e509000ed4f50009a
:1039dc00030032000e509000ea4f500008003a00ed
:1039ec00204c21008040eb0001487800c0482100a9
:1039fc008040eb00014878000040eb00f9003700f4
:103a0c00f04b2100104478000e509000320107005a
:103a1c0080407400f04b210001487800c048210020
:103a2c0041c0b300014878000040eb00ed003700c6
:103a3c008e50900040c2b30080cf5000070032007f
:103a4c008e509000a0c2b30080cf50000300320013
:103a5c000e509000ea4f500008003a00204c210014
:103a6c008040eb0001487800c04821008040eb000a
:103a7c00014878000040eb00da003700c048210014
:103a8c0051c0b300014878000040eb00d50037006e
:103a9c008e50900040c2b30080cf5000070032001f
:103aac008e509000a0c2b30080cf500003003200b3
:103abc000e509000ed4f500008003a00204c2100b1
:103acc008040eb0001487800c04821008040eb00aa
:103adc00014878000040eb00c20037000000eb000a
:103aec00000f78000040eb002047980007003700db
:103afc00c04821001e00400010409000ae409000d5
:103b0c0000c06800204798001e0fe800204c2100e0
:103b1c00104078000080fb009e0f5000f4ff3e0028
:103b2c00204c210010407800f54f5000a4003a00c2
:103b3c00f04b2100904078002e40900080cf500038
:103b4c009f003a000000eb00000f78005d0037008a
:103b5c001e0078004200dd006400400000014700b8
:103b6c006000b8000089be001e0078004200dd0035
:103b7c0064004000000047001001be00f00f200060
:103b8c000100200000017100818171004818dd00e6
:103b9c00c810de00810070004810dd001e017800a6
:103bac004211dd0064014100020147000089be00a2
:103bbc001e007800e300b9008080e800c0482100b6
:103bcc0000804000104090000081fb008001eb0061
:103bdc001e0078004200dd00640040000000470039
:103bec001000be0000017100818171004818dd00d9
:103bfc00c810de00810070004810dd001e01780046
:103c0c004211dd0064014100020147000089be0041
:103c1c001e007800e300b9008000e800c0482100d5
:103c2c0000804000104090000081fb008001eb0000
:103c3c001e0078004200dd006400400000004700d8
:103c4c001000be0000017100818171004818dd0078
:103c5c00c810de00810070004810dd001e017800e5
:103c6c004211dd0064014100020147000089be00e1
:103c7c001e007800e300b90080007800c0482100e5
:103c8c0000804000104090000081fb008001eb00a0
:103c9c001e0078004200dd00640040000000470078
:103cac001000be0000007100818071001e017800c0
:103cbc004211dd0064014100020147000089be0091
:103ccc001e0fe8001e007800e10f5000a0ff360028
:103cdc006000b800600798007107980050492100f7
:103cec00104078000081fb008001eb006e0090001a
:103cfc00fe00900000017100818171004818dd0008
:103d0c00c810de00810070004810dd0060079800cc
:103d1c007107980040492100104078000081fb0099
:103d2c008001eb006e009000fe009000000171001d
:103d3c00818171004818dd00c810de008100700020
:103d4c004810dd0060079800710798003049210089
:103d5c00104078000081fb008001eb006e009000a9
:103d6c00fe009000000071008180710060079800d7
:103d7c007107980002a680002e009000be009000f3
:103d8c000089be0002a680004e009000de0090006c
:103d9c00200198003101980002a680006e0090006e
:103dac00fe0090004001980051019800204c210029
:103dbc008040eb000148780010c0b30009003700c8
:103dcc00204c21008040eb0001487800c0482100c5
:103ddc008040eb00014878000040eb000100370008
:103dec000040eb004f0478000080fa000000060051
:103dfc003200fa00881f780030179800411798009d
:103e0c00521798006317980074179800051f9800b4
:103e1c0010c0b300004f78000000eb0010079800b2
:103e2c000040eb00406798007e1290008e1a9000c4
:103e3c005e119000ee1190003e109000ce1090009c
:103e4c00d6482100849fbe00829fbe00809fbe008a
:103e5c0000152900801f780006007800a0f30700e9
:103e6c00ee875700090037009e80fb00c0482100f8
:103e7c0000804000104090000080fb009e009000ed
:103e8c0000806800100798001e4fe8001e84fb009d
:103e9c00d04821008cf30700800f5400f2ff39004a
:103eac00640047009e009000811f7800f1152900e6
:103ebc00811f78008af30700e4875700e40047006d
:103ecc00d04821006cf30700d04821004f04780043
:103edc000080fa00000006000400fa002047980059
:103eec00ae40900000cdb30000c04000004f780001
:103efc001e407800e94f500005003c001e40780041
:103f0c000004e000020035001e4078001b00370062
:103f1c00ae409000f0cbb30000c04000004f7800e2
:103f2c001e407800e54f500006003c001e40780013
:103f3c000004e000030035001e4078006a40400099
:103f4c000e003700ae409000f0c9b30000c0400036
:103f5c00004f78001e407800e54f500006003c00f2
:103f6c001e4078000004e000030035001e4078007d
:103f7c006a4040000100370000c0eb000080fa00ee
:103f8c00000006000800fa001007980021079800ae
:103f9c00320798002e0090000000e0000300320071
:103fac001e0090000000e00002003a000000eb0050
:103fbc00250037003e009000e10f500002003e004b
:103fcc000000eb00200037001e009000ae009000b7
:103fdc00510098000000eb00000f7800060037003d
:103fec001e009000500090001e0040008040eb002e
:103ffc00014878001e0fe8003e0090009e007800fb
:10400c00808f5000f6ff39001e0090008000eb00fe
:10401c00010878001e0090008000eb001100980051
:10402c001e009000be009000210098001e00900021
:10403c008000eb00310098001e0090008040eb00e7
:10404c0001489800100020000080fa0000000600d3
:10405c000400fa00000f7800110798001e00780089
:10406c000000e000340032001e00780030009000a8
:10407c000000e000300032001e007800d0009000fc
:10408c001e007800100078000080400090407800fe
:10409c001e009000014878001e007800300090004f
:1040ac00e10f50000f003a001e00780090007800dd
:1040bc001e007800200090000000e900808f500066
:1040cc00040031001e007800100078000000e800a9
:1040dc00010037000000eb009e007800800878009b
:1040ec000e0037001e007800900078001e0078004b
:1040fc00200090000000e900808f50000400310087
:10410c001e007800100078000000e8000100370065
:10411c000000eb009e007800800878001e007800fc
:10412c00300090008000e9001e00780031009800fb
:10413c0010002000010037000000eb000080fa00a6
:10414c00000006000a00fa002007980031079800ca
:10415c00420798002e0090000000e000340032006e
:10416c003e0090000000e00031003200be009000e4
:10417c00110798002e009000b00090004e009000a7
:10418c00808f50002a0039000000eb00000f7800ef
:10419c001b0037001e0078009e009000008040003d
:1041ac00ae00900051019000ae009000910078009c
:1041bc008100410091407800014878002e00900069
:1041cc00900078002e009000200090000000e90084
:1041dc00808f5000060031002e00900010007800f7
:1041ec008000e8002e0090000108780003003700e2
:1041fc002e0090008000eb00010878001e0fe800f4
:10420c009e0078004e009000808f5000e1ff390036
:10421c002e009000b00090004e0090008080500066
:10422c002e00900031009800100020000100370093
:10423c000000eb000080fa00000006000400fa0009
:10424c00000f7800214798001e0078000000e00065
:10425c00290032001e007800b00090001e0078008b
:10426c0020009000808f500007003a001e0078005c
:10427c00004890008040e8001e007800014898003b
:10428c000000eb001d0037001e007800d0009000ed
:10429c001e0078001000900000804000ae4090009e
:1042ac00014878001e007800900090001e007800f5
:1042bc00200090000000e900808f500004003100c5
:1042cc001e007800100090000000e800010037008c
:1042dc000000eb009e007800900098001e00780013
:1042ec00300090008000e8001e007800310098003b
:1042fc0010002000010037000000eb000080fa00e5
:10430c00000006000e00fa003007980041079800e4
:10431c0052079800434f98003e0090000000e000c8
:10432c00750032004e0090000000e0007200320078
:10433c00ce009000210798004e4890000004e00049
:10434c00320032003e009000a00090003e00900031
:10435c0030009000808050005e009000808f5000f4
:10436c00020031000000eb00640037000000eb009d
:10437c00000f7800190037003e009000d00090002c
:10438c003e00900010009000008040009e007800dd
:10439c002e01900081004100914078000148780086
:1043ac001e0fe8003e009000900090003e00900030
:1043bc00200090000000e900808f500004003100c4
:1043cc003e009000100090000000e8000100370053
:1043dc000000eb00be009000900098009e0078005a
:1043ec005e009000808f5000e3ff39003e0090008b
:1043fc00b00090001e007800808040003e009000cd
:10440c0031009800100020003c0037000000eb0049
:10441c0010079800320037003e009000b00090006a
:10442c003e00900020009000808f50000c003a005d
:10443c003e009000804890005e00900000417800a3
:10444c001e009000004078000040510080c04000e9
:10445c003e009000014898000000eb002700370058
:10446c003e009000d00090003e00900010009000a4
:10447c00008040009e0090002e01900081004100c1
:10448c0091407800014878001e0090000000e80080
:10449c00100798003e009000300090008000e8006b
:1044ac003e009000310098003e009000900090007b
:1044bc003e009000200090000000e900808f50002a
:1044cc00040031003e009000100090000000e80055
:1044dc00010037000000eb00be0090009000980037
:1044ec009e0090005e009000808f5000caff390043
:1044fc0010002000010037000000eb000080fa00e3
:10450c00000006000400fa00000f78001107980064
:10451c001e0078000000e0000e0032001e00780043
:10452c00300090000000e0000a0032001e0078000d
:10453c00d00090001e007800100078000080400031
:10454c00904078001e009000014878001000200078
:10455c00010037000000eb000080fa0000000600ac
:10456c000c00fa0030079800410798005207980099
:10457c003e0090000000e00028003200ce009000c9
:10458c00210798003e009000b00090005e00900063
:10459c00808f5000210039003e0090001000780000
:1045ac00100798000000eb00000f78001500370092
:1045bc002e0090001e004000be00900051019000a3
:1045cc009e009000810041009140780001487800e5
:1045dc009e0090003e009000200090000000e9003a
:1045ec00808f5000040031001e0090000000e80095
:1045fc0010079800020037000000eb00100798002d
:10460c001e0fe8005e0090009e007800808f500026
:10461c00e7ff390010002000010037000000eb001c
:10462c000080fa00000006000400fa00000f780079
:10463c00110798001e007800b00090001e0090003a
:10464c00808f5000200036001e007800a0009000e3
:10465c001e00780010007800808050001e00900032
:10466c00808f50000a0031001e0078009000780006
:10467c001e00780020009000808050001e009000ea
:10468c00808040001e00780001087800060037008a
:10469c001e007800900078001e0090008080400082
:1046ac001e007800010878001e007800b000900011
:1046bc001e009000808050001e0078003100980091
:1046cc0010002000080037001e00780090009000b9
:1046dc001e007800010878001e0078008000eb00b6
:1046ec0031009800100020000080fa000000060045
:1046fc000e00fa00881f78002047980021079800c8
:10470c0032079800430798005407980065079800f3
:10471c004e009000104078000004e0000b003a00be
:10472c00ae40900040c2b30080cf500052003a001f
:10473c003e0090008040eb00014878004e00900055
:10474c0011c0b300014878004b0037004e009000b8
:10475c0010407800e14f50001b003a00ae40900032
:10476c00a0c2b30080cf500004003a004e0090006d
:10477c0021c0b300014878003f0037003e00900094
:10478c00104078000004e00004003d004e00900052
:10479c008040eb0001487800370037003e00900065
:1047ac00104078008080fb002e01900081004100b9
:1047bc002e419000824878008040e8003e00900036
:1047cc00014878002c0037004e0090001040780013
:1047dc00e24f50000b003a002e409000a10207005f
:1047ec0080407800400020008008dd005e009000d2
:1047fc00014878004e00900031c0b30001487800a9
:10480c001d0037004e00900010407800e34f500020
:10481c0019003a005e0090001040780000447800c7
:10482c002e4090008f0207000040740080407800fa
:10483c005e009000014878003e0090001040780027
:10484c00804078002e0090004e000700004f78004a
:10485c005e009000104078009e4f500003003a001c
:10486c00ee0090002e009000010001004e00900020
:10487c008040eb00014878004f0478000080fa007b
:10488c00000006000600fa00000f7800214798008f
:10489c0022079800f20020008000eb002e00900010
:1048ac00eef007001e0078000000e00006003a0061
:1048bc002e4090008000fb0090818000f8f00700f3
:1048cc00a08188000c0037002e4090000000fb00f7
:1048dc00800078001e007800f1f00700a0818800ad
:1048ec009e007800918188001e007800f6f0070089
:1048fc001e004000b0818800a08180000000e00014
:10490c000e003200a0818000800078009081800031
:10491c0000805000800078009081800001017800b8
:10492c00800078002e009000c5f00700a081800068
:10493c000000e800908188000a003700b0818000f8
:10494c00800078009081800000805000800078000a
:10495c009081800001017800800078002e0090008a
:10496c00b7f00700a081800000f0a7000000ea006b
:10497c000000e9004f00de00004078000080fa00e3
:10498c00000006000600fa00100798004147980046
:10499c000040eb00004f78000040eb0010479800ff
:1049ac001d0037001e4090000080fb009e00900010
:1049bc00008040009040780040c2b30080cf50008f
:1049cc00110032001e4090000080fb009e00900001
:1049dc000080400090407800a0c2b30080cf50000f
:1049ec00120032001e4090000080fb009e009000e0
:1049fc0000804000904078001e40780000c06800a5
:104a0c00004f780001003700000000001e409000ad
:104a1c000040e800104798009e4090004e409000e7
:104a2c0080cf5000dfff390001003700000000008c
:104a3c001e4078000080fa00000006000400fa0016
:104a4c00000f78001107980001cba80001aba8005b
:104a5c00018ba900016ba900005880000040a10047
:104a6c000050a10000588800005880000000a000f1
:104a7c000010a100005888001e00e9007058880042
:104a8c00f001200010588800402320006058880056
:104a9c001e00900020588800062bef000088a9000b
:104aac002088a80001eba80003eba8000080fa0006
:104abc00000006000200fa00000f78009e0078004b
:104acc005181880011cba80011aba900118ba90052
:104adc00116ba900805880000040a0000050a1007c
:104aec0080588800805880000000a1000010a100b0
:104afc0080588800805880000000a1000010a100a0
:104b0c0080588800805880000040a1000050a1000f
:104b1c00805888001e2bef00e00120009058880080
:104b2c0060232000e058880040522100a0588800e3
:104b3c00162bef0001c8a90021c8a80011eba80092
:104b4c000080fa00000006000400fa00000f780054
:104b5c001107980021cba90021aba800218ba9003b
:104b6c00216ba900005980000040a1000050a10059
:104b7c0000598800005980000000a0000010a1001e
:104b8c00005988001e00e90070598800a000200020
:104b9c001059880080262000605988001e00900063
:104bac0020598800262bef001e0090001000780082
:104bbc00401388000308a9002308a80021eba800d3
:104bcc000080fa00000006000200fa00000f7800d6
:104bdc009e0078006181880031cba90031aba9001f
:104bec00318ba900316ba900805980000040a000d6
:104bfc000050a10080598800805980000000a1005d
:104c0c000010a100805988003e2bef00a00020006e
:104c1c009059880080262000e059880040502100df
:104c2c00a0598800362bef000488a9002488a8001e
:104c3c0031eba8000080fa00000006000000fa002a
:104c4c000088a9000080fa00004006003600f80039
:104c5c00809fbe00829fbe00849fbe00869fbe00c8
:104c6c000200fa00100280004500de006740600080
:104c7c00004f7800100280000050a0000060a000df
:104c8c000070a0001002880000000000508180001d
:104c9c008041eb00120020004152210099fd0700d9
:104cac001e407800674060000080fb0067006000d9
:104cbc004500dd0012028000f1f12f00810061003f
:104ccc0001007000100288000000000001c8a9005b
:104cdc000080fa004f03be004f02be004f01be0021
:104cec004f00be003600f900004006000000fa003c
:104cfc000308a9000080fa00004006003600f80006
:104d0c00809fbe00829fbe00849fbe00869fbe0017
:104d1c000000fa0020a880008040780060818000ac
:104d2c0046fd07000488a9000080fa004f03be006e
:104d3c004f02be004f01be004f00be003600f9000e
:104d4c00004006000000fa005bee0700e2818000e4
:104d5c00d1818000c08180005bee07000080fa00ea
:104d6c00000006000000fa00800820008b000700fd
:104d7c0030002000890007000080fa0000000600c7
:104d8c000000fa0000092000840007002000200029
:104d9c00820007000080fa00000006000000fa0004
:104dac00800920007d0007000000eb007b0007005d
:104dbc000000eb00790007000000eb007700070013
:104dcc000000eb00750007000080fa0000000600f0
:104ddc000000fa0080092000700007000000eb00c2
:104dec006e0007000000eb006c0007000080fa006a
:104dfc00000006000000fa00000e2000670007000b
:104e0c000080fa00000006000e00fa00600798000f
:104e1c000006200061000700640047008000780055
:104e2c000000eb0049000700660047008000780096
:104e3c000000eb0045000700680047008000780088
:104e4c000000eb00410007006a004700800078007a
:104e5c000000eb003d0007002e009000c800dd00b4
:104e6c003e00900000804000cf80de00008fbe002e
:104e7c001e00be004809dd00c801de008301710080
:104e8c004801dd004e009000cf80de00001f410085
:104e9c00019749001e00be004809dd00c801de0074
:104eac00830171004801dd005e009000cf80de00c0
:104ebc00001f4100019749006e0090003e187800d9
:104ecc002e1078000080fa00000006000800fa009e
:104edc003007980000062000300007000e80e80024
:104eec00800078000000eb00180007006400470009
:104efc00800078000000eb00140007001e009000fa
:104f0c00c800dd002e009000008f40003e00900095
:104f1c001e0878000080fa00000006000400fa0069
:104f2c0010079800800420001c0007008e007800f9
:104f3c000000eb00050007009e0078001e009000aa
:104f4c00010878000080fa00000006000600fa0054
:104f5c00100798002107980040138000000f78007c
:104f6c001e00900040138800000000000013800019
:104f7c00610060000000e000fcff32004013800084
:104f8c00000f780040138000800078002e00900005
:104f9c00010878000080fa00000006000400fa0006
:104fac001007980040138000000f78001e0090003e
:104fbc0040138800000000000013800061006000b6
:104fcc000000e000fcff320040138000000f78006e
:084fdc000080fa00000006004d
:020000040000fa
:104fe4004210000080030000800000001c1000003c
:104ff4000e000000820000005e01d00007000000e7
:10500400e80300000001000001000000001000009f
:105014001c000000800000000415000030000000a7
:10502400800000002a10000008000000800000003a
:105034003210000006000000800000008c14000004
:1050440078000000800000003e1000000200000014
:1050540080000000381000000600000082000000fc
:1050640035e1fe007fbfdf004010000002000000b9
:1050740080000000c2130000ca000000820000008b
:10508400303132003334350036373800394142008c
:105094004344450046003000313233003435360095
:1050a40037383900616263006465660000286e0069
:1050b400756c6c0029000000010000000000000075
:1050c40000000a000000000000000000006400006e
:1050d4000000000000000000e803000000000000e1
:1050e40000001000270000000000000000a086005f
:1050f400010000000000000040420f00000000001a
:105104000000800096980000000000000000e1000c
:10511400f50500000000000000ca9a003b000000f2
:1051240000000000e40b5400020000000000e8004e
:1051340076481700000000000010a500d4e8000025
:1051440000000000a0724e0018090000000040009a
:105154007a10f3005a0000000080c600a47e8d007f
:105164000300000000c16f00f2862300000000006d
:105174008a5d78004563010000006400a7b3b600af
:10518400e00d000000e889000423c7008a00000045
:105194003415000026000000820000005b150000aa
:1051a400005b150009000000000200005d1500000e
:1051b400005d15000e020100000000000000000068
:1051c4000000000006020200000000003415000088
:1051d4005a15000006000000800000006015000061
:1051e4000200000082000000010000008829800005
:020000040000fa
:1051f4000400fa0020479800ae40900000cdb300b0
:1052040000cf40001e407800e94f500002003e00ed
:105214001e40780013003700ae409000f0cbb3007e
:1052240000cf40001e407800e54f500003003e00d0
:105234009e4078006ac040000a003700ae409000eb
:10524400f0c9b30000cf40001e407800e54f500085
:1052540003003e009e4078006ac040000100370011
:1052640000c0eb000080fa00000006000200fa0013
:10527400004f78001e407800e94f500003003e00c4
:1052840001c3b3001ec040000a0037001e4078006e
:10529400e94f5000060036001e407800ef4f5000e2
:1052a40003003e0011c4b3001ec0400001003700db
:1052b4000040eb000080fa00000006000600fa003f
:1052c400889fbe00004f78001207980023079800bb
:1052d4001e80fb008000eb00c4ed07000004be004c
:1052e40002002000032724001e009000ae0090005e
:1052f4006ded07000001be000800be000ded0700c3
:0c5304004f04be000080fa00000006000c
:020000040000fa
:045310000000000099
:020000040000fa
:020000040005f5
:0457300078ff0000fe
:020000040000fa
:020000040005f5
:045738007bff0000f3
:020000040000fa
:020000040005f5
:045740009fff0000c7
:020000040000fa
:020000040005f5
:04575000fdff000059
:020000040000fa
:020000040005f5
:04577800feff000030
:020000040000fa
:020000040005f5
:04578000feff000028
:00000001FF
