:020000040000fa
:080000000002040000000000f2
:020000040000fa
:04000800fe020000f4
:020000040000fa
:04000c00fe020000f0
:020000040000fa
:04001000fe020000ec
:020000040000fa
:04001400fe020000e8
:020000040000fa
:04001800fe020000e4
:020000040000fa
:04001c00fe020000e0
:020000040000fa
:04002000fe020000dc
:020000040000fa
:04002400fe020000d8
:020000040000fa
:04002800fe020000d4
:020000040000fa
:04002c00fe020000d0
:020000040000fa
:04003000fe020000cc
:020000040000fa
:040034005222000054
:020000040000fa
:04003800dc2f0000b9
:020000040000fa
:04003c00fe020000c0
:020000040000fa
:04004000fe020000bc
:020000040000fa
:04004400fe020000b8
:020000040000fa
:04004800fe020000b4
:020000040000fa
:04004c00fe020000b0
:020000040000fa
:04005000fe020000ac
:020000040000fa
:04005400fe020000a8
:020000040000fa
:04005800fe020000a4
:020000040000fa
:04005c00fe020000a0
:020000040000fa
:04006000e42f000089
:020000040000fa
:04006400fe02000098
:020000040000fa
:04006800fe02000094
:020000040000fa
:04006c00fe02000090
:020000040000fa
:04007000fe0200008c
:020000040000fa
:04007400c61e0000a4
:020000040000fa
:04007800fe02000084
:020000040000fa
:04007c00fe02000080
:020000040000fa
:04008000fe0200007c
:020000040000fa
:04008400fe02000078
:020000040000fa
:040088003230000012
:020000040000fa
:04008c00fe02000070
:020000040000fa
:04009000fe0200006c
:020000040000fa
:04009400fe02000068
:020000040000fa
:04009800fe02000064
:020000040000fa
:04009c00fe02000060
:020000040000fa
:0400a000fe0200005c
:020000040000fa
:0400a400fe02000058
:020000040000fa
:0400a800fe02000054
:020000040000fa
:0400ac00fe02000050
:020000040000fa
:0400b000fe0200004c
:020000040000fa
:0400b400fe02000048
:020000040000fa
:0400b8003a300000da
:020000040000fa
:0400bc00fe02000040
:020000040000fa
:0400c000fe0200003c
:020000040000fa
:0400c400fe02000038
:020000040000fa
:0400c800fe02000034
:020000040000fa
:0400cc00fe02000030
:020000040000fa
:0400d000fe0200002c
:020000040000fa
:0400d400fe02000028
:020000040000fa
:0400d800fe02000024
:020000040000fa
:0400dc00fe02000020
:020000040000fa
:0400e000fe0200001c
:020000040000fa
:0400e400fe02000018
:020000040000fa
:0400e800fe02000014
:020000040000fa
:0400ec00fe02000010
:020000040000fa
:0400f000fe0200000c
:020000040000fa
:0400f400fe02000008
:020000040000fa
:0400f800fe02000004
:020000040000fa
:0400fc00fe02000000
:020000040000fa
:04010000fe020000fb
:020000040000fa
:04010400fe020000f7
:020000040000fa
:04010800fe020000f3
:020000040000fa
:04010c00fe020000ef
:020000040000fa
:04011000fe020000eb
:020000040000fa
:04011400fe020000e7
:020000040000fa
:04011800fe020000e3
:020000040000fa
:04011c00fe020000df
:020000040000fa
:04012000fe020000db
:020000040000fa
:04012400fe020000d7
:020000040000fa
:04012800fe020000d3
:020000040000fa
:04012c00fe020000cf
:020000040000fa
:04013000fe020000cb
:020000040000fa
:04013400fe020000c7
:020000040000fa
:04013800fe020000c3
:020000040000fa
:04013c00fe020000bf
:020000040000fa
:04014000fe020000bb
:020000040000fa
:04014400fe020000b7
:020000040000fa
:04014800fe020000b3
:020000040000fa
:04014c00fe020000af
:020000040000fa
:04015000fe020000ab
:020000040000fa
:04015400fe020000a7
:020000040000fa
:04015800fe020000a3
:020000040000fa
:04015c00fe0200009f
:020000040000fa
:04016000fe0200009b
:020000040000fa
:04016400fe02000097
:020000040000fa
:04016800fe02000093
:020000040000fa
:04016c00fe0200008f
:020000040000fa
:04017000fe0200008b
:020000040000fa
:04017400fe02000087
:020000040000fa
:04017800fe02000083
:020000040000fa
:04017c00fe0200007f
:020000040000fa
:04018000fe0200007b
:020000040000fa
:04018400fe02000077
:020000040000fa
:04018800fe02000073
:020000040000fa
:04018c00fe0200006f
:020000040000fa
:04019000fe0200006b
:020000040000fa
:04019400fe02000067
:020000040000fa
:04019800fe02000063
:020000040000fa
:04019c00fe0200005f
:020000040000fa
:0401a000fe0200005b
:020000040000fa
:0401a400fe02000057
:020000040000fa
:0401a800fe02000053
:020000040000fa
:0401ac00fe0200004f
:020000040000fa
:0401b000fe0200004b
:020000040000fa
:0401b400fe02000047
:020000040000fa
:0401b800fe02000043
:020000040000fa
:0401bc00fe0200003f
:020000040000fa
:0401c000fe0200003b
:020000040000fa
:0401c400fe02000037
:020000040000fa
:0401c800fe02000033
:020000040000fa
:0401cc00fe0200002f
:020000040000fa
:0401d000fe0200002b
:020000040000fa
:0401d400fe02000027
:020000040000fa
:0401d800fe02000023
:020000040000fa
:0401dc00fe0200001f
:020000040000fa
:0401e000fe0200001b
:020000040000fa
:0401e400fe02000017
:020000040000fa
:0401e800fe02000013
:020000040000fa
:0401ec00fe0200000f
:020000040000fa
:0401f000fe0200000b
:020000040000fa
:0401f400fe02000007
:020000040000fa
:0401f800fe02000003
:020000040000fa
:0401fc00fe020000ff
:020000040000fa
:04020000fe020000fa
:020000040000fa
:04020400fe020000f6
:020000040000fa
:04020800fe020000f2
:020000040000fa
:04020c00fe020000ee
:020000040000fa
:04021000fe020000ea
:020000040000fa
:04021400fe020000e6
:020000040000fa
:04021800fe020000e2
:020000040000fa
:04021c00fe020000de
:020000040000fa
:04022000fe020000da
:020000040000fa
:04022400fe020000d6
:020000040000fa
:04022800fe020000d2
:020000040000fa
:04022c00fe020000ce
:020000040000fa
:04023000fe020000ca
:020000040000fa
:04023400fe020000c6
:020000040000fa
:04023800fe020000c2
:020000040000fa
:04023c00fe020000be
:020000040000fa
:04024000fe020000ba
:020000040000fa
:04024400fe020000b6
:020000040000fa
:04024800fe020000b2
:020000040000fa
:04024c00fe020000ae
:020000040000fa
:04025000fe020000aa
:020000040000fa
:04025400fe020000a6
:020000040000fa
:04025800fe020000a2
:020000040000fa
:04025c00fe0200009e
:020000040000fa
:04026000fe0200009a
:020000040000fa
:04026400fe02000096
:020000040000fa
:04026800fe02000092
:020000040000fa
:04026c00fe0200008e
:020000040000fa
:04027000fe0200008a
:020000040000fa
:04027400fe02000086
:020000040000fa
:04027800fe02000082
:020000040000fa
:04027c00fe0200007e
:020000040000fa
:04028000fe0200007a
:020000040000fa
:04028400fe02000076
:020000040000fa
:04028800fe02000072
:020000040000fa
:04028c00fe0200006e
:020000040000fa
:04029000fe0200006a
:020000040000fa
:04029400fe02000066
:020000040000fa
:04029800fe02000062
:020000040000fa
:04029c00fe0200005e
:020000040000fa
:0402a000fe0200005a
:020000040000fa
:0402a400fe02000056
:020000040000fa
:0402a800fe02000052
:020000040000fa
:0402ac00fe0200004e
:020000040000fa
:0402b000fe0200004a
:020000040000fa
:0402b400fe02000046
:020000040000fa
:0402b800fe02000042
:020000040000fa
:0402bc00fe0200003e
:020000040000fa
:0402c000fe0200003a
:020000040000fa
:0402c400fe02000036
:020000040000fa
:0402c800fe02000032
:020000040000fa
:0402cc00fe0200002e
:020000040000fa
:0402d000fe0200002a
:020000040000fa
:0402d400fe02000026
:020000040000fa
:0402d800fe02000022
:020000040000fa
:0402dc00fe0200001e
:020000040000fa
:0402e000fe0200001a
:020000040000fa
:0402e400fe02000016
:020000040000fa
:0402e800fe02000012
:020000040000fa
:0402ec00fe0200000e
:020000040000fa
:0402f000fe0200000a
:020000040000fa
:0402f400fe02000006
:020000040000fa
:0402f800fe02000002
:020000040000fa
:0402fc00fe020000fe
:020000040000fa
:04030000fe020000f9
:020000040000fa
:04030400fe020000f5
:020000040000fa
:04030800fe020000f1
:020000040000fa
:04030c00fe020000ed
:020000040000fa
:04031000fe020000e9
:020000040000fa
:10040000cf6e21000eff24000e01880000000000c6
:10041000000020000000e000020032000001200087
:100420002002880014000700bf0007000000e00061
:1004300003003a00e0b7220001002000020037006c
:100440000000200001002000810f70000100320038
:100450000f000700000020000000e0000200320052
:100460000000020000000000ec1802000000000084
:100470000040da000000fe00000520000000e0005f
:1004800002003200002020009001880000000600d9
:10049000a1028800800478000000eb001f003700f4
:1004a000e284440054a0b4009905ba00e2844400f8
:1004b00054a0b4009906ba00e284440054a0b400e9
:1004c0000006eb00476fde00fd07b200ae018800ba
:1004d000636ce10003003a000ad801000000eb0061
:1004e0000e003700606ce10008003a00004deb00a0
:1004f0000a05e800020039003420ec000af0a000f0
:100500008b05e900f9ff3e00040037006168e10057
:10051000010032000086eb000b00070019c7ba008b
:100520001905ba000e04e00003003a000a00e000da
:10053000dbff3a0000000600fe07b200ae028800b2
:100540008a047800f5ff37000cd0a300e20f4d00bd
:100550001c00390089027800354dba000a05e80010
:10056000020039003420ec000af0a0008b05e900fd
:100570000f003200254dba000a05e80002003900dc
:100580003420ec000af0a0008b05e90008003200de
:100590000c00e0000600320015cdba000a05e800a4
:1005a000020039003420ec000af0a0008b05e900bd
:1005b0008984e80054a0b4000b00e000e2ff3a0098
:1005c000000006009902ba00055d78008b05e9007d
:1005d000f7ff3200c82ade00055d78008b05e900d0
:1005e000f3ff32000c00e000f1ff320019ddba0029
:1005f000eeff3700021b0400000000000040da009c
:100600000000fe000a00fa00e20f50001f003e004a
:1006100050b78000e10f5000060032008023200018
:100620004523200023232000042320000000e000b5
:1006300004003a00802220004522200023222000ce
:1006400004222000060028009403630002003a0000
:1006500007087800140a730013a8a30001003a00e9
:1006600013a0a00002007800050037001388a30043
:10067000feff32003102fb00840a78000000e9002e
:100680000000e000f9ff3a000800370033002000c6
:10069000b3bf9f00c0bf9f00d1bf9f00e2bf9f00bc
:1006a0006a805700f00707006fb9970002007800d2
:1006b0000080fa00000006002428a90061e2a900d9
:1006c0000428a900000006001013880021138800e8
:1006d000021388000000060081118000e68060009f
:1006e000e68f50000c003a00030037003322ab00c5
:1006f000feff3a00a1118800b00078000100e00080
:10070000faff3a00000006003322ab00feff3a0079
:100710008100fb00a1118800b04078000104e000d6
:10072000f9ff3a00000006000000050003f0a200f7
:10073000889fbe008a9fbe008c1f7800d5000700ee
:10074000dc0033006450e1004f0032006420e1001f
:100750005200320003826c0007003b000905d00004
:100760000306d000820f54000c065d000200390021
:100770000200320089017800030678008582550066
:1007800004003d000003fd008103fd008502ea0036
:100790008b854200840f720002003b006000100055
:1007a000e08018006011b8000005eb007a28e10035
:1007b0000a00390006007800c75ddd00f707b200c7
:1007c000878075002d003700828171000a01780052
:1007d000610560008180d1000080d3008502e900be
:1007e000f9ff3b00060440008784480002003b00fc
:1007f00060041400e0841c000988a3000700320094
:100800008a81710082817100610164008904d100d4
:100810000884d3008b05e800170037000978a3008f
:1008200013003a000b00e000130034008b05e900d0
:100830000804440089844c000a4474000978a30029
:100840000d003a000b00e000070034008b05e900c2
:100850000804440089844c0001003a000b00200089
:100860000978a300f7ff32000001eb000200370017
:10087000828171000a017800600007000cf0a70077
:1008800001f0a000940037006420e10002003a006b
:10089000838f6c00940033000801be000200be008c
:1008a0008d003700889fbe008a9fbe008c1f780095
:1008b000780007007f00330003866c006450e1007d
:1008c0002e0032006420e100330032006150e1006c
:1008d0002f0032006120e100310032008585550093
:1008e000eb07b000090020000804200005003700d5
:1008f0000804440089844c000a00310006034300c8
:1009000087834b000001530081815b00f8ff3300b7
:100910000203be000800a0000804440089844c00c3
:10092000f6ff3900c639dd00830173000100320093
:10093000130020008904d1000884d3000998a30083
:10094000050032000800a7000300a0008904d100c0
:100950000884d3008b05e8008904d1000884d30003
:100960000001eb000281d2002400070001f0a10089
:100970000cf0a70001f0a000570037006420e10050
:10098000590032000801be000200be00f7ff370028
:100990006120e100540032006000b800f3ff37002e
:1009a0000000200001f82700f0ff3700839f680057
:1009b0000100e00002003d0060001000e08018002f
:1009c0000300e00002003d0060011100e081190019
:1009d000570007004f00e00002003b0060001000dd
:1009e000e0801800000006004f89de0082017800d8
:1009f000620037006011b8007000370081002000ed
:100a0000618055000b003d000b00200061fe2f00af
:100a10000100e1001d003400828171006101640069
:100a20008904d1000884d3000000e800faff3a00ee
:100a3000710020006100640003007000020060008b
:100a40000900320061044400e0844c000988a500dc
:100a5000050032008b05e8006808e10002003a005a
:100a60008904d1000884d300f20f20000258e1006d
:100a700005003d00c75ddd00f907b2008980750003
:100a800008007800000006000bf827008b007800b3
:100a9000000005000004be00770007000003be0050
:100aa0000405be000200be0073000700844f7500fd
:100ab000000006000200be006450e10005003600a0
:100ac0006420e100020036000968a30001003a003a
:100ad0000800be000160a0004f0678004f05be0070
:100ae0004f04be0000000600f0ff2f00f1ff2700ba
:100af000f9ff3700811f78000100e00002003d008f
:100b000060001000e08018000300e00002003d00db
:100b100060011100e0811900150007004f00e0009e
:100b200002003b0060001000e0801800000006009a
:100b30006022b800060220000000d0008180d200b0
:100b40000482d2008582d2000000a000020252007e
:100b500083825a00030031000202420083824a006d
:100b60000000a1000603e900f3ff3a0000000600c0
:100b7000efff07000400be0000000600881f780099
:100b8000030478000300e00007003d00600010004f
:100b9000e080180060011900e081190002003b00ac
:100ba00001f02d00030037000400070008f0a70043
:100bb00001f0a0004f04780000000600889fbe00ee
:100bc0008a9fbe00008270000402710004827100de
:100bd000260032000004be000200be006011b80012
:100be0006b092000950220000182cf000a00390025
:100bf0000541b1000082cf00070039000541b10076
:100c00000982cf00040039000541b1000882cf00fd
:100c1000010039000541b1000542520012003200c6
:100c20000a003b0082817100610164008100d100f3
:100c30000080d3008984d3000884d3008b05e800aa
:100c40000442e800f7ff3a000700370008044400b8
:100c500089844c0000004800818048008b05e90031
:100c60000442e900f9ff3a0064ff07004f05be00a7
:100c70004f04be0000000600c70ade00f107b20004
:100c8000f50fb20008003200e1cf4200020032004e
:100c90000170a00024000500810f700001003200e7
:100ca0000408050044000500810f700002003a00ae
:100cb000140005008502e9000000400081c04800e2
:100cc000fcff3b000170a000240005000c00fa00ae
:100cd000889fbe0000047800f0ff2700d0bf9f006f
:100ce0008004eb0099bf9f0088bf9f00a8bf9f00b2
:100cf000200c2000b0bf9f0078815700cfb0970034
:100d000070805700cf0007000fb89700094878009f
:100d10008fb89700088050004f04be000080fa0092
:100d2000000006000800fa00889fbe008a9fbe00ef
:100d30000084fb00d1c6b300814f50003400360060
:100d40004b062000110009000b84d80081057800b3
:100d5000720040004300dd00e947210000804400ac
:100d60006022b8000600200007fe23005001be00ec
:100d70004000be00d80707000002be000203be000c
:100d800084bf9f0095bf9f00a6bf9f00b7bf9f0075
:100d9000aa002000110009008a85d800800578008b
:100da000e9854500c35ddd008b8544003b02be0044
:100db0002b03be000fb897009fb897002fb997007c
:100dc000bfb99700c40707000002be000203be00bf
:100dd00084bf9f0095bf9f00a6bf9f00b7bf9f0025
:100de000110009000a84d800010478004344dd00a2
:100df000888444003902be002903be000fb8970062
:100e00009fb897002fb99700bfb997001d00370012
:100e1000ea4f500013003600aa002000110009001c
:100e20000a84d80001057800690440004344dd00cd
:100e3000e9472100088444006022b8000600200031
:100e400007fe23003800be002801be00a2070700ed
:100e50004355dd008a8444003902be002903be00e8
:100e6000080037004344dd00e0472100080440004b
:100e70006022b8000600200007fe23003800be00f4
:100e80002801be00940707004f05be004f04be00b6
:100e90000080fa00000006000800fa00889fbe00eb
:100ea0008a9fbe00d1c6b3000004e00023003d00cd
:100eb0000040ea000004fb00814f50000a003400ab
:100ec00042062000110009000204d800a9002000f9
:100ed000110009008900d800e9004000c308dd00c6
:100ee000ea47210021003700ea4f5000100034008b
:100ef000a2002000110009000204d80001017800be
:100f0000690040004300dd00e1472100008040000f
:100f10004311dd00828040003102be002103be008b
:100f20005001be004000be006b07070038003700cc
:100f30004344dd00e0472100320037000004fb009d
:100f4000814f5000230034004206200011000900a8
:100f50000204d800a9002000110009008900d8006f
:100f6000e9004000c308dd00ea3c210081004500a3
:100f70003102be002103be008b0920008a85450096
:100f80003b00be002b01be00530707000002be005d
:100f90000203be0084bf9f0095bf9f00a6bf9f00b5
:100fa000b7bf9f00110009000904d80001047800b0
:100fb0004344dd00080545003a02be002a03be0096
:100fc0000fb897009fb897002fb99700bfb9970047
:100fd000d5ff3700ea4f500008003400a20020007f
:100fe000110009000204d8000101780069004000e6
:100ff0004300dd00e13c2100c4ff37004344dd0035
:10100000e03c2100080440003800be002801be007a
:101010004f05be004f04be000080fa00000006002d
:10102000d0019000028151004240a9000300340029
:1010300010017800014978000208e80001007800fa
:10104000000006006f02b000889fbe008a9fbe00ad
:101050008c9fbe008e1f780000067800b1af9f0005
:1010600092b79f006000b8006011b800d0af9f0039
:10107000e1af9f00f2af9f0083b79f008006eb00b7
:10108000c3043700bfa897008100e800b1af9f00fc
:1010900051c2b300814f500003003a00bfa897002f
:1010a0000007eb0011003700bc0090000000fb00bf
:1010b0000168a300070032000d017800800078006d
:1010c0000c007800d6ff07000000e00005003a00a1
:1010d000af0437008c007800b9040700e10f40002e
:1010e000ab0432008d06e800a90437000101780046
:1010f00031407800d3c2b300834f50000c0032005f
:1011000007003c00edc15100834f50000a0032003f
:10111000ebc14100834f50000d003a00080037003a
:1011200003c3b300834f500009003a0006003700a4
:101130000e30a000edff37000e00a000ebff3700df
:101140000e10a000e9ff37000e20a000e7ff3700d7
:101150000e18a300010032000e00a1000e38a300fb
:10116000010032000e20a1008000fb000103b1004d
:10117000e98f50000c003e00020078008005eb0073
:10118000ea59b900b005fb000b03b10082854500a8
:10119000000178009000fb000103b100e98f5000ce
:1011a000f7ff3600080037008005eb00a1c2b3004e
:1011b000814f500004003a009fb19700c3057800aa
:1011c00093b79f000201e800e0c2b300924f100005
:1011d00016003a000ee0a00064405000d24f10000c
:1011e00003003200020078008001eb0008003700a5
:1011f0009fb297004503780095b79f00e6b79f0020
:101200000201e8000c003700ea19b90082814000b1
:1012100000017800b000fb000103b100e98f50002d
:10122000f9ff3600e3b79f00030037000ec0a000af
:101230008003eb00e7b79f0082017800334078001d
:1012400003017800c1c6b300814f50002b0032006b
:10125000b3af9f0014003c00e8c05000814f500025
:101260002400320009003c00ecc05000814f5000c7
:101270002a003200ebc04000814f50008c00320049
:101280000004e00047043200a200370061c6b3004a
:10129000814f50001b003200e3c04000814f5000de
:1012a0009c003a001300370031c7b300814f500053
:1012b0001e00320007003c00e4c05000814f500087
:1012c000130032008140e800814f500091003a0045
:1012d0001200370051c7b300814f50009200320016
:1012e000e3c04000814f50008a003a00e0cf9f00e9
:1012f0000c003700e0cf9f008d0037000e40a000ab
:10130000cdff3700e0cf9f000ea0a000880037007f
:10131000e0cf9f000e60a00085003700e0cf9f0067
:101320000e50a0000e70a00081003700e0cf9f009b
:101330009fb097004100780091b79f0000047800ab
:101340000000e00001003a00e86521008800780014
:101350000000eb00010037000000e80000814000c1
:101360001204e000fcff3a00800478006fb197009f
:101370000200e00003003200890f5100010031003b
:10138000820478000005eb00898f550001003600cb
:1013900009855500680767002a003a0011003700e8
:1013a0003c0090000068a300070032000d017800a7
:1013b000010220000c00780019ff07000000e00087
:1013c00006003a00060037008c007800000220007a
:1013d000fb030700e10f4000010032008d06e8002a
:1013e0000a05e9000a00e000edff3a000085eb0085
:1013f000140037003c0090000068a3000900320090
:1014000008007800b000fb00000478000d017800af
:101410000c00780002ff07000000e00008003a001e
:1014200008003700880078003100fb0001047800d4
:101430008c007800e2030700e10f40000100320059
:101440008d06e800090078008004e9000000e00053
:10145000e8ff3a000e00e000cd0332001100370033
:101460003c0090000068a300070032000d017800e6
:10147000010220000c007800e9fe07000000e000f7
:1014800006003a00060037008c00780000022000b9
:10149000cb030700e10f4000010032008d06e80099
:1014a0000a05e9000a00e000edff3a00b803370042
:1014b0009fb197004302780093b79f00cfa2de0050
:1014c000482bdd004820de0000007300c828de0045
:1014d000e0cf9f000e48a300080032000004e000a7
:1014e00006003200e14f400004003200f0cf9f00c0
:1014f00084d79f002900200002003700f4cf9f000e
:1015000019002000e7fc2f008f8343000704e80048
:1015100096ff3700e0cf9f00e8fc2f000f04440047
:101520001900200091ff3700e0cf9f000e0cb300a0
:101530000170200081006700700067000100e0007a
:10154000180232000ec8a300020032006100200021
:10155000e1b79f000000e000050032001fb09700d7
:101560004003be004002be0090b79f000600370057
:101570001fb197004200be0092b79f0067050700a9
:101580000002be000203be00a4b79f00b5b79f00d3
:10159000c6b79f00d7b79f006022b8006033b8007d
:1015a0002fb09700bfb097004fb19700dfb1970001
:1015b000ac0407000000e0000a003d002fb09700d7
:1015c000bfb097004fb19700dfb1970003f0a200c2
:1015d000a0b79f00b1b79f00c2b79f00d3b79f00cd
:1015e0003e00b3000000eb0090af9f006022b80007
:1015f0006033b8002fb09700bfb097004fb197008d
:10160000dfb19700fb0407000000e0003400320067
:1016100024fd2f000f0242002fb09700bfb09700ab
:101620004fb19700dfb197008e0507001fa8970004
:101630000000e900e300b900a20020001100090049
:101640000200d80090af9f000000e00002003d00c3
:101650000000e90090af9f001fac97000840ea002f
:101660000dfe07002fb29700bfb297004fb397004f
:10167000dfb39700980507000002be000203be001a
:10168000d4af9f00e5af9f00f6af9f0087b79f00e4
:101690006022b8000600200007ff23007104070045
:1016a0000000e00002003d000804e9000b003700e4
:1016b0006022b80006002000470224005fa89700bf
:1016c000efa897007fa997008fb197006a040700e1
:1016d0000000e000020035000804e80098af9f0019
:1016e000efb29700ec8f52000f003c0005407800ed
:1016f0008cfd07000002be000203be002fb0970061
:10170000bfb097004fb19700dfb19700d803070033
:101710000002be000203be00a4b79f00b5b79f0041
:10172000c6b79f00d7b79f001fac9700e90f5400c2
:1017300015003c006022b8006033b8002fb097005d
:10174000bfb097004fb19700dfb19700a904070021
:101750000000e000310032002fb09700bfb09700ca
:101760004fb19700dfb197000b050700e00f500065
:10177000e08f5800e00f5900e08f590027003a0031
:10178000e10f5400250034000400200005002e0065
:10179000b6e02200170124005fa89700efa8970089
:1017a0007fa997008fb197002e0407000000e0008a
:1017b00002003d0069045400010037006804540031
:1017c00098af9f002fd09700b3fd07000002be0026
:1017d0000203be00d4af9f00e5af9f00f6af9f00ad
:1017e00087b79f002fb09700bfb097004fb1970009
:1017f000dfb1970025040700e70407000004be00de
:101800006000b8006011b800a0b79f00b1b79f009a
:10181000c2b79f00d3b79f00160037002fb09700c4
:10182000bfb097004fb19700dfb19700da0407000f
:101830000004be00090507000002be000203be004e
:101840002fb09700bfb097004fb19700dfb197005e
:10185000960507000002be000203be00a4b79f0069
:10186000b5b79f00c6b79f00d7b79f000000eb0039
:1018700090af9f006166210010c0b30005003700e3
:10188000e4804000b10f5400a18f5c0003003900d8
:101890000040e800ea4f5000f9ff3a00e0cf9f0017
:1018a0009fa8970081805500efb297008580500077
:1018b0000005fb000a8550000500e0000100320031
:1018c0000a05e90063006700010032000a05e9002b
:1018d0000e28a30039003200610167000e18a30032
:1018e0000f0032003c0090000068a30006003200a8
:1018f000b10220000200e000010032008180e80017
:101900000d0178000d003700b00220000200e00059
:10191000010032000080e8008c0078000e003700e3
:101920000200e000220032003c0090000068a300aa
:10193000070032000d017800010220000c00780041
:10194000b7fd07000000e00006003a00180037006d
:101950008c0078000002200099020700e10f40008f
:10196000130032008d06e800110037003c009000a3
:101970000068a300070032000d0178000103200079
:101980000c007800a6fd07000000e00006003a0009
:10199000060037008c007800000320008802070052
:1019a000e10f4000010032008d06e8000a05e90061
:1019b0000a00e000edff3c00570037000e38a3009e
:1019c00014003a00110037003c0090000068a300aa
:1019d000070032000d017800010220000c007800a1
:1019e0008ffd07000000e00006003a000600370007
:1019f0008c0078000002200071020700e10f400017
:101a0000010032008d06e8000a05e9000a00e00046
:101a1000edff3c00610167000e18a3000e003200cc
:101a20003c0090000068a30005003200b1022000d5
:101a30000200e000220032008180e8002000370030
:101a4000b00220000200e000010032000080e80047
:101a50008c0078002c0037000200e0002e003200dd
:101a60003c0090000068a300030032000d017800e4
:101a700001022000130037008c00780000022000d3
:101a8000210037003c019000606621008100fb00ce
:101a90000268a30010003200c208dd00810040008f
:101aa0001101be000800be0021fc0700a2002000ba
:101ab000030020002efc070001032000808040006e
:101ac0000d0178000c00780055fd07000000e000d3
:101ad00010003a0010003700c208dd00810040000d
:101ae0001101be000800be0011fc0700a20020008a
:101af000030020001efc070002032000000141003b
:101b00008c007800020078002d020700e10f4000f1
:101b1000010032008d06e8006fc897008040e900a0
:101b2000e1cf9f000004e000d6ff3a001300370029
:101b30003c0090000068a300070032000d0178000f
:101b4000010320000c00780035fd07000000e000d4
:101b500006003a00060037008c00780000032000e1
:101b600017020700e10f4000010032008d06e80077
:101b70001fa897000000e90090af9f001fa89700e2
:101b80000000e000eaff3c006fb39700e80f53004d
:101b90000300340080c0b300e0cf9f000200370094
:101ba000cfeb9700e7cf9f006fc897008005fb0041
:101bb000efb097008b8550000004e0001000320069
:101bc0003c0090000068a300070032000d0178007f
:101bd000e10220000c00780011fd07000000e00089
:101be00006003a00060037008c007800e002200072
:101bf000f3010700e10f4000010032008d06e8000c
:101c00006fc89700a4fc07000002be000203be00dc
:101c10002fb09700bfb097004fb19700dfb197008a
:101c20002d040700dc0307002d0037003c01900065
:101c3000616621000000fb000268a3001000320072
:101c40004200dd00808040001101be000800be009f
:101c5000b7fb0700a200200003002000c4fb070020
:101c600001032000808040000d0178000c00780006
:101c7000ebfc07000000e00010003a001000370005
:101c80004200dd00808040001101be000800be005f
:101c9000a7fb0700a200200003002000b4fb070000
:101ca00002032000000141008c007800020078004f
:101cb000c3010700e10f4000010032008d06e8007b
:101cc0006fc997000200fb004200dd006166210041
:101cd000008040001001be000800be00a4fb070009
:101ce0000004be00efc897000140e900e0cf9f006c
:101cf0000104e000cdff3a00110037003c009000e5
:101d00000068a300070032000d01780001032000e5
:101d10000c007800c2fc07000000e00006003a005a
:101d2000060037008c00780000032000a4010700a3
:101d3000e10f4000010032008d06e8008b05e9004c
:101d40000b00e000edff3a000e38a30090013200d6
:101d50000a00e0008e0134003c0090000068a300ff
:101d6000070032000d017800010220000c0078000d
:101d7000abfc07000000e00006003a000600370058
:101d80008c007800000220008d010700e10f400068
:101d9000010032008d06e8000a05e900eeff3a0076
:101da0007b0137008e007800010cb20011003a0070
:101db0000000e000040032009fb197004304be0021
:101dc00093b79f00040037001fb2970044047800c7
:101dd00094b79f00cfc4de00e00f5400e08f5c009a
:101de0000e003d003e00b30060041400e0841c00bf
:101df0000a0037000000e000040032009fb29700a4
:101e00004504be0095b79f00040037001fb397003c
:101e10004604780096b79f008004eb00efb397006c
:101e20000700e00006003a000880740000f0a700f8
:101e30000000ea000000e9004f00de00e0b79f006c
:101e40000e007800000cb200c0af9f00000420001c
:101e5000cfa89700808f50002300320003003c0081
:101e60000100e000080032002d00370000082000cb
:101e70004fa99700800f51000d003200000c200088
:101e8000800f510026003a006166210010c0b300a7
:101e9000e4804000b10f5400a18f5c001f003900a6
:101ea0000040e800ea4f5000f9ff3a001b003700fd
:101eb00010c0b3000201200003002000820f540074
:101ec000838f5c0015003900441add00cc11de0060
:101ed000830172004411dd000040e800e84f50002b
:101ee000f6ff3a000d00370010c0b300820020005a
:101ef00003002000820f5400838f5c00070039002c
:101f0000c31add00cd11de00838172004311dd00b4
:101f10000040e800eb4f5000f6ff3a00e0cf9f0092
:101f20006fcb97000600fb00efb39700870f5000c0
:101f300002003d00e7cf9f0004003700efb097009c
:101f4000808f500001003d00e0b79f000b00e000d3
:101f50000300320063006700010032008b05e900d6
:101f60000ee8a300060032006fb19700828f550083
:101f70000200340082855500010037008005eb0027
:101f8000efc997000300fb000002eb00a4b79f001d
:101f9000808f55000200340000805500a0b79f00dc
:101fa0000e28a3003c003200610167000e18a30058
:101fb0000f0032003c0090000068a30006003200d1
:101fc000b10220000200e000010032008180e80040
:101fd0000d0178000d003700b00220000200e00083
:101fe000010032000080e8008c0078000e0037000d
:101ff0000200e000100032003c0090000068a300e6
:10200000070032000d017800010220000c0078006a
:1020100003fc07000000e00006003a00060037005d
:102020008c00780000022000e5000700e10f40006e
:10203000010032008d06e800afb297000500e00015
:1020400052003200050578003c0090000068a300b3
:10205000070032000d017800010320000c00780019
:10206000effb07000000e00006003a000600370022
:102070008c00780000032000d1000700e10f400031
:10208000010032008d06e8000a05e900eeff3a0083
:10209000aab79f003d0037002fb397000600e0006d
:1020a000160032000e38a30014003a00060578002e
:1020b0003c0090000068a300070032000d0178008a
:1020c000010220000c007800d5fb07000000e000b2
:1020d00006003a00060037008c007800000220005d
:1020e000b7000700e10f4000010032008d06e80054
:1020f0000a05e900eeff3a00aab79f0061016700f8
:102100000e18a3000f0032003c0090000068a300ee
:1021100006003200b10220000200e000010032009f
:102120008180e8000d0178000d003700b00220002a
:102130000200e000010032000080e8008c0078001e
:102140000e0037000200e000100032003c0090005a
:102150000068a300070032000d0178000102200092
:102160000c007800aefb07000000e00006003a001b
:10217000060037008c007800000220009000070065
:10218000e10f4000010032008d06e800efb3970038
:102190000702e900e320b900a0af9f004222dd0062
:1021a000606621000002420004057800cfad970070
:1021b0005c003700efb097008100e900e1b79f00b5
:1021c00000042000808f55003700320003003c00df
:1021d0000b00e000070032003d003700000820003f
:1021e000808f55001f003200000c2000808f5500aa
:1021f00037003a000e48a300100032001a02be0059
:102200000401be000800be00f4b79f0085bf9f0018
:1022100047fa0700e0cf9f000000fb00cf80de0000
:102220007fb297008fba97000401be002103070018
:102230000004540081845c00070037001a01780014
:10224000110009000284d800a2002000110009003a
:102250000280d800e1cf9f006fc997000243b00011
:102260000f003700d06421000e58a3000100320097
:10227000c063210061662100810055000801be0095
:102280008100e900030033008301d1000281d30003
:10229000fbff37006f01610002014000124178002e
:1022a000e2cf9f000a0037000800be002faa970067
:1022b0000402e900030033008100d1000080d30054
:1022c000fbff3700674060000043b000e0cf9f0095
:1022d000bc009000efca97000500fb000168a30056
:1022e000070032000d017800800078000c007800b3
:1022f0004bfb07000000e00005003a000500370036
:102300008c0078002e000700e10f40000100320031
:102310008d06e8002fab970063035300a6af9f0024
:1023200064055500efb397000700e000a1ff3a00f5
:102330000e38a300160032002fb097000000e00016
:1023400013003400000578003c0090000068a300f2
:10235000070032000d017800010220000c00780017
:102360002ffb07000000e00006003a0006003700df
:102370008c0078000002200011000700e10f4000ef
:10238000010032008d06e8000a05e900eeff3a0080
:10239000bfa8970011407800e0cf9f000004e00044
:1023a00038fb3a000d0078004f0778004f06be005a
:1023b0004f05be004f04be006f02b10000000600d2
:1023c000889fbe0001047800b80090008084eb0074
:1023d0000118a3003a003200180190000198a300f0
:1023e00002003a000200e00035003a000190a0002f
:1023f0003104980080047800f90fb2000200e00078
:1024000002003a0028009000000c7800ea8f540087
:1024100005003a000178a30003003a008800780024
:10242000d0002000e6ff070018009000d8009000c0
:10243000810f50000b0032000000e80010049800eb
:102440001800780009487800000ce80011c0b300bb
:10245000406e210001487800ea8f540018003a00cd
:102460000500370088007800094078003f00070029
:102470008004780012003700380090000088a30024
:102480000f00320018019000a80090004800900052
:102490005cf8070098009000810f500004003200a3
:1024a000380090000003b300300498008084eb00f3
:1024b0000000eb001004980028009000000c780049
:1024c000090078004f04be0000000600800178007b
:1024d00002003700b15978000201e9000200e00073
:1024e000fcff3a000000060080017800020037007f
:1024f000815978000201e9000200e000fcff3a0087
:1025000000000600000178008201780003017800d5
:102510003204e000fcff3a00314178008259780033
:102520000204e000fcff3a00000006000001780011
:1025300002007800b041780081cf510003003200e2
:102540000304e000f9ff3a000001eb00020078000c
:1025500000000600800078003104e000feff3a0031
:102560000080ea0000804000000006000200fa003f
:10257000889fbe00a0ff9f000104780038009000f3
:102580000068a30033003a00e200600005003a0052
:102590000003b30030049800110498000080eb00a1
:1025a0002e003700d80490000900e00006003a0031
:1025b00012002000e68057004800900011f8070044
:1025c0001904980023003700a80090000100e000e3
:1025d00008003a00716e210021049800010c780077
:1025e0002100200051049800110498000030a00040
:1025f0003004980018019000a80090004800900056
:1026000000f80700280090008080eb00110498007b
:10261000aff8970001487800000ce8002ff8970009
:10262000ea4f50000b003a00380090000088a300e9
:102630000800320018019000a800900048009000a7
:10264000f0f707000000eb0010049800a8009000cd
:10265000010c7800aff897000100fb004f04be00aa
:102660000080fa000000060000c0da00000006004a
:102670002800fa00889fbe008a9fbe008c9fbe0083
:1026800007067800878669000c003b000304780089
:102690008704780008f0a10009f0a100840f500021
:1026a000858f5800860f5900890f5c0003003300a6
:1026b0000cf0a20001003a000cf0a100fe0007009f
:1026c0006400e1005f003200780147006408e10027
:1026d000610032006c014700748557003200be0073
:1026e0001201be003a04be001a05be001e0390008f
:1026f000be0a90008503530006003d000004fd0063
:102700008104fd000205fd008305fd008703ea004a
:10271000050378000df8a3000400320060041400e3
:10272000e0841c0060051d00e0851d006022b800eb
:102730007d0320000d38e1008006eb000b0039001e
:102740004433dd00f300b200830173003900370029
:10275000848272000d027800e10664008b85d1004e
:102760000a85d3008984d3000884d3008703e90055
:10277000f7ff3b0008004000898048000a0149003b
:102780008b81490004003b0060001000e0801800cd
:1027900060011900e08119000358a300090032000c
:1027a0008d82720084827200610260008301d10018
:1027b0000281d3008180d3000080d3000603e800ab
:1027c0001b0037000348a30017003a000600e00092
:1027d000170034000603e9000d00a30000004800c4
:1027e0008180480002014900838149000348a30019
:1027f0000f003a000600e000090034000603e9007b
:1028000000004000818048000201490083814900a6
:1028100001003a000003eb000348a300f5ff32007b
:102820006022b80002003700848272006182660074
:102830007500070003f0a1000cf0a70003f0a00052
:10284000b1003700640147006408e10002003a006b
:102850000df8a300a9003a003200be001201be002c
:10286000a90037008f1fd100980107008f87e9006a
:102870000000e00000000600809feb0093010700cd
:102880008f87e9000000e000000006002800fa0041
:10289000889fbe008a9fbe008c9fbe0003866b008f
:1028a000850007006400e100440032006408e10094
:1028b0004a0032006100e100460032006108e10098
:1028c00049003200ec0647006000b8003d02be003f
:1028d0003d03be00f48657006011b8003d04be0001
:1028e0003d05be007d0320000b0037000000a00066
:1028f0008d06e900130032000402420085824a007e
:1029000006034b0087834b00000040008180480095
:1029100002014900838149000802520089825a005d
:102920000a035b008b835b00f0ff3b000802420060
:1029300089824a000a034b008b834b008d06e90015
:10294000edff3a008482720086827200f707b200bf
:102950008782720001003200150020001e049000e2
:102960003e0b900006035400e63fb0000368a3004e
:10297000070032000000a7000500a0008301d1007d
:102980000281d3008180d3000080d3000603e800d9
:102990008301d1000281d3008180d3000080d30065
:1029a0000002eb000482d2001700070003f0a10030
:1029b0000cf0a70003f0a0005300370064024700aa
:1029c0006408e1004d0032003400be003401be0056
:1029d000f6ff37006108e100480032006011b800de
:1029e0006000b800f1ff370003ff2700020020005d
:1029f000fbff3700801feb00340107008f87e900e1
:102a00000000e00000000600180020005700200031
:102a1000080453000d003d000600200097fc2f0025
:102a20000740e1001e0034008482720061026000f1
:102a30008301d1000281d3008180d3000080d300c4
:102a40000804e800f8ff3a00470020006104600035
:102a500005047400040464000d00320061004000ad
:102a6000e080480060014900e081490003b8a5000a
:102a7000070032000603e8006538e10004003a0070
:102a80008301d1000281d3008180d3000080d30074
:102a9000f87f20000830e1000300350008037800cb
:102aa0006000b8006011b8004433dd00f300b200ec
:102ab0008301730000000600680447000294be0012
:102ac0000094be00fc0447008694be008494be00bf
:102ad000090078004601070008007800440107005b
:102ae00099007800814f70000b003b000800be0089
:102af0001f0107004f00b10003003700f3ff27005c
:102b0000f2ff2f006110b9004f06be004f05be0056
:102b10004f04be000080fa00000006008103780028
:102b200055f807000001be006000b8000478a3005b
:102b300013003a006220e10015003e000d0039004c
:102b40008301d1000281d3008180d3008301d100b1
:102b50000281d3008180d3008301d1000281d300a0
:102b60008180d3000538b000c42add00f300b20034
:102b70008381720007f0a70003f0a00000000600a8
:102b8000f3ff2700f2ff2f006110b900fbff3700b1
:102b900003ff2700f7ff37001400fa00889fbe00ec
:102ba0008a9fbe008c9fbe000004be000205be00ce
:102bb000680047000a90be000890be000c010700a4
:102bc0000070a7000bf0a1000bf8a30020003a0052
:102bd0009e0990000e099000fe0090006e0090008b
:102be0009e0290003443200084825200c6ff3200cf
:102bf0000a003c00b4fc2f000428e100140034005b
:102c00008301d1000281d3008180d3000080d300f2
:102c10008502e800faff3a00bbff3700b40020004d
:102c20000428e10007003c000000400081804800cb
:102c300002014900838149008502e900faff3a0058
:102c4000b1ff370003002800020020000100370018
:102c50006011b8006000b800abff37006011b80029
:102c60000a0137001400fa00889fbe008a9fbe0048
:102c70008c9fbe00040678000004be000205be0062
:102c8000680047000a90be000890be00d800070008
:102c90006200e1000800be000a01be00040020003e
:102ca0000b003a001e029000e43fb1006e0090005d
:102cb000fe0090000e0990009e099000f300b20003
:102cc00005fe2300858171000bf0a70003f0a00032
:102cd000040e78008cff37002800fa00889fbe00a1
:102ce0008a9fbe008c9fbe0003866b0072ff0700a8
:102cf0000028a30064003a000128a30067003a00fe
:102d00000008a30062003a000108a30065003a0031
:102d10001e009000be08900081064000ed3fb1000b
:102d2000f4805700ee019000111ab8008e0990004f
:102d3000311bb8009e099000311cb800511db8002d
:102d4000f485570046000700fe0190003a00070096
:102d50008b85e8003e0007008e09900040000700c8
:102d6000ee019000340007008b85e8003800070072
:102d70008e099000400007009e0990001b18b800c3
:102d8000890440000a854800fe01900034000700d5
:102d90008b85e80038000700ee0190003000070046
:102da0008e0990001b18b800890440000a8548006d
:102db0000a98a30008003a000402420085824a00f3
:102dc00006034b0087834b0008044c0089844c00a9
:102dd0000a054d008d06e9008482720085027300a9
:102de0004c3add008502720001003200150020001f
:102df000443ade001400b2004538de00cb45dd0069
:102e00000b007000c540de00cb4ddd008b807000f4
:102e10004549de00cb55dd000b017100c551de00d8
:102e20000d037800f8fe070003f0a1000cf0a700e6
:102e300003f0a00034ff37001b18b80085024000e3
:102e400006834800e0834b0060044c000700370015
:102e50001b18b8000603400087834800faff3700bc
:102e60001b18b8008703400008844800e0844c0029
:102e700060054d00000006001b18b8000804400063
:102e800089844800faff37000108a3001bff3a00bd
:102e90005800be005801be00e3ff37000008a30041
:102ea00016ff3a0009047800f9ff370007f0a20086
:102eb000effd3700020ab900001bb9000200b8009c
:102ec000810042008100430000000600889fbe0090
:102ed0008a9fbe008c9fbe000404be000605be0093
:102ee000809fbe00829fbe002f000700040678006e
:102ef0000800be000a01be002b000700840678000f
:102f00004f03be004f02be008d4f76007fb097008a
:102f100013003300f0ff2f008b8f6b0006003b0087
:102f20000d0666000c00a7000a00370007f0a60097
:102f3000100020000a003700880f5200898f5a00c5
:102f40008a0f5b008b8f5b000300390010002000ac
:102f500001003e000000200007f0a7000000ea008a
:102f60004f06be004f05be004f04be000000060025
:102f7000e48240001078a3000700320064024000a1
:102f80001178a3003400be001401be00040032001a
:102f90000330a700000006003500be001501be008a
:102fa0000330a0000000060005ff27000582610035
:102fb000070032000428e10001003200240005006f
:102fc0000600070001003a0044000500040805005f
:102fd00002000700f9ff3a00140005006f8261004b
:102fe00081027000850271008502720000000600f7
:102ff000800078005002be005003be004439de005d
:10300000f700b200f37f20000301610009003200e5
:103010000218e10016003a00850172008301730076
:10302000838173000008200015003a004000200052
:1030300013003700850172008301730083817300e0
:1030400005003a0004a8be0006a8be00100020003b
:103050000b0037000201e9000402420085824a00a9
:1030600006034b0087834b000748a300f9ff32009b
:103070000740a00004a8be0006a8be002000200053
:10308000800098009200980000000600889fbe0013
:10309000008270000402710004827100240032007a
:1030a00036432000c50020008383cf000a0039008a
:1030b0000541b1008283cf00070039000541b1000e
:1030c0008183cf00040039000541b1008083cf0027
:1030d000010039000541b10085c353006022b800ea
:1030e000120032000a003b0084827200610260001c
:1030f0008301d1000281d3008180d3000080d300fe
:103100000603e8008743e800f7ff3a0007003700ae
:10311000000040008180480002014900838149008d
:103120000603e9008743e900f9ff3a0036fe07008d
:083130004f04be000000060080
:020000040000fa
:10313800496e0000697400002e200000436f0000f3
:103148006d7000006c650000746500000d0a0000d9
:10315800005200004c3a00002025000031300000e9
:103168006c64000020250000313000006c64000011
:1031780020530000463a0000202500003664000075
:10318800202500003664000020530000413a00006a
:103198002025000036640000202500003664000069
:1031a8000d0a00000000000024250000662c000025
:1031b800256600002c250000662c0000256600000e
:1031c800002a0000255800000d0a00000000000039
:020000040000fa
:1031d8001a00fa00881f78006000b800308d880057
:1031e800418d88006000b800508d8800618d88008e
:1031f8006000b800708d8800818d88006000b8007c
:10320800908d8800a18d88006000b800b08d88007e
:10321800c18d88006000b800d08d8800e18d8800dd
:10322800e015200001002000f08d8800018e880044
:103238000202200061052100a004210052070700b6
:10324800c00c21000208200080007800000c21003a
:103258004d07070023b02100020c2100a104210022
:1032680000192100cb020700308d8000418d8000bd
:10327800108e8800218e8800508d8000618d80001e
:10328800308e8800418e88008a0b07000000eb0012
:10329800920407008f0b0700f00f20008f0407002f
:1032a800c08929000af50700601a210018050700df
:1032b8000500370000000000030037000000000090
:1032c800010037000000000050808000700060009e
:1032d8000000e0007800320070808000818080006b
:1032e80061004000e080480070808800818088008c
:1032f800dc0007007080800081808000421f200071
:1033080003002000f9f50700e00f5000e08f580097
:1033180066003a003081800000407800614060001b
:1033280061406000614060000080fb006100600057
:103338004300dd00217080000130a1000100700011
:103348002070880030818000620060000080d10019
:1033580000407800614060000080fb006100600070
:103368004800dd00217080000180a100010070008c
:103378002070880030818000640060004280de0098
:1033880000407800614060000080fb006100600040
:103398004400dd00c17080000140a1000100700000
:1033a800c0708800308180000000400030818800b3
:1033b80030818000e80f5000020032003081800028
:1033c80001003700100020003081880070808000e4
:1033d80081808000027d200003002000c3f50700e3
:1033e800e00f5000e08f580014003a004081800040
:1033f80000f0a7000000ea000000e9004f00de002e
:103408004081880040818000e10f500005003a00ab
:1034180080c12f00b080880080c12f00c080880044
:1034280004003700803e2000b0808800803e2000e5
:10343800c080880040012100820407000000eb00e2
:10344800000f7800588c8000478c8000368c8000f4
:10345800258c8000028c8000138c8000e08b80001b
:10346800f18b8000a41d2100881f7800871f780039
:10347800861f7800851f7800829fbe00809fbe004f
:10348800d08a2900801f7800040078000df6070014
:10349800f2875700004078001af0b7001ad0bf0032
:1034a8000080fb00a11d21003d0a0700508080001c
:1034b8000040a100508088005080800061006000ba
:1034c800004078000004e0000300320050808000d3
:1034d8000000a100508088005080800062006000d9
:1034e8000000e00003003200508080000010a100be
:1034f8005080880050808000640060000000e00078
:1035080003003200508080000020a1005080880015
:1035180050808000680060000000e0000300320076
:10352800508080000030a1005080880051808000c9
:1035380000022000008060000000e000030032006c
:10354800508080000050a100508088005180800089
:1035580000042000008060000000e000030032004a
:10356800508080000060a10050808800c0808000ea
:103578000000e0000e003a00808280000000e000b9
:103588004cff32006e00470080007800a004210044
:10359800b0060700ee48900040c2b30080cf50004c
:1035a80046ff3a0010002000c080880046ff370020
:1035b80080828000e80f500042ff36006f0047000d
:1035c8009200200080007800a0042100de06070099
:1035d800a0c0b300005f98006f004700800078002b
:1035e800a0002000ee090700e1012000a00421004e
:1035f8000e0807001830ef0033ff37000000fa000c
:10360800d08380000000e00003003200508080007a
:103618000010a00050808800308680000000e00084
:1036280003003200508080000020a00050808800f5
:10363800208d80000000e000050032000000eb0053
:10364800208d8800508080000050a00050808800a5
:10365800508080000040a000508088000080fa0060
:10366800000006000a00fa00881f78000000eb003e
:10367800200798000000eb00300798000000eb00de
:10368800000f780045003700100020001007980050
:103698003e0037001e0090000001e8001e00780080
:1036a800e300b900800078001e0090000080400010
:1036b800c200dd00c0142100008040001000be00e0
:1036c8009e017800e31ab900840178000281410064
:1036d800c211dd00c2142100028141000089be0030
:1036e8001e0090000001e8001e007800e300b90009
:1036f800800078001e009000008040006c004000b0
:1037080080004000c0142100008040009000780034
:103718001e007800e300b900020040006c00400081
:1037280000014000c0142100000041000108780099
:103738001e0090000001e8001e007800e300b900b8
:10374800800078001e009000008040007200400059
:1037580080004000c01421000080400090007800e4
:103768001e007800e300b90002004000720040002b
:1037780000014000c0142100000041000108780049
:103788001e0090000000e900100798001e0090003d
:103798000000e000bfff3d001e0fe8001e0078009b
:1037a800e50f5000b8ff3400f0fe2f004b03070070
:1037b80020002100700a0700f00f200047030700cf
:1037c800108080002180800060001000e0801800d8
:1037d800608a8800718a8800f0fd2f003f03070087
:1037e80020002100640a0700f00f20003b030700b7
:1037f8001080800021808000c08a8800d18a8800db
:10380800e0ff2f003503070000002100870a0700aa
:10381800f00f200031030700218b800020002000da
:1038280000047800110009008800d80080007800a2
:103838000080800000805000208b8800d0ff2f007f
:103848002603070000002100780a0700f00f200077
:1038580022030700518b800020002000000178001f
:10386800110009008200d8008000780000808000e4
:1038780000804000508b8800b0ff2f00170307001e
:1038880000002100690a0700f00f20001303070059
:1038980000808000808b880070ff2f000f030700d6
:1038a80000002100610a0700f00f20000b03070049
:1038b800008080000000ea00b08b8800a00f200084
:1038c800400798000000eb00000f78009f003700c9
:1038d8009e0178006c804100c200dd00c014210008
:1038e800008040001000be004f09de008001eb00a0
:1038f80002004000838048008180d1000080d3000e
:103908000003be001e007800ec00b90080007800bb
:10391800c0142100008040001000be00e30ab90076
:10392800e001b90002024200320020000201b800a2
:1039380003024200840178001e007800ec00b90000
:10394800e4004000c0142100008040001000be00c8
:10395800c4ff2f00848ab9008082eb008584b900f7
:103968008802780005024200c5ff2f000500b80054
:10397800010242008400780002014000838148006f
:103988001e007800ec00b900e8004000c0142100d7
:10399800008040001000be00020140008381480002
:1039a8004e009000cf80de00809ab900828cb9006a
:1039b80088027800050242000010b80001024200a7
:1039c8008400780006004000878048009e01780047
:1039d8006c814100c211dd00c21421000281410046
:1039e8000089be001e0278007c0042008000400072
:1039f800c0142100008040009000780020002000c2
:103a080000047800110009008800d80080007800c0
:103a18001e007800e600b90078014000c0142100bb
:103a28000000410010007800e301b9001e00780092
:103a3800e600b900fa014000c014210000804100ee
:103a480090017800c0ff2f008098b9000001410064
:103a58001e007800e600b900fc014000c0142100f7
:103a68000080410010007800000141004e009000e5
:103a78008090b900808040001e0178007c004100e1
:103a880000014000c0142100000041000108780036
:103a98009e0178007e80410080004000c014210013
:103aa800008040009000780020002000000278008c
:103ab800110009008400d800800078001e007800fa
:103ac800e600b9004202200000014100c0142100b4
:103ad8000000410010007800e301b9001e007800e2
:103ae800e600b9006302200080814100c014210073
:103af8000080410090017800c0ff2f008098b90035
:103b0800000141001e007800e600b9008302200091
:103b180080814100c014210000804100100078001d
:103b2800000141004e0090008090b9008080400064
:103b38001e0478007e00440000014000c0142100eb
:103b480000004100010878001e0fe8001e00780000
:103b5800e10f50005eff34004f0478000080fa0047
:103b6800000006001000fa00700798000000eb0043
:103b7800000f78000000eb00000f780020003700ed
:103b88001e007800ec00b90080007800c014210005
:103b9800008040001001be0090c12f00f1ff2f00ef
:103ba800800f5100818f59000f003d001e007800e2
:103bb800e600b900f8004000c01421000080400071
:103bc800900078001e007800000040007e01900000
:103bd800000041001000780080805000400620005e
:103be8008088b9000100370040ed2f009e00780062
:103bf800818040008180e80000b778001e0fe8004f
:103c08001e007800e50f5000ddff34000e80e8004c
:103c18008c0207000080fa00000006000400fa0089
:103c2800881f780010079800308d8000418d800033
:103c3800108e8800218e8800508d8000618d800054
:103c4800308e8800418e8800708d8000818d8000c4
:103c5800508e8800618e8800908d8000a18d800034
:103c6800708e8800818e8800b08d8000c18d8000a4
:103c7800908e8800a18e8800d08d8000e18d800014
:103c8800b08e8800c18e8800f08d8000018e800083
:103c980000007800e08088000000eb00000f78004a
:103ca8000000eb00000f7800300037001e0078009d
:103cb800000040009e009000008440001e00780034
:103cc800ec00b90080007800c0142100008040009a
:103cd8001001be001e007800c200dd00201c21007b
:103ce800008040001000be0000025100818259008f
:103cf800e0808000cf80de000001be000400be002e
:103d080028f3070000007800000c78001e007800f7
:103d1800000040009e009000808040001e00780057
:103d2800000040001e0190000000410010007800d3
:103d3800f30f50000a0034001e0078000000400015
:103d48001e0190000000410010007800a20f200022
:103d5800820f500003003400a00f2000010037003c
:103d680040012000800878001e0fe8001e0078003f
:103d7800e50f5000cdff34004f0478000080fa00b2
:103d8800000006000000fa000268a9000080fa009e
:103d9800004006000800fa00000f7800110798009c
:103da8002207980033079800540007007d00070099
:103db8000f0007003400070023eba80000000000f4
:103dc8001159800000002800008060000000e00019
:103dd800fbff3a001e009000100807003e0090000c
:103de800a8010700430107000080fa000000060050
:103df8000000fa00803e2000206088006a2cef0056
:103e080050638000506288005062800050618800d2
:103e18006c2cef0060638000606288006062800044
:103e280060618800222cef0000402c00106388009d
:103e38001063800010628800602cef00006380002f
:103e48000062880030002000206388002063800022
:103e5800206288002062800020618800022cef0028
:103e68000000280000608800409621003062880029
:103e78004096210030638800409621003061880018
:103e88000080fa00000006000000fa003002a900d5
:103e98008111800090ff2f00008060008011880051
:103ea80030a2a9003062a90050022000c011880089
:103eb80033a2a90033e2a90091118000f0f32f008a
:103ec800008060009011880031e2a8003342a80009
:103ed800b133800000fc2f00008060003000b30088
:103ee800b033880070c2b300c6e6b70090c2b30012
:103ef800cde6b7000080fa00000006000000fa00d6
:103f0800a0042000303a8800213a800000fe2f00eb
:103f180000806000203a8800213a8000f0f32f00ea
:103f280000806000203a88001200200080072000ee
:103f3800a109200033742000804978008149780065
:103f480082497800103a8000000178000200a00041
:103f58006004200071052000237420008049780047
:103f6800814978008249780000000000113a8000f9
:103f7800000027008080600000002100808f500032
:103f8800faff3a0000000000113a80000002200009
:103f9800008060000000e000fbff32000080fa00b3
:103fa800000006000000fa000022ef000222ef00e5
:103fb800a42aef000e2eef00222eef00362eef007f
:103fc800006ea900010ea900148ea90028eea90010
:103fd800407180004700de00614060000080fb0007
:103fe8006100600000004000017080000110a10025
:103ff8000100700000708800007080000000d1008f
:10400800614060000080fb00610060004171800039
:104018000100a1000100700040718800407180001b
:1040280000407800614060000080fb006100600093
:104038004a00dd000170800001a0a10001007000ad
:1040480000708800007080004a00de006140600057
:104058000080fb0061006000017080000100a10089
:104068000100700000708800007080000040780037
:10407800614060000080fb00610060004200dd00dc
:10408800a17080000120a10001007000a0708800cc
:10409800a07080004200de00614060000080fb00ec
:1040a8004f00dd00a2708000f1ff27008100610051
:1040b80001007000a07088002eeea90070718000c9
:1040c8004700de00614060000080fb006100600086
:1040d80000004000317080000110a1000100700054
:1040e80030708800307080000000d10061406000ae
:1040f8000080fb0061006000717180000100a10078
:1041080001007000707188007071800000407800b4
:10411800614060000080fb00610060004a00dd0033
:104128003170800001a0a10001007000307088008b
:10413800307080004a00de00614060000080fb00b3
:1041480061006000317080000100a1000100700072
:104158003070880030708000004078006140600056
:104168000080fb00610060004200dd00d17080002b
:104178000120a10001007000d0708800d07080007c
:104188004200de00614060000080fb004f00dd005f
:10419800d2708000f1ff27008100610001007000eb
:1041a800d07088002ceea800607180004700de0007
:1041b800614060000080fb0061006000000040007a
:1041c800217080000110a10001007000207088009b
:1041d800207080000000d100614060000080fb007a
:1041e80061006000617180000100a10001007000a1
:1041f8006071880060718000004078006140600054
:104208000080fb00610060004a00dd002170800032
:1042180001a0a100010070002070880020708000bb
:104228004a00de00614060000080fb006100600021
:10423800217080000100a10001007000207088003a
:104248002070800000407800614060000080fb0022
:10425800610060004200dd00c17080000120a10003
:1042680001007000c0708800c07080004200de004d
:10427800614060000080fb004f00dd00c2708000dc
:10428800f1ff27008100610001007000c070880004
:1042980015cea80000eea800146ea800282ea800cd
:1042a8001fcea8000aeea8001e6ea800322ea80095
:1042b800004ea900044ea900e133800000fc2f0045
:1042c800008060000030a000e0338800b133800037
:1042d800f00f2c008080600000902000010070002a
:1042e800b033880080c3b300cce6b7000080fa0082
:1042f800000006000000fa0005e1a9000421a90059
:1043080004c1a900210880000003200001007000fa
:10431800200888000021ef007002200010088800a3
:1043280001428000f0ff28000080600000c0a0006b
:10433800004288000068a9002068a80005e1a800dc
:104348001821ef000109800000032000010070001f
:104358000009880000a62e00e00888000388a9004c
:104368002388a90021e1a80013e1a9009108800091
:104378000003200001007000900888000a21ef0067
:1043880000a62e00700888000108a9002108a900cd
:1043980013e1a8000080fa00000006000000fa00ff
:1043a80011198000f0ff21000080600010198800ba
:1043b80001198000f0cf2f000080600000198800ec
:1043c8002083a80001198000f0f12f000080600010
:1043d8000070a000001988002043a8002143a8000d
:1043e8002063a9002223a9002343a80011198000f3
:1043f800f0cf2f00008060001019880025e3a90085
:1044080000ccb30024e3b7003303a80041198000af
:1044180000fc2f00008060004019880028e3a900f4
:104428003119800090ff2f0000806000301988004b
:104438003023ef002e23ef0031e3a80031c3a8009a
:1044480031a3a8002183a9001119800030f82f009a
:10445800008060000040a0001019880091198000b9
:1044680080ff2f00008060006000b3009019880072
:1044780001a8a90021a8a90021e3a8000080fa004a
:10448800000006000200fa00000f78001e00780005
:10449800408288000080fa00000006003600f8001c
:1044a800809fbe00829fbe00849fbe00869fbe0084
:1044b8000000fa0040828000000001000068a900a6
:1044c8000080fa004f03be004f02be004f01be003d
:1044d8004f00be003600f900004006000200fa0056
:1044e800000f78001e0078000040780061406000ee
:1044f80061406000614060000080fb004f00dd000b
:10450800c2708000f1ff2700810061000100700087
:10451800c07088009e007800628060000000d100b2
:1045280000407800614060000080fb00610060008e
:104538004200dd00c17080000120a1000100700070
:10454800c07088009e007800648060004200de0031
:1045580000407800614060000080fb00610060005e
:10456800217080000100a100010070002070880007
:104578009e007800688060004300de0000407800fc
:10458800614060000080fb00610060004a00dd00bf
:104598002170800001a0a100010070002070880037
:1045a8009e007800708060004400de0000407800c3
:1045b800614060000080fb00610060006171800064
:1045c8000100a10001007000607188000002200055
:1045d8001e0060004500de00004078006140600079
:1045e8000080fb0061006000000040002170800036
:1045f8000110a10001007000207088000004200054
:104608001e0060004600de00004078006140600047
:104618000080fb00610060004700dd0061718000e0
:104628000170a10001007000607188000080fa002c
:10463800000006000200fa00000f78000080fa006f
:10464800000006000200fa00000f78009e007800c3
:1046580064804000100078000000e0000200340090
:1046680000402800106288009e00780064804000a6
:10467800100078000000e00002003d000040240027
:10468800106288001e80e8001000780000f0a70083
:104698000000ea00306288009e00780064804000d4
:1046a8001000780000f0a7000000ea0030638800de
:1046b8000080fa00000006000200fa00000f7800ef
:1046c8001e00780002f00700401f200020608800cc
:1046d800222cef0000002c0010638800106380007b
:1046e80010628800206080000000d10030628800dd
:1046f800206080000000d10030638800ffff370091
:104708000000fa000000eb000080fa00000006003c
:104718000200fa00000f780046d0bf000004e00055
:104728000a003a009e007800c1af8800e0522100dc
:104738008040eb0001487800a05f21008040eb003a
:104748000148780010c0b30046f0b7000080fa00b6
:10475800000006001e00fa00881f7800405f9800dd
:10476800e0522100104078000080fb00e20f50006a
:1047780051003200e20f500005003c000000e0004c
:104788000a003200e10f50001a0032008d01370094
:10479800e40f50008b003200e40f50006700350032
:1047a800e50f50009f00320086013700ce58900078
:1047b80040c2b30080cf500009003a000204200034
:1047c800c15f2100f05221003ef70700e0522100ae
:1047d80011c0b300014878000040eb007a013700af
:1047e800e05221008040eb00014878000040eb00d7
:1047f80075013700ce58900040c2b30080cf5000fa
:104808000e003200ce589000a0c2b30080cf5000f6
:1048180004003a00a05f210010407800f34f5000d8
:10482800060036004e589000ed4f5000030032004d
:104838004e589000ea4f500008003a00a05f21004f
:104848008040eb0001487800e05221008040eb00f6
:10485800014878000040eb005b013700ce5890001b
:10486800a0c2b30080cf500005003a00e0522100fa
:1048780021c0b300014878000040eb005201370026
:10488800a05f2100104078008080fb00e0522100ea
:1048980000804000ce58900011409800a05f210091
:1048a800104078008040e800a05f210001487800af
:1048b8000040eb0044013700ce58900040c2b300de
:1048c80080cf50000a003200ce589000a0c2b3003a
:1048d80080cf5000060032004e589000ed4f500037
:1048e800030032004e589000ea4f500008003a008a
:1048f800a05f21008040eb0001487800e0522100d1
:104908008040eb00014878000040eb002e013700a2
:104918004e58900071010700410020008100dd0021
:10492800705f210001487800e052210031c0b300d7
:10493800014878000040eb0023013700ce58900072
:1049480040c2b30080cf50000a003200ce58900019
:10495800a0c2b30080cf5000060032004e5890002d
:10496800ed4f5000030032004e589000ea4f5000bf
:1049780008003a00a05f21008040eb000148780061
:10498800e05221008040eb00014878000040eb0035
:104998000d013700705f2100104478004e589000d8
:1049a8004e01070080407400705f210001487800c4
:1049b800e052210041c0b300014878000040eb00fc
:1049c80001013700ce58900040c2b30080cf50009c
:1049d80007003200ce589000a0c2b30080cf50002c
:1049e800030032004e589000ea4f500008003a0089
:1049f800a05f21008040eb0001487800e0522100d0
:104a08008040eb00014878000040eb00ee003700e2
:104a1800e052210051c0b300014878000040eb008b
:104a2800e9003700ce58900040c2b30080cf500054
:104a380007003200ce589000a0c2b30080cf5000cb
:104a4800030032004e589000ed4f500008003a0025
:104a5800a05f21008040eb0001487800e05221006f
:104a68008040eb00014878000040eb00d60037009a
:104a78000000eb00000f78000040eb002047980092
:104a880007003700e05221001e004000104090004f
:104a9800ae40900000c06800204798001e0fe80054
:104aa800a05f2100104078000080fb009e0f50009e
:104ab800f4ff3e00a05f210010407800f54f500041
:104ac800b8003a00705f2100904078002e409000b6
:104ad80080cf5000b3003a000000eb00000f7800d0
:104ae8005d0037001e0078004200dd0064004000d1
:104af800000147006000b8000089be001e00780071
:104b08004200dd0064004000000047001001be00c4
:104b1800f00f200001002000000171008181710068
:104b28004818dd00c810de00810070004810dd0064
:104b38001e0178004211dd006401410002014700b6
:104b48000089be001e007800e300b9008080e800fc
:104b5800e052210000804000104090000081fb00de
:104b68008001eb001e0078004200dd006400400078
:104b7800000047001000be00000171008181710033
:104b88004818dd00c810de00810070004810dd0004
:104b98001e0178004211dd00640141000201470056
:104ba8000089be001e007800e300b9008000e8001c
:104bb800e052210000804000104090000081fb007e
:104bc8008001eb001e0078004200dd006400400018
:104bd800000047001000be000001710081817100d3
:104be8004818dd00c810de00810070004810dd00a4
:104bf8001e0178004211dd006401410002014700f6
:104c08000089be001e007800e300b900800078002b
:104c1800e052210000804000104090000081fb001d
:104c28008001eb001e0078004200dd0064004000b7
:104c3800000047001000be00000071008180710074
:104c48001e0178004211dd006401410002014700a5
:104c58000089be001e0fe8001e007800e50f500016
:104c6800a0ff36006000b800600f9800710f980030
:104c780030542100104078000081fb008001eb00d7
:104c88006e089000fe08900000017100818171009b
:104c98004818dd00c810de00810070004810dd00f3
:104ca800600f9800710f9800205421001040780080
:104cb8000081fb008001eb006e089000fe08900068
:104cc80000017100818171004818dd00c810de0004
:104cd800810070004810dd00600f9800710f980087
:104ce80010542100104078000081fb008001eb0087
:104cf8006e089000fe08900000007100818071002d
:104d0800600f9800710f9800c2af80002e009000cd
:104d1800be0090000089be00c2af80004e00900027
:104d2800de0090002001980031019800c2af800099
:104d38006e009000fe00900040019800510198001c
:104d4800c2af80000e0890009e0890006001980095
:104d580071019800c2af80002e089000be08900034
:104d68000009980011099800c2af80004e08900011
:104d7800de0890002009980031099800c2af800031
:104d88006e089000fe0890004009980051099800ac
:104d9800a05f21008040eb000148780010c0b300fc
:104da80009003700a05f21008040eb00014878002f
:104db800e05221008040eb00014878000040eb0001
:104dc800010037000040eb004f0478000080fa0033
:104dd800000006002600fa00889fbe008a9fbe00d9
:104de8008c9fbe0010c0b300004f78000000eb009d
:104df800100798000040eb00406798005eb09700ed
:104e0800eeb09700f6ee07000006be003eb0970031
:104e1800ceb09700f2ee07000005be001eb0970066
:104e2800aeb09700eeee07000004be007ea8970023
:104e38008eb09700eaee0700f25221008c9fbe0068
:104e48008a9fbe00889fbe00809fbe00808d29007b
:104e5800801f7800020078009aef0700f287570059
:104e6800090037009e80fb00e052210000804000ce
:104e7800104090000080fb009e00900000806800b9
:104e8800100798001e4fe8001e84fb00f052210016
:104e9800aef50700800f5400f2ff390064004700a8
:104ea8009e009000811f7800518e2900811f780094
:104eb80084ef0700e4875700e4004700f052210020
:104ec8008ef50700f05221004f06be004f05be00c8
:104ed8004f04be000080fa00000006000400fa003b
:104ee80020479800ae40900000cdb30000c04000bd
:104ef800004f78001e407800e94f500005003c0044
:104f08001e4078000004e000020035001e407800d2
:104f18001b003700ae409000f0cbb30000c040004b
:104f2800004f78001e407800e54f500006003c0016
:104f38001e4078000004e000030035001e407800a1
:104f48006a4040000e003700ae409000f0c9b30040
:104f580000c04000004f78001e407800e54f500028
:104f680006003c001e4078000004e0000300350005
:104f78001e4078006a4040000100370000c0eb0086
:104f88000080fa00000006000800fa0010079800e8
:104f980021079800320798002e0090000000e000da
:104fa800030032001e0090000000e00002003a00fa
:104fb8000000eb00250037003e009000e10f500094
:104fc80002003e000000eb00200037001e009000a9
:104fd800ae009000510098000000eb00000f780030
:104fe800060037001e009000500090001e00400090
:104ff8008040eb00014878001e0fe8003e0090005a
:105008009e007800808f5000f6ff39001e00900047
:105018008000eb00010878001e0090008000eb0083
:10502800110098001e009000be009000210098001a
:105038001e0090008000eb00310098001e009000d8
:105048008040eb0001489800100020000080fa0022
:10505800000006000400fa00000f7800110798000d
:105068001e0078000000e000340032001e007800c6
:10507800300090000000e000300032001e00780090
:10508800d00090001e0078001000780000804000da
:10509800904078001e009000014878001e007800bb
:1050a80030009000e10f50000f003a001e00780019
:1050b800900078001e007800200090000000e900b1
:1050c800808f5000040031001e0078001000780026
:1050d8000000e800010037000000eb009e007800a7
:1050e800800878000e0037001e00780090007800d5
:1050f8001e007800200090000000e900808f50001a
:10510800040031001e007800100078000000e8005c
:10511800010037000000eb009e007800800878004e
:105128001e007800300090008000e9001e00780022
:105138003100980010002000010037000000eb004b
:105148000080fa00000006000a00fa002007980014
:1051580031079800420798002e0090000000e000f8
:10516800340032003e0090000000e00031003200c0
:10517800be009000110798002e009000b00090002b
:105188004e009000808f50002a0039000000eb008c
:10519800000f78001b0037001e0078009e0090006a
:1051a80000804000ae00900051019000ae009000d9
:1051b8009100780081004100914078000148780012
:1051c8002e009000900078002e00900020009000a3
:1051d8000000e900808f5000060031002e0090008a
:1051e800100078008000e8002e0090000108780088
:1051f800030037002e0090008000eb0001087800c3
:105208001e0fe8009e0078004e009000808f50002e
:10521800e1ff39002e009000b00090004e00900091
:10522800808050002e00900031009800100020006f
:10523800010037000000eb000080fa0000000600c3
:105248000400fa00000f7800214798001e0078003b
:105258000000e000290032001e007800b000900035
:105268001e00780020009000808f500007003a0050
:105278001e007800004890008040e8001e0078007a
:10528800014898000000eb001d0037001e00780060
:10529800d00090001e0078001000900000804000b0
:1052a800ae409000014878001e0078009000900001
:1052b8001e007800200090000000e900808f500058
:1052c800040031001e007800100090000000e80083
:1052d800010037000000eb009e0078009000980065
:1052e8001e007800300090008000e8001e00780062
:1052f8003100980010002000010037000000eb008a
:105308000080fa00000006000e00fa00300798003e
:105318004107980052079800434f98003e009000bc
:105328000000e000750032004e0090000000e00030
:1053380072003200ce009000210798004e4890007d
:105348000004e000320032003e009000a00090000f
:105358003e00900030009000808050005e00900079
:10536800808f5000020031000000eb00640037001d
:105378000000eb00000f7800190037003e00900095
:10538800d00090003e009000100090000080400087
:105398009e0078002e019000810041009140780025
:1053a800014878001e0fe8003e0090009000900031
:1053b8003e009000200090000000e900808f50001f
:1053c800040031003e009000100090000000e8004a
:1053d800010037000000eb00be009000900098002c
:1053e8009e0078005e009000808f5000e3ff390037
:1053f8003e009000b00090001e00780080804000c1
:105408003e00900031009800100020003c0037005a
:105418000000eb0010079800320037003e009000b3
:10542800b00090003e00900020009000808f500057
:105438000c003a003e009000804890005e0090000a
:10544800004178001e0090000040780000405100a4
:1054580080c040003e009000014898000000eb002a
:10546800270037003e009000d00090003e009000da
:1054780010009000008040009e0090002e019000d7
:105488008100410091407800014878001e0090009a
:105498000000e800100798003e00900030009000df
:1054a8008000e8003e009000310098003e00900027
:1054b800900090003e009000200090000000e9005d
