:020000040000fa
:080000000002040000000000f2
:020000040000fa
:04000800e40200000e
:020000040000fa
:04000c00ea02000004
:020000040000fa
:0400100002030000e7
:020000040000fa
:04001400f0020000f6
:020000040000fa
:04001800f6020000ec
:020000040000fa
:04001c00fc020000e2
:020000040000fa
:0400200002030000d7
:020000040000fa
:0400240002030000d3
:020000040000fa
:0400280002030000cf
:020000040000fa
:04002c0002030000cb
:020000040000fa
:0400300002030000c7
:020000040000fa
:040034008c16000026
:020000040000fa
:040038005a1e00004c
:020000040000fa
:04003c0002030000bb
:020000040000fa
:0400400002030000b7
:020000040000fa
:0400440002030000b3
:020000040000fa
:0400480002030000af
:020000040000fa
:04004c0002030000ab
:020000040000fa
:0400500002030000a7
:020000040000fa
:0400540002030000a3
:020000040000fa
:04005800020300009f
:020000040000fa
:04005c00020300009b
:020000040000fa
:04006000621e00001c
:020000040000fa
:040064000203000093
:020000040000fa
:04006800020300008f
:020000040000fa
:04006c00020300008b
:020000040000fa
:040070000203000087
:020000040000fa
:04007400a8130000cd
:020000040000fa
:04007800020300007f
:020000040000fa
:04007c00020300007b
:020000040000fa
:040080000203000077
:020000040000fa
:040084000203000073
:020000040000fa
:04008800b21e0000a4
:020000040000fa
:04008c00020300006b
:020000040000fa
:040090000203000067
:020000040000fa
:040094000203000063
:020000040000fa
:04009800020300005f
:020000040000fa
:04009c00020300005b
:020000040000fa
:0400a0000203000057
:020000040000fa
:0400a4000203000053
:020000040000fa
:0400a800020300004f
:020000040000fa
:0400ac00020300004b
:020000040000fa
:0400b0000203000047
:020000040000fa
:0400b4000203000043
:020000040000fa
:0400b800ba1e00006c
:020000040000fa
:0400bc00020300003b
:020000040000fa
:0400c0000203000037
:020000040000fa
:0400c4000203000033
:020000040000fa
:0400c800020300002f
:020000040000fa
:0400cc00020300002b
:020000040000fa
:0400d0000203000027
:020000040000fa
:0400d4000203000023
:020000040000fa
:0400d800020300001f
:020000040000fa
:0400dc00020300001b
:020000040000fa
:0400e0000203000017
:020000040000fa
:0400e4000203000013
:020000040000fa
:0400e800020300000f
:020000040000fa
:0400ec00020300000b
:020000040000fa
:0400f0000203000007
:020000040000fa
:0400f4000203000003
:020000040000fa
:0400f80002030000ff
:020000040000fa
:0400fc0002030000fb
:020000040000fa
:0401000002030000f6
:020000040000fa
:0401040002030000f2
:020000040000fa
:0401080002030000ee
:020000040000fa
:04010c0002030000ea
:020000040000fa
:0401100002030000e6
:020000040000fa
:0401140002030000e2
:020000040000fa
:0401180002030000de
:020000040000fa
:04011c0002030000da
:020000040000fa
:0401200002030000d6
:020000040000fa
:0401240002030000d2
:020000040000fa
:0401280002030000ce
:020000040000fa
:04012c0002030000ca
:020000040000fa
:0401300002030000c6
:020000040000fa
:0401340002030000c2
:020000040000fa
:0401380002030000be
:020000040000fa
:04013c0002030000ba
:020000040000fa
:0401400002030000b6
:020000040000fa
:0401440002030000b2
:020000040000fa
:0401480002030000ae
:020000040000fa
:04014c0002030000aa
:020000040000fa
:0401500002030000a6
:020000040000fa
:0401540002030000a2
:020000040000fa
:04015800020300009e
:020000040000fa
:04015c00020300009a
:020000040000fa
:040160000203000096
:020000040000fa
:040164000203000092
:020000040000fa
:04016800020300008e
:020000040000fa
:04016c00020300008a
:020000040000fa
:040170000203000086
:020000040000fa
:040174000203000082
:020000040000fa
:04017800020300007e
:020000040000fa
:04017c00020300007a
:020000040000fa
:040180000203000076
:020000040000fa
:040184000203000072
:020000040000fa
:04018800020300006e
:020000040000fa
:04018c00020300006a
:020000040000fa
:040190000203000066
:020000040000fa
:040194000203000062
:020000040000fa
:04019800020300005e
:020000040000fa
:04019c00020300005a
:020000040000fa
:0401a0000203000056
:020000040000fa
:0401a4000203000052
:020000040000fa
:0401a800020300004e
:020000040000fa
:0401ac00020300004a
:020000040000fa
:0401b0000203000046
:020000040000fa
:0401b4000203000042
:020000040000fa
:0401b800020300003e
:020000040000fa
:0401bc00020300003a
:020000040000fa
:0401c0000203000036
:020000040000fa
:0401c4000203000032
:020000040000fa
:0401c800020300002e
:020000040000fa
:0401cc00020300002a
:020000040000fa
:0401d0000203000026
:020000040000fa
:0401d4000203000022
:020000040000fa
:0401d800020300001e
:020000040000fa
:0401dc00020300001a
:020000040000fa
:0401e0000203000016
:020000040000fa
:0401e4000203000012
:020000040000fa
:0401e800020300000e
:020000040000fa
:0401ec00020300000a
:020000040000fa
:0401f0000203000006
:020000040000fa
:0401f4000203000002
:020000040000fa
:0401f80002030000fe
:020000040000fa
:0401fc0002030000fa
:020000040000fa
:0402000002030000f5
:020000040000fa
:0402040002030000f1
:020000040000fa
:0402080002030000ed
:020000040000fa
:04020c0002030000e9
:020000040000fa
:0402100002030000e5
:020000040000fa
:0402140002030000e1
:020000040000fa
:0402180002030000dd
:020000040000fa
:04021c0002030000d9
:020000040000fa
:0402200002030000d5
:020000040000fa
:0402240002030000d1
:020000040000fa
:0402280002030000cd
:020000040000fa
:04022c0002030000c9
:020000040000fa
:0402300002030000c5
:020000040000fa
:0402340002030000c1
:020000040000fa
:0402380002030000bd
:020000040000fa
:04023c0002030000b9
:020000040000fa
:0402400002030000b5
:020000040000fa
:0402440002030000b1
:020000040000fa
:0402480002030000ad
:020000040000fa
:04024c0002030000a9
:020000040000fa
:0402500002030000a5
:020000040000fa
:0402540002030000a1
:020000040000fa
:04025800020300009d
:020000040000fa
:04025c000203000099
:020000040000fa
:040260000203000095
:020000040000fa
:040264000203000091
:020000040000fa
:04026800020300008d
:020000040000fa
:04026c000203000089
:020000040000fa
:040270000203000085
:020000040000fa
:040274000203000081
:020000040000fa
:04027800020300007d
:020000040000fa
:04027c000203000079
:020000040000fa
:040280000203000075
:020000040000fa
:040284000203000071
:020000040000fa
:04028800020300006d
:020000040000fa
:04028c000203000069
:020000040000fa
:040290000203000065
:020000040000fa
:040294000203000061
:020000040000fa
:04029800020300005d
:020000040000fa
:04029c000203000059
:020000040000fa
:0402a0000203000055
:020000040000fa
:0402a4000203000051
:020000040000fa
:0402a800020300004d
:020000040000fa
:0402ac000203000049
:020000040000fa
:0402b0000203000045
:020000040000fa
:0402b4000203000041
:020000040000fa
:0402b800020300003d
:020000040000fa
:0402bc000203000039
:020000040000fa
:0402c0000203000035
:020000040000fa
:0402c4000203000031
:020000040000fa
:0402c800020300002d
:020000040000fa
:0402cc000203000029
:020000040000fa
:0402d0000203000025
:020000040000fa
:0402d4000203000021
:020000040000fa
:0402d800020300001d
:020000040000fa
:0402dc000203000019
:020000040000fa
:0402e0000203000015
:020000040000fa
:0402e4000203000011
:020000040000fa
:0402e800020300000d
:020000040000fa
:0402ec000203000009
:020000040000fa
:0402f0000203000005
:020000040000fa
:0402f4000203000001
:020000040000fa
:0402f80002030000fd
:020000040000fa
:0402fc0002030000f9
:020000040000fa
:0403000002030000f4
:020000040000fa
:0403040002030000f0
:020000040000fa
:0403080002030000ec
:020000040000fa
:04030c0002030000e8
:020000040000fa
:0403100002030000e4
:020000040000fa
:100400008f4721000eff24000e018800000000002d
:10041000000020000000e000020032000001200087
:10042000200288000c000700600b22000100200061
:100430000f000700000020000000e0000200320072
:100440000000020000000000ae0d020000000000ed
:100450000040da000000fe00200120000000e00063
:1004600002003200002020009001880000000600f9
:10047000a1028800800078000000eb001a0037001d
:10048000e280400054a0b4009101ba00e280400034
:1004900054a0b4009102ba00e280400054a0b4001d
:1004a0000002eb00472bde00f507b200a601880032
:1004b000602ce10008003a000049eb000201e8006e
:1004c000020039003420ec0002f0a0008301e900b2
:1004d000f9ff3e00040037006128e100010032000e
:1004e0000082eb000b00070011c3ba001101ba0033
:1004f0000604e00003003a000200e000e0ff3a00da
:1005000000000600f607b200a6028800820078000c
:10051000f5ff370004d0a300e20f49001c003900aa
:10052000810278003549ba000201e8000200390072
:100530003420ec0002f0a0008301e9000f0032003b
:100540002549ba000201e800020039003420ec001d
:1005500002f0a0008301e900080032000400e0007e
:100560000600320015c9ba000201e8000200390095
:100570003420ec0002f0a0008301e9008180e80053
:1005800054a0b4000300e000e2ff3a0000000600bf
:100590009102ba00055978008301e900f7ff3200a3
:1005a000c82ade00055978008301e900f3ff320014
:1005b0000400e000f1ff320011d9ba00eeff37006d
:1005c000ac0f0400000000000000fa00c028a900e1
:1005d000ffff37000000fa00c068a900ffff3700e6
:1005e0000000fa00c048a900ffff37000000fa0031
:1005f000c088a900ffff37000000fa00c0a8a900ca
:10060000ffff37000040da000000fe002428a900a8
:1006100061e2a9000428a900000006001013880068
:100620002113880002138800000006008111800059
:10063000e6806000e68f50000c003a0003003700af
:100640003322ab00feff3a00a1118800b000780011
:100650000100e000faff3a00000006003322ab0080
:10066000feff3a008100fb00a1118800b040780035
:100670000104e000f9ff3a000000060003f0a200c8
:10068000889fbe008a9fbe008c1f7800d2000700a2
:10069000d90033006450e1004f0032006420e100d3
:1006a0005200320003826c0007003b000905d000b5
:1006b0000306d000820f54000c065d0002003900d2
:1006c0000200320089017800030678008582550017
:1006d00004003d000003fd008103fd008502ea00e7
:1006e0008b854200840f720002003b006000100006
:1006f000e08018006011b8000005eb007a28e100e6
:100700000a00390006007800c75ddd00f707b20077
:10071000878075002d003700828171000a01780002
:10072000610560008180d1000080d3008502e9006e
:10073000f9ff3b00060440008784480002003b00ac
:1007400060041400e0841c000988a3000700320044
:100750008a81710082817100610164008904d10085
:100760000884d3008b05e800170037000978a30040
:1007700013003a000b00e000130034008b05e90081
:100780000804440089844c000a4474000978a300da
:100790000d003a000b00e000070034008b05e90073
:1007a0000804440089844c0001003a000b0020003a
:1007b0000978a300f7ff32000001eb0002003700c8
:1007c000828171000a0178005d0007000cf0a7002b
:1007d00001f0a000910037006420e10002003a001f
:1007e000838f6c00910033000801be000200be0040
:1007f0008a003700889fbe008a9fbe008c1f780049
:10080000750007007c00330003866c006450e10033
:100810002e0032006420e100330032006150e1001c
:100820002f0032006120e100310032008585550043
:10083000eb07b00009002000080420000500370085
:100840000804440089844c000a0031000603430078
:1008500087834b000001530081815b00f8ff330068
:100860000203be000800a0000804440089844c0074
:10087000f6ff3900c639dd00830173000100320044
:10088000130020008904d1000884d3000998a30034
:10089000050032000800a7000300a0008904d10071
:1008a0000884d3008b05e8008904d1000884d300b4
:1008b0000001eb000281d2002100070001f0a1003d
:1008c0000cf0a70001f0a000540037006420e10004
:1008d000560032000801be000200be00f7ff3700dc
:1008e0006120e100510032006000b800f3ff3700e2
:1008f0000000200001f82700f0ff3700839f680008
:100900000100e00002003d0060001000e0801800df
:100910000300e00002003d0060011100e0811900c9
:10092000450007004f00e00002003b00600010009f
:10093000e0801800000006006011b8005100370088
:1009400081002000618055000b003d000b0020005d
:1009500061fe2f000100e1001d0034008281710062
:10096000610164008904d1000884d3000000e8001c
:10097000faff3a007100200061006400030070007b
:10098000020060000900320061044400e0844c0071
:100990000988a500050032008b05e8006808e10021
:1009a00002003a008904d1000884d300f20f20002d
:1009b0000258e10005003d00c75ddd00f907b20007
:1009c0008980750008007800000006000bf82700f9
:1009d0008b007800000005000004be0058000700ee
:1009e0000003be000405be000200be005400070064
:1009f000844f7500000006000200be006450e10054
:100a0000050036006420e100020036000968a300fa
:100a100001003a000800be000160a0004f06780007
:100a20004f05be004f04be0000000600f0ff2f007f
:100a3000f1ff2700f9ff37006022b800060220000e
:100a40000000d0008180d2000482d2008582d200d2
:100a50000000a0000202520083825a00030031000d
:100a60000202420083824a000000a1000603e9005e
:100a7000f3ff3a0000000600efff07000400be008d
:100a800000000600889fbe008a9fbe0000827000a2
:100a90000402710004827100260032000004be00ce
:100aa0000200be006011b8006b0920009502200012
:100ab0000182cf000a0039000541b1000082cf0059
:100ac000070039000541b1000982cf000400390058
:100ad0000541b1000882cf00010039000541b10095
:100ae00005425200120032000a003b008281710070
:100af000610164008100d1000080d3008984d300ab
:100b00000884d3008b05e8000442e800f7ff3a00b0
:100b1000070037000804440089844c0000004800a6
:100b2000818048008b05e9000442e900f9ff3a00a2
:100b300083ff07004f05be004f04be000000060003
:100b4000c70ade00f107b200f50fb200080032005c
:100b5000e1cf4200020032000170a0002400050035
:100b6000810f7000010032000408050044000500f8
:100b7000810f700002003a00140005008502e900b0
:100b80000000400081c04800fcff3b000170a00055
:100b9000240005008001780002003700b159780078
:100ba0000201e9000200e000fcff3a00000006003c
:100bb0008001780002003700815978000201e900c5
:100bc0000200e000fcff3a0000000600000178008f
:100bd00002007800b041780081cf5100030032005c
:100be0000304e000f9ff3a000001eb000200780086
:100bf00000000600800078003104e000feff3a00ab
:0c0c00000080ea000080400000000600b8
:020000040000fa
:100c0c00496e0000697400002e200000436f000044
:100c1c006d7000006c650000746500000d0a00002a
:040c2c0000000000c4
:020000040000fa
:100c30000200fa00000f78003ed0bf000004e00080
:100c40000a003a009e00780021a08800203c210084
:100c50008040eb0001487800604021008040eb00bc
:100c60000148780010c0b3003ef0b7000080fa00e1
:100c7000000006001200fa00881f78000057980054
:100c8000203c2100104078000080fb00e20f500063
:100c900051003200e20f500005003c000000e0006f
:100ca0000a003200e10f50001a00320079013700cb
:100cb000e40f50008b003200e40f50006700350055
:100cc000e50f50009f003200720137008e509000f7
:100cd00040c2b30080cf500009003a000204200057
:100ce00081402100303c2100aaff0700203c210068
:100cf00011c0b300014878000040eb0066013700e6
:100d0000203c21008040eb00014878000040eb00cf
:100d1000610137008e50900040c2b30080cf500078
:100d20000e0032008e509000a0c2b30080cf500061
:100d300004003a006040210010407800f34f50005a
:100d4000060036000e509000ed4f500003003200b8
:100d50000e509000ea4f500008003a006040210019
:100d60008040eb0001487800203c21008040eb00ef
:100d7000014878000040eb00470137008e5090009a
:100d8000a0c2b30080cf500005003a00203c2100f3
:100d900021c0b300014878000040eb003e0137005d
:100da00060402100104078008080fb00203c210042
:100db000008040008e50900011409800604021005b
:100dc000104078008040e800604021000148780031
:100dd0000040eb00300137008e50900040c2b3005d
:100de00080cf50000a0032008e509000a0c2b300a5
:100df00080cf5000060032000e509000ed4f5000a2
:100e0000030032000e509000ea4f500008003a00f4
:100e1000604021008040eb0001487800203c210028
:100e20008040eb00014878000040eb001a013700d9
:100e30000e5090001e030700410020008100dd00dd
:100e40003040210001487800203c210031c0b3002f
:100e5000014878000040eb000f0137008e509000f1
:100e600040c2b30080cf50000a0032008e50900084
:100e7000a0c2b30080cf5000060032000e50900098
:100e8000ed4f5000030032000e509000ea4f50002a
:100e900008003a00604021008040eb0001487800e3
:100ea000203c21008040eb00014878000040eb002e
:100eb000f900370030402100104478000e509000b7
:100ec000fb02070080407400304021000148780098
:100ed000203c210041c0b300014878000040eb00f5
:100ee000ed0037008e50900040c2b30080cf50001c
:100ef000070032008e509000a0c2b30080cf500097
:100f0000030032000e509000ea4f500008003a00f3
:100f1000604021008040eb0001487800203c210027
:100f20008040eb00014878000040eb00da00370019
:100f3000203c210051c0b300014878000040eb0084
:100f4000d50037008e50900040c2b30080cf5000d3
:100f5000070032008e509000a0c2b30080cf500036
:100f6000030032000e509000ed4f500008003a0090
:100f7000604021008040eb0001487800203c2100c7
:100f80008040eb00014878000040eb00c2003700d1
:100f90000000eb00000f78000040eb0020479800b5
:100fa00007003700203c21001e0040001040900048
:100fb000ae40900000c06800204798001e0fe80077
:100fc00060402100104078000080fb009e0f500020
:100fd000f4ff3e006040210010407800f54f5000c3
:100fe000a4003a0030402100904078002e4090004c
:100ff00080cf50009f003a000000eb00000f780007
:101000005d0037001e0078004200dd0064004000f3
:10101000000147006000b8000089be001e00780093
:101020004200dd0064004000000047001001be00e7
:10103000f00f20000100200000017100818171008b
:101040004818dd00c810de00810070004810dd0087
:101050001e0178004211dd006401410002014700d9
:101060000089be001e007800e300b9008080e8001f
:10107000203c210000804000104090000081fb00d7
:101080008001eb001e0078004200dd00640040009b
:10109000000047001000be00000171008181710056
:1010a0004818dd00c810de00810070004810dd0027
:1010b0001e0178004211dd00640141000201470079
:1010c0000089be001e007800e300b9008000e8003f
:1010d000203c210000804000104090000081fb0077
:1010e0008001eb001e0078004200dd00640040003b
:1010f000000047001000be000001710081817100f6
:101100004818dd00c810de00810070004810dd00c6
:101110001e0178004211dd00640141000201470018
:101120000089be001e007800e300b900800078004e
:10113000203c210000804000104090000081fb0016
:101140008001eb001e0078004200dd0064004000da
:10115000000047001000be00000071008180710097
:101160001e0178004211dd006401410002014700c8
:101170000089be001e0fe8001e007800e10f50003d
:10118000a0ff36006000b800600798007107980063
:10119000b03c2100104078000081fb008001eb0092
:1011a0006e009000fe0090000001710081817100ce
:1011b0004818dd00c810de00810070004810dd0016
:1011c0006007980071079800a03c2100104078004b
:1011d0000081fb008001eb006e009000fe0090009b
:1011e00000017100818171004818dd00c810de0027
:1011f000810070004810dd006007980071079800ba
:10120000903c2100104078000081fb008001eb0041
:101210006e009000fe00900000007100818071005f
:10122000600798007107980022a080002e009000af
:10123000be0090000089be0022a080004e009000f9
:10124000de009000200198003101980022a080006b
:101250006e009000fe00900040019800510198003f
:10126000604021008040eb000148780010c0b300ce
:1012700009003700604021008040eb000148780001
:10128000203c21008040eb00014878000040eb004a
:10129000010037000040eb004f0478000080fa00a6
:1012a000000006000c00fa00400798005107980063
:1012b00010c0b300004f78000040eb0010479800ca
:1012c0004e00900041c2b300014878000040eb009e
:1012d00020479800410137002e4090000080fb001d
:1012e0004400dd000000e800ce00900000814000d6
:1012f0002e4090000080fb00de009000ec00b90062
:10130000008040001000be000040780000497800d6
:101310002e4090000080fb004400dd000080e800cb
:10132000ce009000008240002e4090000080fb0024
:10133000de009000ec00b900008040001001be000b
:1013400000f02f00010020008202780003017800e5
:101350008001780001007800838262000000610053
:101360008000eb00c000dd00000020000001be0096
:101370006128b8000001710081817100c81add0088
:101380004810de0000807200c898de00004078003f
:10139000004a78002e4090000080fb004400dd00f1
:1013a00063004000ce009000008240002e4090007c
:1013b0000080fb00de009000ec00b90000804000df
:1013c0001001be0000002000f10f20008202780012
:1013d00003017800800178000100780083826200b8
:1013e000000061008000eb00c000dd000000200074
:1013f0000001be006128b800000171008181710008
:101400004098de00cf80de0000407800004a78007f
:101410002e4090000080fb004400dd00640040008e
:10142000ce009000008140002e4090000080fb0024
:10143000de009000ec00b900008040001000be000b
:101440004808de0000407800004978002e409000f7
:101450000080fb004400dd0065004000ce009000ed
:1014600000804000ae4090008180fb005e01900053
:10147000e60ab90084007800f8804000810041004d
:101480009100780081407800014878002e4090005b
:101490000080fb004400dd0066004000ce009000ac
:1014a00000804000ae4090008180fb005e01900013
:1014b000e60ab90084007800f8804000810041000d
:1014c00091007800c808de0081407800014878006b
:1014d0002e4090000080fb004400dd0067004000cb
:1014e000ce00900000804000ae4090008180fb0064
:1014f0005e019000e60ab900840078004102b00065
:101500008100410091007800814078000148780016
:101510002e4090000080fb004400dd006800400089
:10152000ce00900000804000ae4090008180fb0023
:101530005e019000e60ab900840078004102b00024
:101540008100410091007800c808de0081407800e9
:10155000014878002e4090000080fb004400dd0030
:1015600069004000ce009000008140002e409000b5
:101570000080fb00de0090006c0040004200dd00b7
:10158000008040001000be00004078000049780054
:101590002e4090000080fb004400dd006a00400007
:1015a000ce009000008240002e4090000080fb00a2
:1015b000de0090006c0040004200dd000080400032
:1015c0001001be0000f02f00010020008202780010
:1015d00003017800800178000100780083826200b6
:1015e000000061008000eb00c000dd000000200072
:1015f0000001be006128b800000171008181710006
:10160000c81add004810de0000807200c898de00b5
:1016100000407800004a78002e4090000080fb00d7
:101620004400dd006b004000ce00900000824000ce
:101630002e4090000080fb00de0090006c00400017
:101640004200dd00008040001001be0000002000cc
:10165000f10f2000820278000301780080017800f9
:101660000100780083826200000061008000eb00ce
:10167000c000dd00000020000001be006128b800ad
:1016800000017100818171004098de00cf80de0092
:1016900000407800004a78002e4090000080fb0057
:1016a0004400dd006c004000ce009000008140004e
:1016b0002e4090000080fb00de0090006c00400097
:1016c0004200dd00008040001000be004808de003f
:1016d00000407800004978002e4090000080fb0018
:1016e0004400dd006d004000ce009000808040008e
:1016f0002e4090000080fb005e0190007c004000c6
:101700000000400000004100100078000040780018
:10171000804878002e4090000080fb004400dd00ef
:101720006e004000ce009000808040002e4090006f
:101730000080fb005e0190007c0040000000400043
:1017400000004100100078004800de0000407800f2
:10175000804878002e4090000080fb004400dd00af
:101760006f004000ce009000808040002e4090002e
:101770000080fb005e0190007e0040000000400001
:101780000000410010007800004078008048780098
:101790002e4090000080fb000000e8004400dd00c7
:1017a000ce009000808040002e4090000080fb0022
:1017b0005e0190007e0040000000400000004100fb
:1017c000100078004800de00004078008048780073
:1017d0002e4090000040e800204798002e409000e6
:1017e000e14f5000bcfe360010c0b300004f78003f
:1017f000080037001e80fb00ce00900000804000f3
:10180000104078009e40900000c06800104798008b
:101810001e4fe80000c2b3009e40780080cf500009
:10182000f4ff36004e0090001002b000a1c2b300d9
:10183000014878004e0090002002b0009e409000c9
:10184000014878004e0090003002b000d1c0b300d3
:10185000014878004e0090004002b000a1c0b300e3
:10186000014878000080fa00000006001200fa002b
:10187000000f98000040eb00004f78000000eb00e4
:1018800010079800080037001e0090008e08900096
:1018900000804000104078001e4f68001e0090003d
:1018a0000000e800100798001e009000eb0f5000a9
:1018b000f5ff34000e0890006c0040009040780066
:1018c000a0c2b30080cf500077003a000e0890000d
:1018d0006d004000104078009e4f500072003a00aa
:1018e0000e0890006e00400010407800ed4f500050
:1018f0006d003a000e0890006f0040001040780024
:10190000ea4f500068003a000000eb001007980012
:10191000540037001e0090004200dd0063004000cc
:101920008e08900000804000104078000080fb008e
:101930004800dd00cf80de001e0190004211dd0076
:1019400064014100020147000089be001e009000b2
:101950004200dd0064004000000047001001be00ae
:101960001e0090004200dd000080e8008e0890001c
:1019700000804000104078000080fb008000eb00f9
:1019800000017100818171004818dd00c810de007f
:10199000810070004810dd001e0190004211dd0042
:1019a00064014100020147000089be001e00900052
:1019b0004200dd0064004000000047001001be004e
:1019c0001e0090004200dd000000e8008e0890003c
:1019d00000804000104078000080fb008000eb0099
:1019e00000017100818171004818dd00c810de001f
:1019f000810070004810dd001e0190004211dd00e2
:101a000064014100020147000089be001e009000f1
:101a10004200dd0064004000000047001001be00ed
:101a20001e0090004200dd008e0890000080400003
:101a3000104078000080fb008000eb000000710087
:101a4000818071001e0190004211dd00640141009f
:101a5000020147000089be001e0090000000e8005f
:101a6000100798001e009000e20f5000a9ff3400fc
:101a700022a080002e009000be0090000089be00d1
:101a800022a080004e009000de009000200198000f
:101a90003101980022a080006e009000fe009000ae
:101aa00040019800510198000080fa0000000600f3
:101ab0000400fa0020479800ae40900000cdb3002b
:101ac00000c04000004f78001e407800e94f5000f1
:101ad00005003c001e4078000004e00002003500d4
:101ae0001e4078001b003700ae409000f0cbb300e2
:101af00000c04000004f78001e407800e54f5000c5
:101b000006003c001e4078000004e00003003500a1
:101b10001e4078006a4040000e003700ae40900042
:101b2000f0c9b30000c04000004f78001e407800ac
:101b3000e54f500006003c001e4078000004e00025
:101b4000030035001e4078006a4040000100370065
:101b500000c0eb000080fa00000006003c00fa0024
:101b60000000eb00000f7800010037001e0fe800b6
:101b7000f07022009e007800808f5000fbff340040
:101b80006000b800508d8800618d88006000b8004a
:101b9000708d8800818d8800e015200001002000f4
:101ba000908d8800a18d88005000200010079800bb
:101bb000500020002007980002042000e1042100ca
:101bc000200421000d050700c1fa20002004210097
:101bd000e3020700a01a210015fc0700508d8000c9
:101be000618d8000b08d8800c18d8800708d80006f
:101bf000818d8000d08d8800e18d88006f080700fe
:101c00000000eb00000f7800010037001e0fe80015
:101c1000f07022009e007800808f5000fbff34009f
:101c20000040eb004c0407006c08070000c0eb000c
:101c3000490407000000eb00000f780001003700a6
:101c40001e0fe800300620009e007800808f5000b4
:101c5000fbff340030ccb3003f04070066080700e8
:101c600000c0eb003c0407000000eb00000f780010
:101c7000010037001e0fe800300620009e007800ab
:101c8000808f5000fbff3400c0cfb3003204070048
:101c90006008070000c0eb002f0407000000eb0005
:101ca000000f7800010037001e0fe800300620000a
:101cb0009e007800808f5000fbff340030ccb300d2
:101cc000250407006008070000c0eb00220407009d
:101cd0000000eb00000f7800010037001e0fe80045
:101ce000300620009e007800808f5000fbff3400fb
:101cf0000040eb00180407005c08070000c0eb0080
:101d0000150407000000eb00000f78000100370009
:101d10001e0fe800300620009e007800808f5000e3
:101d2000fbff34006060280040fa07000500370020
:101d30000000000003003700000000000100370031
:101d40000000000050808000700060000000e00093
:101d5000400032007080800081808000610040007f
:101d6000e080480070808800818088008000070043
:101d70000e80e800fe0107007080800081808000f6
:101d800042062000030020003bfb0700e00f50004c
:101d9000e08f58002b003a00b07080004e00de004b
:101da000614060000080fb00610060004300dd00d6
:101db0002270800071ff2f0081006100010070001f
:101dc00020708800107080004700de0061406000d5
:101dd0000080fb00610060004800dd002270800090
:101de000f1ef2f0081006100010070002070880079
:101df000b07080004300de00614060000080fb00a6
:101e0000610060004400dd00c2708000f1fe2f0020
:101e10008100610001007000c07088003081800086
:101e2000000040003081880030818000e80f5000c1
:101e300002003200308180000100370010002000d5
:101e40003081880051808000f0fe2f00008060000b
:101e50005080880050808000610060000040780061
:101e60000004e0000400320051808000e0ff2f00f9
:101e70000080600050808800508080006800600012
:101e80000000e000040032005180800070ff2f004d
:101e90000080600050808800518080000004200095
:101ea000008060000000e0000400320051808000eb
:101eb000f0fb2f000080600050808800c080800010
:101ec0000000e0000e003a00408280000000e000c8
:101ed00097ff320066004700800078002004210050
:101ee00079040700ee40900040c2b30080cf50005c
:101ef00091ff3a0010002000c080880091ff370059
:101f000040828000ef0f50008dff360067004700d1
:101f1000020120008000780020042100a7040700af
:101f20006700470051fe0700e10120002004210066
:101f3000db0507007700470061162100d9fc070088
:101f4000770047008000780050022000d906070083
:101f50001830ef007bff37000000fa00508080004f
:101f60000040a000508088000080fa0000000600b9
:101f70000800fa00881f78000000eb002007980096
:101f8000601a2100c7030700801a21001040780062
:101f90008080fb0040f02f008088b900800078002e
:101fa000601a2100104078000081fb0080f02f00b3
:101fb0008090b90081007000901a210010407800d4
:101fc0000081fb0000f12f008090b90081007000bb
:101fd000701a2100104078000081fb0000f22f00f1
:101fe0008090b90001007000200798002e0090003a
:101ff0000040780000c0ea00570307009b07070075
:1020000000c0eb00540307000000eb00000f780055
:102010004500370010002000100798003e003700f0
:102020001e0090000001e8001e007800e300b900e7
:10203000800078001e00900000804000c200dd009b
:1020400060162100008040001000be009e01780054
:10205000e31ab9008401780002814100c211dd0059
:1020600062162100028141000089be001e0090001e
:102070000001e8001e007800e300b900800078004d
:102080001e009000008040006c0040008000400076
:102090006016210000804000900078001e0078004b
:1020a000e300b900020040006c0040000001400065
:1020b0006016210000004100010878001e00900019
:1020c0000001e8001e007800e300b90080007800fd
:1020d0001e00900000804000720040008000400020
:1020e0006016210000804000900078001e007800fb
:1020f000e300b9000200400072004000000140000f
:102100006016210000004100010878001e009000c8
:102110000000e900100798001e0090000000e00099
:10212000bfff3d001e0fe8001e007800e10f5000c9
:10213000b8ff3400e0cfb300070307002000210000
:102140004f07070000c0eb0003030700108080006a
:102150002180800060001000e0801800308b880033
:10216000418b8800d0cfb300fb0207002000210084
:102170004307070000c0eb00f70207001080800053
:1021800021808000908b8800a18b880070cfb300e5
:10219000f1020700000021006a07070000c0eb0001
:1021a000ed02070000808000f08b8800f0cdb300c6
:1021b000e9020700000021006207070000c0eb00f1
:1021c000e5020700008080000000ea00208c880003
:1021d000b0cfb300e002070000002100590707005c
:1021e00000c0eb00dc020700008080000000ea0075
:1021f000508c8800f0ceb300d70207000000210009
:102200005007070000c0eb00d302070000808000e9
:10221000808c88000000eb00000f7800270037005a
:102220001e007800e600b9004102200080804000d6
:102230006016210000804000900078001e81e800b8
:10224000601a210000004100104078000080fb006f
:10225000610010008088b900800078001e007800be
:10226000e601b900a0182100000041000108780033
:102270001e007800e600b900f8004000601621005a
:102280000080400090007800601a21001e0040008d
:10229000104078000080fb00610010008088b900c9
:1022a000800078001e007800e601b900e0172100e8
:1022b00000004100010878001e0fe8001e007800b1
:1022c000e10f5000d6ff3400a00f20003007980027
:1022d0000000eb00000f78009f0037001e0478001c
:1022e0006c004400c200dd00601621000080400048
:1022f0001000be004f09de008001eb00020040002c
:10230000838048008180d1000080d3000003be009c
:102310001e007800ec00b9008000780060162100f3
:10232000008040001000be00e30ab900e001b900df
:1023300002024200320020000201b8000302420003
:10234000840178001e007800ec00b900e400400031
:1023500060162100008040001000be00c4ff2f0066
:10236000848ab9008082eb008584b90088027800f5
:1023700005024200c5ff2f000500b800010242001f
:102380008400780002014000838148001e0078002c
:10239000ec00b900e8004000601621000080400019
:1023a0001000be0002014000838148003e00900002
:1023b000cf80de00809ab900828cb9008802780054
:1023c000050242000010b8000102420084007800bb
:1023d00006004000878048009e0178006c81410023
:1023e000c211dd0062162100028141000089be0099
:1023f0001e0278007c004200800040006016210030
:102400000080400090007800200020000004780048
:10241000110009008800d800800078001e007800b4
:10242000e600b9007801400060162100000041007c
:1024300010007800e301b9001e007800e600b90042
:10244000fa014000601621000080410090017800f0
:10245000c0ff2f008098b900000141001e007800e5
:10246000e600b900fc014000601621000080410038
:1024700010007800000141003e0090008090b900fb
:10248000808040001e0178007c0041000001400077
:102490006016210000004100010878009e017800cc
:1024a0007e804100800040006016210000804000d6
:1024b0009000780020002000000278001100090040
:1024c0008400d800800078001e007800e600b90083
:1024d000420220000001410060162100000041007e
:1024e00010007800e301b9001e007800e600b90092
:1024f00063022000808141006016210000804100bd
:1025000090017800c0ff2f008098b90000014100c1
:102510001e007800e600b90083022000808141009f
:102520006016210000804100100078000001410089
:102530003e0090008090b900808040001e0478002a
:102540007e004400000140006016210000004100b0
:10255000010878001e0fe8001e007800e10f50000f
:102560005eff34004f0478000080fa00000006008f
:102570001000fa00700798000000eb00000f7800d0
:102580000000eb00000f7800200037001e007800ec
:10259000ec00b90080007800601621000080400047
:1025a0001001be0090c12f00f1ff2f00800f5100dd
:1025b000818f59000f003d001e007800e600b90031
:1025c000f800400060162100008040009000780074
:1025d0001e007800000040007e01900000004100d5
:1025e0001000780080805000600920008088b900c9
:1025f0000100370080da2f009e00780081804000c3
:102600008180e80000b778001e0fe8001e00780007
:10261000e10f5000ddff34000e80e8003d020700ae
:102620000080fa00000006000400fa00881f78000d
:1026300010079800508d8000618d8000b08d88005b
:10264000c18d8800708d8000818d8000d08d8800c4
:10265000e18d8800908d8000a18d800000007800c1
:10266000e08088000000eb00000f78000000eb0025
:10267000000f7800300037001e0078000000400096
:102680009e009000008440001e007800ec00b9001d
:102690008000780060162100008040001001be001c
:1026a0001e007800c200dd00601b21000080400099
:1026b0001000be000002510081825900e0808000bd
:1026c000cf80de000001be000400be008bf80700d2
:1026d00000007800000c78001e0078000000400028
:1026e0009e009000808040001e00780000004000a6
:1026f0001e0190000000410010007800e40f50001f
:102700000a0034001e007800000040001e01900006
:10271000000041001000780042062000820f5000a7
:102720000300340040062000010037005000200064
:10273000800878001e0fe8001e007800e10f5000ae
:10274000cdff34004f0478000080fa00000006003e
:102750000000fa000268a9000080fa0000400600ac
:102760000400fa00000f78001107980048000700e5
:10277000730007000f0007002a00070023eba800e2
:102780000000000011598000000028000080600057
:102790000000e000fbff3a001e007800e3040700a1
:1027a0001e00900056010700400107000080fa005b
:1027b000000006000000fa00007d20002060880074
:1027c0006a2cef0050638000506288006c2cef0090
:1027d0006063800060628800222cef0000402c00c3
:1027e000106388001063800010628800602cef0086
:1027f00000638000006288003000200020638800b1
:102800002063800020628800022cef000000280076
:1028100000608800462cef00662cef000080fa0074
:10282000000006000000fa003002a90080118000bc
:102830000010a1000020a1008011880030a2a90092
:102840003062a80020012000c011880033a2a90036
:1028500033e2a900901180000060a1000070a10087
:102860009011880031e2a8003342a800b133800003
:1028700000fc2f00008060003000b300b0338800ff
:1028800070c2b300c6e6b7000080fa000000060080
:102890000000fa00a0042000303a8800213a8000ad
:1028a00000fe2f0000806000203a8800203a80005f
:1028b0000060a1000070a100203a88004827ef00c6
:1028c00040a7a9001200200080072000a1092000d5
:1028d000337420008049780081497800824978006b
:1028e000103a8000000178000200a000600420007f
:1028f0007105200023742000804978008149780008
:102900008249780000000000113a80000000270092
:102910008080600000002100808f5000faff3a00a4
:1029200000000000113a80000002200000806000da
:102930000000e000fbff32000080fa00000006000b
:102940000000fa000022ef000222ef00a42aef00ac
:102950000e2eef00222eef00362eef00006ea900a3
:10296000010ea900148ea90028eea9004071800074
:102970004700de00614060000080fb0061006000f5
:102980000000400002708000d1ff2f008100610034
:102990000100700000708800007080000000d1000d
:1029a000614060000080fb006100600042718000b7
:1029b000e1ff2f008100610001007000407188007c
:1029c0004071800000407800614060000080fb00a2
:1029d000610060004a00dd0002708000f1bf2f003e
:1029e00081006100010070000070880000708000ac
:1029f0004a00de00614060000080fb006100600072
:102a000002708000e1ff2f00810061000100700072
:102a10000070880000708000004078006140600015
:102a20000080fb00610060004200dd00a2708000b9
:102a3000b1ff2f008100610001007000a0708800cc
:102a4000a07080004200de00614060000080fb005a
:102a50004f00dd00a2708000f1ff270081006100bf
:102a600001007000a07088002eeea9007071800037
:102a70004700de00614060000080fb0061006000f4
:102a80000000400032708000d1ff2f008100610003
:102a90000100700030708800307080000000d100ac
:102aa000614060000080fb00610060007271800086
:102ab000e1ff2f008100610001007000707188004b
:102ac0007071800000407800614060000080fb0071
:102ad000610060004a00dd0032708000f1bf2f000d
:102ae000810061000100700030708800307080004b
:102af0004a00de00614060000080fb006100600071
:102b000032708000e1ff2f00810061000100700041
:102b100030708800307080000040780061406000b4
:102b20000080fb00610060004200dd00d270800088
:102b3000b1ff2f008100610001007000d07088009b
:102b4000d07080004200de00614060000080fb0029
:102b50004f00dd00d2708000f1ff2700810061008e
:102b600001007000d0708800042ea8002070800042
:102b70000000d100614060000080fb006100600047
:102b800062718000e1ff2f00810061000100700090
:102b900060718800607180000040780061406000d2
:102ba0000080fb00610060004a00dd0022708000b0
:102bb000f1bf2f00810061000100700020708800cb
:102bc000207080004a00de00614060000080fb0051
:102bd0006100600022708000e1ff2f008100610031
:102be0000100700020708800207080000040780094
:102bf000614060000080fb00610060004200dd0079
:102c0000c2708000b1ff2f008100610001007000e0
:102c1000c0708800c07080004200de00614060002b
:102c20000080fb004f00dd00c2708000f1ff270034
:102c30008100610001007000c07088002ceea800c7
:102c400015cea80000eea800146ea800282ea8003b
:102c50001fcea8000aeea8001e6ea800322ea80003
:102c6000004ea900044ea900e133800000fc2f00b3
:102c7000008060000030a000e0338800b1338000a5
:102c8000f00f2c0080806000009020000100700098
:102c9000b033880090c2b300cde6b70080c3b30064
:102ca000cce6b7000080fa00000006000000fa0041
:102cb00005e1a9000421a90004c1a90020088000a1
:102cc0000040a0000050a000200888000021ef0074
:102cd00020112000100888000042800000c0a000e1
:102ce00000d0a10000e0a100004288000068a90017
:102cf0002068a80005e1a8000080fa000000060096
:102d00000200fa00000f78001e00780000828800a0
:102d10000080fa00000006003600f800809fbe0028
:102d2000829fbe00849fbe00869fbe000000fa0006
:102d300000828000000001000068a9000080fa0005
:102d40004f03be004f02be004f01be004f00be0049
:102d50003600f900004006000200fa00004f78003b
:102d60009e40780061c0600061406000614060008a
:102d70000080fb004f00dd00c2708000f1ff2700e3
:102d80008100610001007000c07088009e407800e2
:102d900062c060000080fb000000d10000407800ad
:102da000614060000080fb00610060004200dd00c7
:102db000c2708000b1ff2f0081006100010070002f
:102dc000c07088009e40780064c060000080fb00f6
:102dd0004200de0000407800614060000080fb009f
:102de0006100600022708000e1ff2f00810061001f
:102df00001007000207088009e40780068c060006c
:102e00000080fb004300de0000407800614060006d
:102e10000080fb00610060004a00dd00227080003d
:102e2000f1bf2f0081006100010070002070880058
:102e30009e40780070c060000080fb004400de000f
:102e400000407800614060000080fb00610060008d
:102e500062718000e1ff2f008100610001007000bd
:102e60006071880001c2b3001ec060000080fb00da
:102e70004500de0000407800614060000080fb00fb
:102e8000610060000000400022708000d1ff2f0030
:102e90008100610001007000207088000080fa004d
:102ea000000006000200fa00000f7800b0708000f9
:102eb0004e00de0061406000804078001e00780017
:102ec00001487800b07080004300de00614060007f
:102ed000804078001e00780011409800107080003b
:102ee0004700de0061406000804078001e007800ee
:102ef00021409800507180000000d10061406000c6
:102f0000804078001e007800314098000080fa0070
:102f1000000006000200fa00000f78001e00780092
:102f2000100078000000e00002003400004028009b
:102f3000106288001e007800100078000000e00099
:102f400002003d0000402400106288001e80e8005e
:102f5000100078000000e00002003400004024006f
:102f6000106388001e80e800100078000000e00078
:102f700002003d0000402800106388001e00780019
:102f80001000780000f0a7000000ea00306288001e
:102f90001e80e8001000780000f0a7000000ea00a2
:102fa000306388000080fa00000006000200fa008a
:102fb000000f7800401f200020608800222cef00c6
:102fc00000002c00106388001063800010628800ed
:102fd000206080000000d100306288002060800006
:102fe0000000d10030638800ffff37000000fa00c6
:102ff0000000eb000080fa00000006000800fa0064
:103000001007980021079800320798002e009000c2
:103010000000e000030032001e0090000000e0000d
:1030200002003a000000eb00250037003e0090004f
:10303000e10f500002003e000000eb0020003700ce
:103040001e009000ae009000510098000000eb00c0
:10305000000f7800060037001e009000500090001e
:103060001e0040008040eb00014878001e0fe80081
:103070003e0090009e007800808f5000f6ff3900df
:103080001e0090008000eb00010878001e009000f8
:103090008000eb00110098001e009000be00900020
:1030a000210098001e0090008000eb003100980085
:1030b0001e0090008040eb000148980010002000a6
:1030c0000080fa00000006000400fa00000f7800fb
:1030d000110798001e0078000000e0003400320064
:1030e0001e007800300090000000e0003000320048
:1030f0001e007800d00090001e00780010007800bc
:1031000000804000904078001e0090000148780048
:103110001e00780030009000e10f50000f003a00d0
:103120001e007800900078001e00780020009000bb
:103130000000e900808f5000040031001e0078007c
:10314000100078000000e800010037000000eb00ec
:103150009e007800800878000e0037001e0078007e
:10316000900078001e007800200090000000e90028
:10317000808f5000040031001e007800100078009d
:103180000000e800010037000000eb009e0078001e
:10319000800878001e007800300090008000e90070
:1031a0001e00780031009800100020000100370058
:1031b0000000eb000080fa00000006000a00fa00a0
:1031c0002007980031079800420798002e009000d1
:1031d0000000e000340032003e0090000000e000fb
:1031e00031003200be009000110798002e009000c0
:1031f000b00090004e009000808f50002a003900ef
:103200000000eb00000f78001b0037001e00780064
:103210009e00900000804000ae00900051019000a0
:10322000ae0090009100780081004100914078004c
:10323000014878002e009000900078002e00900049
:10324000200090000000e900808f5000060031004f
:103250002e009000100078008000e8002e00900002
:1032600001087800030037002e0090008000eb007a
:10327000010878001e0fe8009e0078004e009000c4
:10328000808f5000e1ff39002e009000b0009000c8
:103290004e009000808050002e0090003100980079
:1032a00010002000010037000000eb000080fa0051
:1032b000000006000400fa00000f78002147980083
:1032c0001e0078000000e000290032001e00780097
:1032d000b00090001e00780020009000808f500009
:1032e00007003a001e007800004890008040e80087
:1032f0001e007800014898000000eb001d00370018
:103300001e007800d00090001e0078001000900091
:1033100000804000ae409000014878001e00780018
:10332000900090001e007800200090000000e9004e
:10333000808f5000040031001e00780010009000c3
:103340000000e800010037000000eb009e0078005c
:10335000900098001e007800300090008000e80087
:103360001e00780031009800100020000100370096
:103370000000eb000080fa00000006000e00fa00da
:10338000300798004107980052079800434f980073
:103390003e0090000000e000750032004e009000fa
:1033a0000000e00072003200ce009000210798007b
:1033b0004e4890000004e000320032003e009000d1
:1033c000a00090003e0090003000900080805000ef
:1033d0005e009000808f5000020031000000eb0082
:1033e000640037000000eb00000f78001900370080
:1033f0003e009000d00090003e0090001000900031
:10340000008040009e0078002e0190008100410065
:1034100091407800014878001e0fe8003e009000bf
:10342000900090003e009000200090000000e90015
:10343000808f5000040031003e009000100090008a
:103440000000e800010037000000eb00be00900023
:10345000900098009e0078005e009000808f5000e1
:10346000e3ff39003e009000b00090001e0078009d
:10347000808040003e009000310098001000200045
:103480003c0037000000eb001007980032003700c6
:103490003e009000b00090003e00900020009000a0
:1034a000808f50000c003a003e0090008048900051
:1034b0005e009000004178001e00900000407800ff
:1034c0000040510080c040003e009000014898003c
:1034d0000000eb00270037003e009000d000900075
:1034e0003e00900010009000008040009e00900080
:1034f0002e01900081004100914078000148780041
:103500001e0090000000e800100798003e009000a8
:10351000300090008000e8003e00900031009800ec
:103520003e009000900090003e009000200090002f
:103530000000e900808f5000040031003e00900040
:10354000100090000000e800010037000000eb00d0
:10355000be009000900098009e0090005e009000d9
:10356000808f5000caff3900100020000100370092
:103570000000eb000080fa00000006000400fa00e2
:10358000000f7800110798001e0078000000e0008e
:103590000e0032001e007800300090000000e000b5
:1035a0000a0032001e007800d00090001e00780053
:1035b0001000780000804000904078001e009000cd
:1035c0000148780010002000010037000000eb00e7
:1035d0000080fa00000006000c00fa003007980096
:1035e00041079800520798003e0090000000e0005c
:1035f00028003200ce009000210798003e00900085
:10360000b00090005e009000808f500021003900d3
:103610003e00900010007800100798000000eb00ba
:10362000000f7800150037002e0090001e004000ab
:10363000be009000510190009e009000810041006a
:1036400091407800014878009e0090003e00900074
:10365000200090000000e900808f5000040031003d
:103660001e0090000000e8001007980002003700dc
:103670000000eb00100798001e0fe8005e009000ad
:103680009e007800808f5000e7ff39001000200076
:10369000010037000000eb000080fa000000060087
:1036a0000400fa00000f7800110798001e0078004f
:1036b000b00090001e009000808f50002000360067
:1036c0001e007800a00090001e0078001000780016
:1036d000808050001e009000808f50000a00310052
:1036e0001e007800900078001e00780020009000f6
:1036f000808050001e009000808040001e007800f6
:1037000001087800060037001e007800900078005d
:103710001e009000808040001e00780001087800a4
:103720001e007800b00090001e00900080805000c5
:103730001e007800310098001000200008003700bb
:103740001e007800900090001e00780001087800ac
:103750001e0078008000eb0031009800100020006f
:103760000080fa00000006000e00fa00881f7800b2
:1037700020479800210798003207980043079800d7
:1037800054079800650798004e009000104078009c
:103790000004e0000b003a00ae40900040c2b300cd
:1037a00080cf500052003a003e0090008040eb0075
:1037b000014878004e00900011c0b3000148780025
:1037c0004b0037004e00900010407800e14f500051
:1037d0001b003a00ae409000a0c2b30080cf500062
:1037e00004003a004e00900021c0b3000148780068
:1037f0003f0037003e009000104078000004e000d9
:1038000004003d004e0090008040eb00014878002d
:10381000370037003e009000104078008080fb00a9
:103820002e019000810041002e41900082487800d6
:103830008040e8003e009000014878002c003700ee
:103840004e00900010407800e24f50000b003a000c
:103850002e4090001d0207008040780040002000ac
:103860008008dd005e009000014878004e00900066
:1038700031c0b300014878001d0037004e009000b1
:1038800010407800e34f500019003a005e009000ad
:1038900010407800004478002e4090000b02070092
:1038a00000407400804078005e009000014878007d
:1038b0003e00900010407800804078002e0090007c
:1038c0004e000700004f78005e0090001040780026
:1038d0009e4f500003003a00ee0090002e00900032
:1038e000010001004e0090008040eb00014878008c
:1038f0004f0478000080fa00000006000600fa007d
:10390000000f78002147980022079800f20020005d
:103910008000eb002e009000a5f407001e00780048
:103920000000e00006003a002e4090008000fb00fe
:1039300090818000a5f40700a08188000c0037006a
:103940002e4090000000fb00800078001e007800f0
:103950009ef40700a08188009e0078009181880075
:103960001e007800a3f407001e004000b08188000c
:10397000a08180000000e0000e003200a0818000e5
:1039800080007800908180000080500080007800e6
:103990009081800001017800800078002e00900066
:1039a0007cf40700a08180000000e800908188007e
:1039b0000a003700b081800080007800908180008c
:1039c0000080500080007800908180000101780024
:1039d000800078002e0090006ef40700a081800027
:1039e00000f0a7000000ea000000e9004f00de0040
:1039f000004078000080fa00000006000600fa008f
:103a000010079800414798000040eb00004f7800f5
:103a10000040eb00104798001d0037001e4090004a
:103a20000080fb009e0090000080400090407800e5
:103a300040c2b30080cf5000110032001e40900001
:103a40000080fb009e0090000080400090407800c5
:103a5000a0c2b30080cf5000120032001e40900080
:103a60000080fb009e0090000080400090407800a5
:103a70001e40780000c06800004f78000100370049
:103a8000000000001e4090000040e8001047980031
:103a90009e4090004e40900080cf5000dfff3900e4
:103aa00001003700000000001e4078000080fa008e
:103ab000000006000400fa00000f780011079800cb
:103ac00001cba80001aba800018ba900016ba900e4
:103ad000005880000040a1000050a100005888005c
:103ae000005880000000a0000010a10000588800cd
:103af0001e00e90070588800f0012000105888006e
:103b000040232000605888001e0090002058880044
:103b1000062bef000088a9002088a80001eba80070
:103b200003eba8000080fa00000006000200fa0083
:103b3000000f78009e0078005181880011cba8000a
:103b400011aba900118ba900116ba900805880004e
:103b50000040a0000050a1008058880080588000dc
:103b60000000a1000010a10080588800805880004b
:103b70000000a1000010a10080588800805880003b
:103b80000040a1000050a100805888001e2bef00cb
:103b9000e00120009058880060232000e058880051
:103ba00080462100a0588800162bef0001c8a9000c
:103bb00021c8a80011eba8000080fa000000060050
:103bc0000400fa00000f78001107980021cba9002b
:103bd00021aba800218ba900216ba900005980000e
:103be0000040a1000050a100005988000059800049
:103bf0000000a0000010a100005988001e00e9008c
:103c000070598800a00020001059880080262000ec
:103c1000605988001e00900020598800262bef0074
:103c20001e00900010007800401388000308a900cf
:103c30002308a80021eba8000080fa00000006007d
:103c40000200fa00000f78009e0078006181880071
:103c500031cba90031aba900318ba900316ba90090
:103c6000805980000040a0000050a10080598800c9
:103c7000805980000000a1000010a1008059880038
:103c80003e2bef00a00020009059880080262000e5
:103c9000e059880080442100a0598800362bef00ad
:103ca0000488a9002488a80031eba8000080fa004d
:103cb000000006000000fa000088a9000080fa0059
:103cc000004006003600f800809fbe00829fbe00c4
:103cd000849fbe00869fbe000200fa001002800092
:103ce0004500de0067406000004f78001002800051
:103cf0000050a0000060a0000070a000100288002a
:103d000000000000508180008041eb001200200084
:103d10008146210099fd07001e4078006740600041
:103d20000080fb00670060004500dd00120280009b
:103d3000f1f12f0081006100010070001002880085
:103d40000000000001c8a9000080fa004f03be0077
:103d50004f02be004f01be004f00be003600f9000a
:103d6000004006000000fa000308a9000080fa00e5
:103d7000004006003600f800809fbe00829fbe0013
:103d8000849fbe00869fbe000000fa0040a2800013
:103d9000804078006081800046fd07000488a9000b
:103da0000080fa004f03be004f02be004f01be006c
:103db0004f00be003600f900004006000000fa0087
:103dc00012f20700e2818000d1818000c081800072
:103dd00012f207000080fa00000006000000fa005e
:103de000800820008b0007003000200089000700b9
:103df0000080fa00000006000000fa000009200020
:103e00008400070020002000820007000080fa00e4
:103e1000000006000000fa00800920007d00070075
:103e20000000eb007b0007000000eb0079000700ba
:103e30000000eb00770007000000eb0075000700b2
:103e40000080fa00000006000000fa00800920004f
:103e5000700007000000eb006e0007000000eb00a0
:103e60006c0007000080fa00000006000000fa0065
:103e7000000e2000670007000080fa000000060026
:103e80000e00fa006007980000062000610007009d
:103e900064004700800078000000eb004900070044
:103ea00066004700800078000000eb004500070036
:103eb00068004700800078000000eb004100070028
:103ec0006a004700800078000000eb003d0007001a
:103ed0002e009000c800dd003e00900000804000f1
:103ee000cf80de00008fbe001e00be004809dd004e
:103ef000c801de00830171004801dd004e00900022
:103f0000cf80de00001f4100019749001e00be0067
:103f10004809dd00c801de00830171004801dd00b1
:103f20005e009000cf80de00001f41000197490035
:103f30006e0090003e1878002e1078000080fa0085
:103f4000000006000800fa00300798000006200074
:103f5000300007000e80e800800078000000eb00d1
:103f60001800070064004700800078000000eb00a4
:103f7000140007001e009000c800dd002e00900015
:103f8000008f40003e0090001e0878000080fa007c
:103f9000000006000400fa001007980080042000ca
:103fa0001c0007008e0078000000eb0005000700f1
:103fb0009e0078001e009000010878000080fa0042
:103fc000000006000600fa0010079800210798007c
:103fd00040138000000f78001e00900040138800fe
:103fe0000000000000138000610060000000e0009d
:103ff000fcff320040138000000f78004013800067
:10400000800078002e009000010878000080fa00ff
:10401000000006000400fa0010079800401380001a
:10402000000f78001e009000401388000000000080
:1040300000138000610060000000e000fcff32001f
:1040400040138000000f78000080fa000000060096
:104050000400fa0020479800ae40900000cdb30065
:1040600000cf40001e407800e94f500002003e00a3
:104070001e40780013003700ae409000f0cbb30034
:1040800000cf40001e407800e54f500003003e0086
:104090009e4078006ac040000a003700ae409000a1
:1040a000f0c9b30000cf40001e407800e54f50003b
:1040b00003003e009e4078006ac0400001003700c7
:1040c00000c0eb000080fa00000006000200fa00c9
:1040d000004f78001e407800e94f500003003e007a
:1040e00001c3b3001ec040000a0037001e40780024
:1040f000e94f5000060036001e407800ef4f500098
:1041000003003e0011c4b3001ec040000100370090
:104110000040eb000080fa00000006000600fa00f4
:10412000889fbe00004f7800120798002307980070
:104130001e80fb008000eb00fff107000004be00c2
:1041400002002000032724001e009000ae00900013
:10415000a8f107000001be000800be0048f10700fa
:0c4160004f04be000080fa0000000600c2
:020000040000fa
:10416c004210000080030000800000001c100000c2
:10417c000e000000820000005e01d000070000006d
:10418c00e803000000010000010000000010000026
:10419c001c000000800000004814000030000000eb
:1041ac00800000002a1000000800000080000000c1
:1041bc00321000000600000080000000c213000056
:1041cc0086000000800000003e100000020000008d
:1041dc008000000038100000060000008200000083
:1041ec0036e1fe007fbfdf0040100000020000003f
:0841fc00800000000221800098
:020000040000fa
:0442040000000000b6
:020000040000fa
:020000040005f5
:0457300078ff0000fe
:020000040000fa
:020000040005f5
:045738007bff0000f3
:020000040000fa
:020000040005f5
:045740009fff0000c7
:020000040000fa
:020000040005f5
:04575000fdff000059
:020000040000fa
:020000040005f5
:04577800feff000030
:020000040000fa
:020000040005f5
:04578000feff000028
:00000001FF
